{
  "_format": "hh-sol-artifact-1",
  "contractName": "OrderSig",
  "sourceName": "contracts/modules/OrderSig.sol",
  "abi": [
    {
      "inputs": [
        {
          "internalType": "string",
          "name": "_functionName",
          "type": "string"
        }
      ],
      "name": "DelegateCallFailed",
      "type": "error"
    },
    {
      "inputs": [],
      "name": "ECDSA__InvalidS",
      "type": "error"
    },
    {
      "inputs": [],
      "name": "ECDSA__InvalidSignature",
      "type": "error"
    },
    {
      "inputs": [],
      "name": "ECDSA__InvalidSignatureLength",
      "type": "error"
    },
    {
      "inputs": [],
      "name": "ECDSA__InvalidV",
      "type": "error"
    },
    {
      "inputs": [],
      "name": "InvalidChainId",
      "type": "error"
    },
    {
      "inputs": [],
      "name": "InvalidDuration",
      "type": "error"
    },
    {
      "inputs": [],
      "name": "InvalidOrderCreateState",
      "type": "error"
    },
    {
      "inputs": [],
      "name": "InvalidOrderMethodCall",
      "type": "error"
    },
    {
      "inputs": [],
      "name": "InvalidQuantity",
      "type": "error"
    },
    {
      "inputs": [],
      "name": "InvalidSignature",
      "type": "error"
    },
    {
      "inputs": [],
      "name": "InvalidSigner",
      "type": "error"
    },
    {
      "inputs": [],
      "name": "InvalidTradeToken",
      "type": "error"
    },
    {
      "inputs": [],
      "name": "MerchantConcurrencyReached",
      "type": "error"
    },
    {
      "inputs": [],
      "name": "MustBeMerchant",
      "type": "error"
    },
    {
      "inputs": [],
      "name": "MustBeMerchantOrTrader",
      "type": "error"
    },
    {
      "inputs": [],
      "name": "MustBeTrader",
      "type": "error"
    },
    {
      "inputs": [],
      "name": "OrderAcceptedRequired",
      "type": "error"
    },
    {
      "inputs": [],
      "name": "OrderDoesNotExists",
      "type": "error"
    },
    {
      "inputs": [],
      "name": "OrderExists",
      "type": "error"
    },
    {
      "inputs": [],
      "name": "OrderExpired",
      "type": "error"
    },
    {
      "inputs": [],
      "name": "OrderPaidRequired",
      "type": "error"
    },
    {
      "inputs": [],
      "name": "OrderPendingOrAcceptedRequired",
      "type": "error"
    },
    {
      "inputs": [],
      "name": "OrderPendingRequired",
      "type": "error"
    },
    {
      "inputs": [],
      "name": "ProtocolInvariantCheckFailed",
      "type": "error"
    },
    {
      "inputs": [
        {
          "internalType": "address",
          "name": "token",
          "type": "address"
        }
      ],
      "name": "SafeERC20FailedOperation",
      "type": "error"
    },
    {
      "inputs": [],
      "name": "SignatureExpired",
      "type": "error"
    },
    {
      "inputs": [],
      "name": "UnsupportedCurrency",
      "type": "error"
    },
    {
      "inputs": [],
      "name": "UnsupportedPaymentMethod",
      "type": "error"
    },
    {
      "inputs": [],
      "name": "ZeroAddress",
      "type": "error"
    },
    {
      "anonymous": false,
      "inputs": [
        {
          "indexed": false,
          "internalType": "bytes32",
          "name": "orderHash",
          "type": "bytes32"
        },
        {
          "indexed": false,
          "internalType": "address",
          "name": "trader",
          "type": "address"
        },
        {
          "indexed": false,
          "internalType": "address",
          "name": "merchant",
          "type": "address"
        },
        {
          "indexed": false,
          "internalType": "uint256",
          "name": "traderChain",
          "type": "uint256"
        },
        {
          "indexed": false,
          "internalType": "uint256",
          "name": "merchantChain",
          "type": "uint256"
        },
        {
          "indexed": false,
          "internalType": "address",
          "name": "token",
          "type": "address"
        },
        {
          "indexed": false,
          "internalType": "bytes32",
          "name": "currency",
          "type": "bytes32"
        },
        {
          "indexed": false,
          "internalType": "bytes32",
          "name": "paymentMethod",
          "type": "bytes32"
        },
        {
          "indexed": false,
          "internalType": "enum OrderType",
          "name": "orderType",
          "type": "uint8"
        },
        {
          "indexed": false,
          "internalType": "uint256",
          "name": "quantity",
          "type": "uint256"
        },
        {
          "indexed": false,
          "internalType": "enum OrderState",
          "name": "orderState",
          "type": "uint8"
        },
        {
          "indexed": false,
          "internalType": "uint256",
          "name": "deadline",
          "type": "uint256"
        },
        {
          "indexed": false,
          "internalType": "uint256",
          "name": "createdAt",
          "type": "uint256"
        }
      ],
      "name": "NewOrder",
      "type": "event"
    },
    {
      "anonymous": false,
      "inputs": [
        {
          "indexed": false,
          "internalType": "bytes32",
          "name": "orderHash",
          "type": "bytes32"
        },
        {
          "indexed": false,
          "internalType": "enum OrderState",
          "name": "status",
          "type": "uint8"
        }
      ],
      "name": "OrderAccepted",
      "type": "event"
    },
    {
      "anonymous": false,
      "inputs": [
        {
          "indexed": false,
          "internalType": "bytes32",
          "name": "orderHash",
          "type": "bytes32"
        },
        {
          "indexed": false,
          "internalType": "address",
          "name": "appealer",
          "type": "address"
        },
        {
          "indexed": false,
          "internalType": "enum IAppeal.AppealDecision",
          "name": "appealDecision",
          "type": "uint8"
        },
        {
          "indexed": false,
          "internalType": "enum OrderState",
          "name": "orderState",
          "type": "uint8"
        },
        {
          "indexed": false,
          "internalType": "uint256",
          "name": "createdAt",
          "type": "uint256"
        }
      ],
      "name": "OrderAppealed",
      "type": "event"
    },
    {
      "anonymous": false,
      "inputs": [
        {
          "indexed": false,
          "internalType": "bytes32",
          "name": "orderHash",
          "type": "bytes32"
        },
        {
          "indexed": false,
          "internalType": "enum OrderState",
          "name": "status",
          "type": "uint8"
        }
      ],
      "name": "OrderCancelled",
      "type": "event"
    },
    {
      "anonymous": false,
      "inputs": [
        {
          "indexed": false,
          "internalType": "bytes32",
          "name": "orderHash",
          "type": "bytes32"
        },
        {
          "indexed": false,
          "internalType": "enum OrderState",
          "name": "status",
          "type": "uint8"
        }
      ],
      "name": "OrderPaid",
      "type": "event"
    },
    {
      "anonymous": false,
      "inputs": [
        {
          "indexed": false,
          "internalType": "bytes32",
          "name": "orderHash",
          "type": "bytes32"
        },
        {
          "indexed": false,
          "internalType": "enum OrderState",
          "name": "status",
          "type": "uint8"
        }
      ],
      "name": "OrderReleased",
      "type": "event"
    },
    {
      "inputs": [
        {
          "components": [
            {
              "internalType": "bytes32",
              "name": "orderHash",
              "type": "bytes32"
            },
            {
              "internalType": "enum IOrderSig.OrderMethod",
              "name": "method",
              "type": "uint8"
            },
            {
              "internalType": "uint256",
              "name": "expiry",
              "type": "uint256"
            }
          ],
          "internalType": "struct IOrderSig.OrderMethodPayload",
          "name": "_method",
          "type": "tuple"
        },
        {
          "internalType": "bytes",
          "name": "_sig",
          "type": "bytes"
        }
      ],
      "name": "acceptOrder",
      "outputs": [],
      "stateMutability": "nonpayable",
      "type": "function"
    },
    {
      "inputs": [
        {
          "components": [
            {
              "internalType": "bytes32",
              "name": "orderHash",
              "type": "bytes32"
            },
            {
              "internalType": "enum IOrderSig.OrderMethod",
              "name": "method",
              "type": "uint8"
            },
            {
              "internalType": "uint256",
              "name": "expiry",
              "type": "uint256"
            }
          ],
          "internalType": "struct IOrderSig.OrderMethodPayload",
          "name": "_method",
          "type": "tuple"
        },
        {
          "internalType": "bytes",
          "name": "_sig",
          "type": "bytes"
        }
      ],
      "name": "appealOrder",
      "outputs": [],
      "stateMutability": "nonpayable",
      "type": "function"
    },
    {
      "inputs": [
        {
          "components": [
            {
              "internalType": "bytes32",
              "name": "orderHash",
              "type": "bytes32"
            },
            {
              "internalType": "enum IOrderSig.OrderMethod",
              "name": "method",
              "type": "uint8"
            },
            {
              "internalType": "uint256",
              "name": "expiry",
              "type": "uint256"
            }
          ],
          "internalType": "struct IOrderSig.OrderMethodPayload",
          "name": "_method",
          "type": "tuple"
        },
        {
          "internalType": "bytes",
          "name": "_sig",
          "type": "bytes"
        }
      ],
      "name": "cancelOrder",
      "outputs": [],
      "stateMutability": "nonpayable",
      "type": "function"
    },
    {
      "inputs": [
        {
          "components": [
            {
              "internalType": "address",
              "name": "trader",
              "type": "address"
            },
            {
              "internalType": "address",
              "name": "merchant",
              "type": "address"
            },
            {
              "internalType": "uint256",
              "name": "traderChain",
              "type": "uint256"
            },
            {
              "internalType": "uint256",
              "name": "merchantChain",
              "type": "uint256"
            },
            {
              "internalType": "address",
              "name": "token",
              "type": "address"
            },
            {
              "internalType": "bytes32",
              "name": "currency",
              "type": "bytes32"
            },
            {
              "internalType": "bytes32",
              "name": "paymentMethod",
              "type": "bytes32"
            },
            {
              "internalType": "enum OrderType",
              "name": "orderType",
              "type": "uint8"
            },
            {
              "internalType": "uint256",
              "name": "quantity",
              "type": "uint256"
            },
            {
              "internalType": "uint256",
              "name": "expiry",
              "type": "uint256"
            },
            {
              "internalType": "uint256",
              "name": "duration",
              "type": "uint256"
            }
          ],
          "internalType": "struct IOrder.CreateOrder",
          "name": "_order",
          "type": "tuple"
        },
        {
          "internalType": "bytes",
          "name": "_traderSig",
          "type": "bytes"
        },
        {
          "internalType": "bytes",
          "name": "_merchantSig",
          "type": "bytes"
        }
      ],
      "name": "createOrder",
      "outputs": [],
      "stateMutability": "nonpayable",
      "type": "function"
    },
    {
      "inputs": [
        {
          "components": [
            {
              "internalType": "bytes32",
              "name": "orderHash",
              "type": "bytes32"
            },
            {
              "internalType": "enum IOrderSig.OrderMethod",
              "name": "method",
              "type": "uint8"
            },
            {
              "internalType": "uint256",
              "name": "expiry",
              "type": "uint256"
            }
          ],
          "internalType": "struct IOrderSig.OrderMethodPayload",
          "name": "_method",
          "type": "tuple"
        },
        {
          "internalType": "bytes",
          "name": "_sig",
          "type": "bytes"
        }
      ],
      "name": "payOrder",
      "outputs": [],
      "stateMutability": "nonpayable",
      "type": "function"
    },
    {
      "inputs": [
        {
          "components": [
            {
              "internalType": "bytes32",
              "name": "orderHash",
              "type": "bytes32"
            },
            {
              "internalType": "enum IOrderSig.OrderMethod",
              "name": "method",
              "type": "uint8"
            },
            {
              "internalType": "uint256",
              "name": "expiry",
              "type": "uint256"
            }
          ],
          "internalType": "struct IOrderSig.OrderMethodPayload",
          "name": "_method",
          "type": "tuple"
        },
        {
          "internalType": "bytes",
          "name": "_sig",
          "type": "bytes"
        }
      ],
      "name": "releaseOrder",
      "outputs": [],
      "stateMutability": "nonpayable",
      "type": "function"
    }
  ],
  "bytecode": "0x60808060405234601557613591908161001b8239f35b600080fdfe6080604052600436101561001257600080fd5b60003560e01c806307b587c714610077578063189df3a01461007257806370a18b1a1461006d5780637cbd072914610068578063ccddd515146100635763e103e38d1461005e57600080fd5b6116ea565b611417565b610e12565b610b31565b610727565b3461069b57610085366106ce565b60408301354211610671576100b56040516100a1602082611aaf565b600081526100b0368486611b65565b611c70565b610647576100c560208401611bd9565b600581101561064257600303610618576100ed6100f3926100e585611c93565b923691611b65565b90612c72565b903590600a61012b836000527f33ea8f700f9ca485fc65a69b25e04c222b4a03289fd0c98ba53848533a3e39a4602052604060002090565b0154156105ee57610172600761016a846000527f33ea8f700f9ca485fc65a69b25e04c222b4a03289fd0c98ba53848533a3e39a4602052604060002090565b015460ff1690565b61017b81611dd3565b1561044e575b60016101bb600761016a856000527f33ea8f700f9ca485fc65a69b25e04c222b4a03289fd0c98ba53848533a3e39a4602052604060002090565b6101c481611dd3565b146102a9575b7fe3bb8b6a10cd6f3d19108b8f000be77007825b16e073eb3a26cd8ccf3b6259a4826102516007610224836000527f33ea8f700f9ca485fc65a69b25e04c222b4a03289fd0c98ba53848533a3e39a4602052604060002090565b016105007fffffffffffffffffffffffffffffffffffffffffffffffffffffffffffff00ff825416179055565b6102946007610289836000527f33ea8f700f9ca485fc65a69b25e04c222b4a03289fd0c98ba53848533a3e39a4602052604060002090565b015460081c60ff1690565b906102a460405192839283611e30565b0390a1005b73ffffffffffffffffffffffffffffffffffffffff61032d61031460016102f9866000527f33ea8f700f9ca485fc65a69b25e04c222b4a03289fd0c98ba53848533a3e39a4602052604060002090565b015473ffffffffffffffffffffffffffffffffffffffff1690565b73ffffffffffffffffffffffffffffffffffffffff1690565b911603610424578061041e61039160046102f97fe3bb8b6a10cd6f3d19108b8f000be77007825b16e073eb3a26cd8ccf3b6259a4956000527f33ea8f700f9ca485fc65a69b25e04c222b4a03289fd0c98ba53848533a3e39a4602052604060002090565b60086103c6846000527f33ea8f700f9ca485fc65a69b25e04c222b4a03289fd0c98ba53848533a3e39a4602052604060002090565b01546104186103fe856000527f33ea8f700f9ca485fc65a69b25e04c222b4a03289fd0c98ba53848533a3e39a4602052604060002090565b5473ffffffffffffffffffffffffffffffffffffffff1690565b91612df8565b906101ca565b7fd6307e440000000000000000000000000000000000000000000000000000000060005260046000fd5b60016104886007610289856000527f33ea8f700f9ca485fc65a69b25e04c222b4a03289fd0c98ba53848533a3e39a4602052604060002090565b61049181611ddd565b036105c4576104cf6103146103fe846000527f33ea8f700f9ca485fc65a69b25e04c222b4a03289fd0c98ba53848533a3e39a4602052604060002090565b73ffffffffffffffffffffffffffffffffffffffff82160361059a5761059561052660046102f9856000527f33ea8f700f9ca485fc65a69b25e04c222b4a03289fd0c98ba53848533a3e39a4602052604060002090565b600861055b856000527f33ea8f700f9ca485fc65a69b25e04c222b4a03289fd0c98ba53848533a3e39a4602052604060002090565b015461041860016102f9876000527f33ea8f700f9ca485fc65a69b25e04c222b4a03289fd0c98ba53848533a3e39a4602052604060002090565b610181565b7f0614e1550000000000000000000000000000000000000000000000000000000060005260046000fd5b7f83d165310000000000000000000000000000000000000000000000000000000060005260046000fd5b7f81a618400000000000000000000000000000000000000000000000000000000060005260046000fd5b7fc514a45f0000000000000000000000000000000000000000000000000000000060005260046000fd5b611baa565b7f8baa579f0000000000000000000000000000000000000000000000000000000060005260046000fd5b7f0819bdcd0000000000000000000000000000000000000000000000000000000060005260046000fd5b600080fd5b9181601f8401121561069b5782359167ffffffffffffffff831161069b576020838186019501011161069b57565b907ffffffffffffffffffffffffffffffffffffffffffffffffffffffffffffffffc82016080811261069b5760601361069b576004916064359067ffffffffffffffff821161069b57610723916004016106a0565b9091565b3461069b57610735366106ce565b919060408201354211610671576020926107556040516100a18682611aaf565b61064757610764848401611bd9565b600581101561064257600103610618576100ed610784926100e585611c93565b903590600a6107bc836000527f33ea8f700f9ca485fc65a69b25e04c222b4a03289fd0c98ba53848533a3e39a4602052604060002090565b0154156105ee5760026107fd6007610289856000527f33ea8f700f9ca485fc65a69b25e04c222b4a03289fd0c98ba53848533a3e39a4602052604060002090565b61080681611ddd565b03610b075761084661031460016102f9856000527f33ea8f700f9ca485fc65a69b25e04c222b4a03289fd0c98ba53848533a3e39a4602052604060002090565b73ffffffffffffffffffffffffffffffffffffffff821690811490811591610ac4575b50610a9a577f4692713807ece016e4224a954ce29bf370e276b0cea611d553232c2f4d7b4fd99261092561096a926108fc60076108cf876000527f33ea8f700f9ca485fc65a69b25e04c222b4a03289fd0c98ba53848533a3e39a4602052604060002090565b016103007fffffffffffffffffffffffffffffffffffffffffffffffffffffffffffff00ff825416179055565b610904611af5565b9285845283019073ffffffffffffffffffffffffffffffffffffffff169052565b60006040820152426060820152610965836000527fdde41ee27df2f118255a2f19cab8c860a382d1448ec2327858e570d89818304c602052604060002090565b611e46565b61099d816000527fdde41ee27df2f118255a2f19cab8c860a382d1448ec2327858e570d89818304c602052604060002090565b546102a46109d960016102f9856000527fdde41ee27df2f118255a2f19cab8c860a382d1448ec2327858e570d89818304c602052604060002090565b92610a1d6001610a12836000527fdde41ee27df2f118255a2f19cab8c860a382d1448ec2327858e570d89818304c602052604060002090565b015460a01c60ff1690565b906002610a8b610a5b6007610289856000527f33ea8f700f9ca485fc65a69b25e04c222b4a03289fd0c98ba53848533a3e39a4602052604060002090565b926000527fdde41ee27df2f118255a2f19cab8c860a382d1448ec2327858e570d89818304c602052604060002090565b01549160405195869586611f0e565b7ff04747a90000000000000000000000000000000000000000000000000000000060005260046000fd5b9050610aff6103146103fe856000527f33ea8f700f9ca485fc65a69b25e04c222b4a03289fd0c98ba53848533a3e39a4602052604060002090565b141538610869565b7f4a306e1d0000000000000000000000000000000000000000000000000000000060005260046000fd5b3461069b57610b3f366106ce565b6040830135421161067157610b5b6040516100a1602082611aaf565b61064757610b6b60208401611bd9565b600581101561064257610618576100ed610b88926100e585611c93565b9035600a610bbf826000527f33ea8f700f9ca485fc65a69b25e04c222b4a03289fd0c98ba53848533a3e39a4602052604060002090565b0154156105ee57610bfe6007610289836000527f33ea8f700f9ca485fc65a69b25e04c222b4a03289fd0c98ba53848533a3e39a4602052604060002090565b610c0781611ddd565b610de857610c4661031460016102f9846000527f33ea8f700f9ca485fc65a69b25e04c222b4a03289fd0c98ba53848533a3e39a4602052604060002090565b73ffffffffffffffffffffffffffffffffffffffff831603610424577fc1c3487325326ec0a3256c2248d978c3d4bd005ab1e5579108080de5291b1eba91610ce96007610cbc846000527f33ea8f700f9ca485fc65a69b25e04c222b4a03289fd0c98ba53848533a3e39a4602052604060002090565b016101007fffffffffffffffffffffffffffffffffffffffffffffffffffffffffffff00ff825416179055565b610d21600761016a846000527f33ea8f700f9ca485fc65a69b25e04c222b4a03289fd0c98ba53848533a3e39a4602052604060002090565b610d2a81611dd3565b15610d69575b506102946007610289836000527f33ea8f700f9ca485fc65a69b25e04c222b4a03289fd0c98ba53848533a3e39a4602052604060002090565b610de290610da560046102f9856000527f33ea8f700f9ca485fc65a69b25e04c222b4a03289fd0c98ba53848533a3e39a4602052604060002090565b6008610dda856000527f33ea8f700f9ca485fc65a69b25e04c222b4a03289fd0c98ba53848533a3e39a4602052604060002090565b015490612f3d565b38610d30565b7f602cf9ef0000000000000000000000000000000000000000000000000000000060005260046000fd5b3461069b57610e20366106ce565b6040830135421161067157610e3c6040516100a1602082611aaf565b61064757610e4c60208401611bd9565b600581101561064257600203610618576100ed610e6c926100e585611c93565b9035600a610ea3826000527f33ea8f700f9ca485fc65a69b25e04c222b4a03289fd0c98ba53848533a3e39a4602052604060002090565b0154156105ee576002610ee46007610289846000527f33ea8f700f9ca485fc65a69b25e04c222b4a03289fd0c98ba53848533a3e39a4602052604060002090565b610eed81611ddd565b03610b0757610f576007610f2a836000527f33ea8f700f9ca485fc65a69b25e04c222b4a03289fd0c98ba53848533a3e39a4602052604060002090565b016104007fffffffffffffffffffffffffffffffffffffffffffffffffffffffffffff00ff825416179055565b6003610f99610f9460016102f9856000527f33ea8f700f9ca485fc65a69b25e04c222b4a03289fd0c98ba53848533a3e39a4602052604060002090565b61303f565b01610fa48154611f88565b905561106e611029610fe460046102f9856000527f33ea8f700f9ca485fc65a69b25e04c222b4a03289fd0c98ba53848533a3e39a4602052604060002090565b73ffffffffffffffffffffffffffffffffffffffff166000527f33ea8f700f9ca485fc65a69b25e04c222b4a03289fd0c98ba53848533a3e39a2602052604060002090565b6110696008611061856000527f33ea8f700f9ca485fc65a69b25e04c222b4a03289fd0c98ba53848533a3e39a4602052604060002090565b015491611fc7565b61319a565b916110af8360086110a8856000527f33ea8f700f9ca485fc65a69b25e04c222b4a03289fd0c98ba53848533a3e39a4602052604060002090565b0154611fba565b926110f960056110f0610fe460046102f9886000527f33ea8f700f9ca485fc65a69b25e04c222b4a03289fd0c98ba53848533a3e39a4602052604060002090565b01918254612079565b9055611133600761016a846000527f33ea8f700f9ca485fc65a69b25e04c222b4a03289fd0c98ba53848533a3e39a4602052604060002090565b61113c81611dd3565b15611314575b600161117c600761016a856000527f33ea8f700f9ca485fc65a69b25e04c222b4a03289fd0c98ba53848533a3e39a4602052604060002090565b61118581611dd3565b146111e5575b7fe523b938ed6306ade2fd18c2cde515e4921fb8868319befda9abaaf766295440826102946007610289836000527f33ea8f700f9ca485fc65a69b25e04c222b4a03289fd0c98ba53848533a3e39a4602052604060002090565b73ffffffffffffffffffffffffffffffffffffffff6112336103146103fe856000527f33ea8f700f9ca485fc65a69b25e04c222b4a03289fd0c98ba53848533a3e39a4602052604060002090565b91160361059a5761130e7fe523b938ed6306ade2fd18c2cde515e4921fb8868319befda9abaaf7662954409261129760046102f9856000527f33ea8f700f9ca485fc65a69b25e04c222b4a03289fd0c98ba53848533a3e39a4602052604060002090565b906112d060016102f9866000527f33ea8f700f9ca485fc65a69b25e04c222b4a03289fd0c98ba53848533a3e39a4602052604060002090565b906003611306866000527f33ea8f700f9ca485fc65a69b25e04c222b4a03289fd0c98ba53848533a3e39a4602052604060002090565b0154926131bf565b3861118b565b61134f61031460016102f9856000527f33ea8f700f9ca485fc65a69b25e04c222b4a03289fd0c98ba53848533a3e39a4602052604060002090565b73ffffffffffffffffffffffffffffffffffffffff821603610424576114126113a660046102f9856000527f33ea8f700f9ca485fc65a69b25e04c222b4a03289fd0c98ba53848533a3e39a4602052604060002090565b6113dc6103fe856000527f33ea8f700f9ca485fc65a69b25e04c222b4a03289fd0c98ba53848533a3e39a4602052604060002090565b856002611306876000527f33ea8f700f9ca485fc65a69b25e04c222b4a03289fd0c98ba53848533a3e39a4602052604060002090565b611142565b3461069b577ffffffffffffffffffffffffffffffffffffffffffffffffffffffffffffffffc36016101a0811261069b576101601361069b576101643567ffffffffffffffff811161069b576114719036906004016106a0565b6101843567ffffffffffffffff811161069b576114929036906004016106a0565b9161012435428110610671576020916114c06040516114b18582611aaf565b600081526100b036848a611b65565b6106475761162892611622926114d4611be6565b906115488361151c6114e4611c09565b93604435906064356114f4611c2c565b60c43560a435611502612086565b92610104359461014435976040519c8d9b8c019e8f6120af565b037fffffffffffffffffffffffffffffffffffffffffffffffffffffffffffffffe08101835282611aaf565b5190206116196115d560a06040517f8b73c3c69bb8fe3d512ecc4cf759cc79239f7b179b0ffacaa9a75d522b39400f81527f03c29967dc1ec387c86cb32e2d942a047a54b4d2a64b4fea68f9345b7f8089da60208201527ff9446b8e937d86f0bc87cac73923491692b123ca5f8761908494703758206adf60408201524660608201523060808201522090565b9261151c6040519384928301958690916042927f19010000000000000000000000000000000000000000000000000000000000008352600283015260228201520190565b51902095611b9c565b84612c72565b73ffffffffffffffffffffffffffffffffffffffff80611646611be6565b92169116036116c05761166561165a611b50565b6100b0368585611b65565b1561167a57505061167890600090612414565b005b61168d9161168791611b9c565b82612c72565b73ffffffffffffffffffffffffffffffffffffffff806116ab611c09565b92169116036116c05761167890600190612414565b7f815e1d640000000000000000000000000000000000000000000000000000000060005260046000fd5b3461069b576116f8366106ce565b60408301354211610671576117146040516100a1602082611aaf565b6106475761172460208401611bd9565b600581101561064257600103610618576100ed611744926100e585611c93565b903590600a61177c836000527f33ea8f700f9ca485fc65a69b25e04c222b4a03289fd0c98ba53848533a3e39a4602052604060002090565b0154156105ee576117bb600761016a846000527f33ea8f700f9ca485fc65a69b25e04c222b4a03289fd0c98ba53848533a3e39a4602052604060002090565b6117c481611dd3565b156119b9575b6001611804600761016a856000527f33ea8f700f9ca485fc65a69b25e04c222b4a03289fd0c98ba53848533a3e39a4602052604060002090565b61180d81611dd3565b1461189a575b7f3b3495bf7f9665729a9928a7d82900e2f4783a47a1f518d224308c26b3f9264782610251600761186d836000527f33ea8f700f9ca485fc65a69b25e04c222b4a03289fd0c98ba53848533a3e39a4602052604060002090565b016102007fffffffffffffffffffffffffffffffffffffffffffffffffffffffffffff00ff825416179055565b6118d26007610289846000527f33ea8f700f9ca485fc65a69b25e04c222b4a03289fd0c98ba53848533a3e39a4602052604060002090565b6118db81611ddd565b15158061196e575b6119445773ffffffffffffffffffffffffffffffffffffffff61193761031460016102f9866000527f33ea8f700f9ca485fc65a69b25e04c222b4a03289fd0c98ba53848533a3e39a4602052604060002090565b9116036104245738611813565b7f317dd5870000000000000000000000000000000000000000000000000000000060005260046000fd5b5060016119a96007610289856000527f33ea8f700f9ca485fc65a69b25e04c222b4a03289fd0c98ba53848533a3e39a4602052604060002090565b6119b281611ddd565b14156118e3565b60016119f36007610289856000527f33ea8f700f9ca485fc65a69b25e04c222b4a03289fd0c98ba53848533a3e39a4602052604060002090565b6119fc81611ddd565b036105c457611a3a6103146103fe846000527f33ea8f700f9ca485fc65a69b25e04c222b4a03289fd0c98ba53848533a3e39a4602052604060002090565b73ffffffffffffffffffffffffffffffffffffffff8216146117ca577f0614e1550000000000000000000000000000000000000000000000000000000060005260046000fd5b7f4e487b7100000000000000000000000000000000000000000000000000000000600052604160045260246000fd5b90601f7fffffffffffffffffffffffffffffffffffffffffffffffffffffffffffffffe0910116810190811067ffffffffffffffff821117611af057604052565b611a80565b60405190611b04608083611aaf565b565b60405190611b0461018083611aaf565b67ffffffffffffffff8111611af057601f017fffffffffffffffffffffffffffffffffffffffffffffffffffffffffffffffe01660200190565b60405190611b5f602083611aaf565b60008252565b929192611b7182611b16565b91611b7f6040519384611aaf565b82948184528183011161069b578281602093846000960137010152565b611ba7913691611b65565b90565b7f4e487b7100000000000000000000000000000000000000000000000000000000600052602160045260246000fd5b35600581101561069b5790565b60043573ffffffffffffffffffffffffffffffffffffffff8116810361069b5790565b60243573ffffffffffffffffffffffffffffffffffffffff8116810361069b5790565b60843573ffffffffffffffffffffffffffffffffffffffff8116810361069b5790565b3573ffffffffffffffffffffffffffffffffffffffff8116810361069b5790565b805190825191828103611c8a576020809201209201201490565b50505050600090565b8035906040611ca460208301611bd9565b9101356040519160208301937fd1964fa00810eddb58ddb5bfe19402b94983ad64661bfcc8d5c7e9da59b0e11c855260408401526005811015610642576060830152608082015260808152611cfa60a082611aaf565b51902061151c611dcd611d8a60a06040517f8b73c3c69bb8fe3d512ecc4cf759cc79239f7b179b0ffacaa9a75d522b39400f81527f03c29967dc1ec387c86cb32e2d942a047a54b4d2a64b4fea68f9345b7f8089da60208201527ff9446b8e937d86f0bc87cac73923491692b123ca5f8761908494703758206adf60408201524660608201523060808201522090565b9260405192839160208301958690916042927f19010000000000000000000000000000000000000000000000000000000000008352600283015260228201520190565b51902090565b6002111561064257565b6006111561064257565b906006811015610642577fffffffffffffffffffffffffffffffffffffffffffffffffffffffffffff00ff61ff0083549260081b169116179055565b9060068210156106425752565b908152604081019291611b049160200190611e23565b90805182556001820190611eaf73ffffffffffffffffffffffffffffffffffffffff602083015116839073ffffffffffffffffffffffffffffffffffffffff167fffffffffffffffffffffffff0000000000000000000000000000000000000000825416179055565b6040810151906003821015610642576002926060927fffffffffffffffffffffff00ffffffffffffffffffffffffffffffffffffffff74ff000000000000000000000000000000000000000083549260a01b1691161790550151910155565b90815273ffffffffffffffffffffffffffffffffffffffff909116602082015260a0810194939291600381101561064257608092611f559160408401526060830190611e23565b0152565b7f4e487b7100000000000000000000000000000000000000000000000000000000600052601160045260246000fd5b907fffffffffffffffffffffffffffffffffffffffffffffffffffffffffffffffff8201918211611fb557565b611f59565b91908203918211611fb557565b9060405160e0810181811067ffffffffffffffff821117611af05760405260c060068294611ffb60ff825416859015159052565b6001810154602085015260028101546040850152612050612033600383015473ffffffffffffffffffffffffffffffffffffffff1690565b73ffffffffffffffffffffffffffffffffffffffff166060860152565b60048101546080850152600581015460a08501520154910152565b9060018201809211611fb557565b91908201809211611fb557565b60e435600281101561069b5790565b35600281101561069b5790565b9060028210156106425752565b98969492909b9a99979593916101808a019c7fbe72a4ba8a4616daa23d6306346d5930701dd2c68f00b529aa356cf7b5dc05b68b5273ffffffffffffffffffffffffffffffffffffffff1660208b015273ffffffffffffffffffffffffffffffffffffffff1660408a01526060890152608088015273ffffffffffffffffffffffffffffffffffffffff1660a087015260c086015260e08501526101008401612157916120a2565b6101208301526101408201526101600152565b60028210156106425752565b60068210156106425752565b9060028110156106425760ff7fffffffffffffffffffffffffffffffffffffffffffffffffffffffffffffff008354169116179055565b90610160600a916122226121e1825173ffffffffffffffffffffffffffffffffffffffff1690565b859073ffffffffffffffffffffffffffffffffffffffff167fffffffffffffffffffffffff0000000000000000000000000000000000000000825416179055565b61228a612246602083015173ffffffffffffffffffffffffffffffffffffffff1690565b600186019073ffffffffffffffffffffffffffffffffffffffff167fffffffffffffffffffffffff0000000000000000000000000000000000000000825416179055565b60408101516002850155606081015160038501556123066122c2608083015173ffffffffffffffffffffffffffffffffffffffff1690565b600486019073ffffffffffffffffffffffffffffffffffffffff167fffffffffffffffffffffffff0000000000000000000000000000000000000000825416179055565b60a0810151600585015560c0810151600685015561234d6007850161233860e084015161233281611dd3565b82612182565b6101008301519061234882611ddd565b611de7565b610120810151600885015561014081015160098501550151910155565b9a98969492909d9c9b99979593916101a08c019e8c5273ffffffffffffffffffffffffffffffffffffffff1660208c015273ffffffffffffffffffffffffffffffffffffffff1660408b015260608a0152608089015273ffffffffffffffffffffffffffffffffffffffff1660a088015260c087015260e086015261010085016123f3916120a2565b610120840152610140830161240791611e23565b6101608201526101800152565b6124216103146004611c4f565b15612c48576124336103146024611c4f565b15612c48576124456103146084611c4f565b15612c48576101043560018110612c1e5760443560018110612bf4576064359360018510612bf457610124354211612bca5761248081611ddd565b6001811491821580612bb8575b612b8e57600a6124c6866000527f33ea8f700f9ca485fc65a69b25e04c222b4a03289fd0c98ba53848533a3e39a4602052604060002090565b0154612b645760a43590612514612510612509846000527f33ea8f700f9ca485fc65a69b25e04c222b4a03289fd0c98ba53848533a3e39a1602052604060002090565b5460ff1690565b1590565b612b3a5760c43590612555612510612509846000527f33ea8f700f9ca485fc65a69b25e04c222b4a03289fd0c98ba53848533a3e39a0602052604060002090565b612b105761256c612510612509610fe46084611c4f565b612ae65761014435977f33ea8f700f9ca485fc65a69b25e04c222b4a03289fd0c98ba53848533a3e39a65489108015612abc575b612a925760036125b3610f946024611c4f565b019384547f33ea8f700f9ca485fc65a69b25e04c222b4a03289fd0c98ba53848533a3e39a5541115612a68577f40746c61461ad3025caece8817f27fd91abfd3f6390b7b20bbe41dde689217de9961271d946126c3926126b06126166004611c4f565b966126216024611c4f565b9661262c6084611c4f565b9161268961264461263d60e4612095565b9842612079565b9961266c612650611b06565b73ffffffffffffffffffffffffffffffffffffffff909d168d52565b73ffffffffffffffffffffffffffffffffffffffff1660208c0152565b60408a0152606089015273ffffffffffffffffffffffffffffffffffffffff166080880152565b60a086015260c085015260e0840161216a565b6126d1856101008401612176565b8661012083015261014082015242610160820152612718876000527f33ea8f700f9ca485fc65a69b25e04c222b4a03289fd0c98ba53848533a3e39a4602052604060002090565b6121b9565b612727815461206b565b905561273360e4612095565b61273c81611dd3565b15612a36575b5050600161275060e4612095565b61275981611dd3565b14612a11575b506127966103fe826000527f33ea8f700f9ca485fc65a69b25e04c222b4a03289fd0c98ba53848533a3e39a4602052604060002090565b90612a0c6127d260016102f9846000527f33ea8f700f9ca485fc65a69b25e04c222b4a03289fd0c98ba53848533a3e39a4602052604060002090565b6002612807846000527f33ea8f700f9ca485fc65a69b25e04c222b4a03289fd0c98ba53848533a3e39a4602052604060002090565b0154600361283e856000527f33ea8f700f9ca485fc65a69b25e04c222b4a03289fd0c98ba53848533a3e39a4602052604060002090565b015461287860046102f9876000527f33ea8f700f9ca485fc65a69b25e04c222b4a03289fd0c98ba53848533a3e39a4602052604060002090565b60056128ad876000527f33ea8f700f9ca485fc65a69b25e04c222b4a03289fd0c98ba53848533a3e39a4602052604060002090565b015460066128e4886000527f33ea8f700f9ca485fc65a69b25e04c222b4a03289fd0c98ba53848533a3e39a4602052604060002090565b015461291e600761016a8a6000527f33ea8f700f9ca485fc65a69b25e04c222b4a03289fd0c98ba53848533a3e39a4602052604060002090565b9160086129548a6000527f33ea8f700f9ca485fc65a69b25e04c222b4a03289fd0c98ba53848533a3e39a4602052604060002090565b01549361298f60076102898c6000527f33ea8f700f9ca485fc65a69b25e04c222b4a03289fd0c98ba53848533a3e39a4602052604060002090565b9560096129c58c6000527f33ea8f700f9ca485fc65a69b25e04c222b4a03289fd0c98ba53848533a3e39a4602052604060002090565b015497600a6129fd8d6000527f33ea8f700f9ca485fc65a69b25e04c222b4a03289fd0c98ba53848533a3e39a4602052604060002090565b0154996040519d8e9d8e61236a565b0390a1565b612a3090612a1f6084611c4f565b90612a2a6004611c4f565b91612f3d565b3861275f565b612a3f90611ddd565b612a4b575b3880612742565b612a63612a586084611c4f565b82612a2a6024611c4f565b612a44565b7f69b974f20000000000000000000000000000000000000000000000000000000060005260046000fd5b7f761664010000000000000000000000000000000000000000000000000000000060005260046000fd5b507f33ea8f700f9ca485fc65a69b25e04c222b4a03289fd0c98ba53848533a3e39a75489116125a0565b7f7be55e6c0000000000000000000000000000000000000000000000000000000060005260046000fd5b7fde3051d60000000000000000000000000000000000000000000000000000000060005260046000fd5b7f2263f4e20000000000000000000000000000000000000000000000000000000060005260046000fd5b7fe59146300000000000000000000000000000000000000000000000000000000060005260046000fd5b7fdac5c1f60000000000000000000000000000000000000000000000000000000060005260046000fd5b50612bc282611ddd565b81151561248d565b7fc56873ba0000000000000000000000000000000000000000000000000000000060005260046000fd5b7f7a47c9a20000000000000000000000000000000000000000000000000000000060005260046000fd5b7f524f409b0000000000000000000000000000000000000000000000000000000060005260046000fd5b7fd92e233d0000000000000000000000000000000000000000000000000000000060005260046000fd5b906041815103612db3576020810151916060604083015192015160001a907f7fffffffffffffffffffffffffffffff5d576e7357a4501ddfe92f46681b20a08311612d8957601b82141580612d7e575b612d5457612cf5600093602095604051948594859094939260ff6060936080840197845216602083015260408201520152565b838052039060015afa15612d4f5760005173ffffffffffffffffffffffffffffffffffffffff811615612d255790565b7f8fe7664e0000000000000000000000000000000000000000000000000000000060005260046000fd5b612dec565b7facd54a900000000000000000000000000000000000000000000000000000000060005260046000fd5b50601c821415612cc2565b7fe4a61add0000000000000000000000000000000000000000000000000000000060005260046000fd5b7f4fc237b80000000000000000000000000000000000000000000000000000000060005260046000fd5b9081602091031261069b575190565b6040513d6000823e3d90fd5b6040517f70a08231000000000000000000000000000000000000000000000000000000008152306004820152919273ffffffffffffffffffffffffffffffffffffffff9190911691602081602481865afa908115612d4f578490600092612f1a575b50612e66919284613337565b6040517f70a0823100000000000000000000000000000000000000000000000000000000815230600482015291602090839060249082905afa908115612d4f57612eb892600092612ee9575b50611fba565b03612ebf57565b7fc7e8fc500000000000000000000000000000000000000000000000000000000060005260046000fd5b612f0c91925060203d602011612f13575b612f048183611aaf565b810190612ddd565b9038612eb2565b503d612efa565b612e669250612f379060203d602011612f1357612f048183611aaf565b91612e5a565b6040517f70a08231000000000000000000000000000000000000000000000000000000008152306004820152919273ffffffffffffffffffffffffffffffffffffffff9190911691602081602481865afa908115612d4f57849060009261301c575b50612fad9192309085613399565b6040517f70a0823100000000000000000000000000000000000000000000000000000000815230600482015291602090839060249082905afa8015612d4f57612eb892600091612ffd5750611fba565b613016915060203d602011612f1357612f048183611aaf565b38612eb2565b612fad92506130399060203d602011612f1357612f048183611aaf565b91612f9f565b73ffffffffffffffffffffffffffffffffffffffff61309d8273ffffffffffffffffffffffffffffffffffffffff166000527f33ea8f700f9ca485fc65a69b25e04c222b4a03289fd0c98ba53848533a3e39a3602052604060002090565b5460081c166130ef57611ba79073ffffffffffffffffffffffffffffffffffffffff166000527f33ea8f700f9ca485fc65a69b25e04c222b4a03289fd0c98ba53848533a3e39a3602052604060002090565b73ffffffffffffffffffffffffffffffffffffffff613150611ba79273ffffffffffffffffffffffffffffffffffffffff166000527f33ea8f700f9ca485fc65a69b25e04c222b4a03289fd0c98ba53848533a3e39a3602052604060002090565b5460081c1673ffffffffffffffffffffffffffffffffffffffff166000527f33ea8f700f9ca485fc65a69b25e04c222b4a03289fd0c98ba53848533a3e39a3602052604060002090565b60800151808202828104821483151715611fb5576127101161069b57611ba7916134bb565b4684036131d057611b049350612df8565b60009391926132c4859461151c61325c73ffffffffffffffffffffffffffffffffffffffff60036132408873ffffffffffffffffffffffffffffffffffffffff166000527f33ea8f700f9ca485fc65a69b25e04c222b4a03289fd0c98ba53848533a3e39a2602052604060002090565b01541673ffffffffffffffffffffffffffffffffffffffff1690565b9560405194859360208501977f7c1779dc000000000000000000000000000000000000000000000000000000008952602486019094939273ffffffffffffffffffffffffffffffffffffffff9060609382608085019816845260208401521660408201520152565b51915af46132d0613400565b50156132d857565b6040517f9becf85d00000000000000000000000000000000000000000000000000000000815260206004820152601760248201527f4c69625472616e736665722e5f62726964676553656e640000000000000000006044820152606490fd5b611b049273ffffffffffffffffffffffffffffffffffffffff604051937fa9059cbb000000000000000000000000000000000000000000000000000000006020860152166024840152604483015260448252613394606483611aaf565b613430565b90919273ffffffffffffffffffffffffffffffffffffffff611b049481604051957f23b872dd000000000000000000000000000000000000000000000000000000006020880152166024860152166044840152606483015260648252613394608483611aaf565b3d1561342b573d9061341182611b16565b9161341f6040519384611aaf565b82523d6000602084013e565b606090565b906000602091828151910182855af115612dec576000513d6134b2575073ffffffffffffffffffffffffffffffffffffffff81163b155b61346e5750565b73ffffffffffffffffffffffffffffffffffffffff907f5274afe7000000000000000000000000000000000000000000000000000000006000521660045260246000fd5b60011415613467565b818102907fffffffffffffffffffffffffffffffffffffffffffffffffffffffffffffffff8382099082808310920391808303921461353f57816127101115613538577fbc01a36e2eb1c432ca57a786c226809d495182a9930be0ded288ce703afb7e9193612710910990828211900360fc1b910360041c170290565b601161354a565b506127109250500490565b634e487b716000526020526024601cfdfea264697066735822122063c5d26d38587315ca5bc10b5a4ed1ac282e5d9450e7c305133f08af3e1b06fa64736f6c634300081c0033",
  "linkReferences": {},
  "deployedLinkReferences": {}
}