{
  "_format": "hh-sol-artifact-1",
  "contractName": "KYC",
  "sourceName": "contracts/modules/KYC.sol",
  "abi": [
    {
      "inputs": [
        {
          "internalType": "address",
          "name": "_address",
          "type": "address"
        }
      ],
      "name": "BlacklistedAddress",
      "type": "error"
    },
    {
      "inputs": [],
      "name": "InvalidDowngrade",
      "type": "error"
    },
    {
      "inputs": [
        {
          "internalType": "enum IKYC.KYCLevel",
          "name": "_level",
          "type": "uint8"
        }
      ],
      "name": "InvalidKYCLevel",
      "type": "error"
    },
    {
      "inputs": [],
      "name": "InvalidUpgrade",
      "type": "error"
    },
    {
      "inputs": [],
      "name": "UintUtils__InsufficientPadding",
      "type": "error"
    },
    {
      "anonymous": false,
      "inputs": [
        {
          "indexed": false,
          "internalType": "address",
          "name": "_address",
          "type": "address"
        },
        {
          "indexed": false,
          "internalType": "address",
          "name": "_agent",
          "type": "address"
        },
        {
          "indexed": false,
          "internalType": "enum IKYC.KYCLevel",
          "name": "_level",
          "type": "uint8"
        }
      ],
      "name": "KYCLevelDowngraded",
      "type": "event"
    },
    {
      "anonymous": false,
      "inputs": [
        {
          "indexed": false,
          "internalType": "address",
          "name": "_address",
          "type": "address"
        },
        {
          "indexed": false,
          "internalType": "address",
          "name": "_agent",
          "type": "address"
        },
        {
          "indexed": false,
          "internalType": "enum IKYC.KYCLevel",
          "name": "_level",
          "type": "uint8"
        }
      ],
      "name": "KYCLevelUpgraded",
      "type": "event"
    },
    {
      "anonymous": false,
      "inputs": [
        {
          "indexed": true,
          "internalType": "bytes32",
          "name": "role",
          "type": "bytes32"
        },
        {
          "indexed": true,
          "internalType": "bytes32",
          "name": "previousAdminRole",
          "type": "bytes32"
        },
        {
          "indexed": true,
          "internalType": "bytes32",
          "name": "newAdminRole",
          "type": "bytes32"
        }
      ],
      "name": "RoleAdminChanged",
      "type": "event"
    },
    {
      "anonymous": false,
      "inputs": [
        {
          "indexed": true,
          "internalType": "bytes32",
          "name": "role",
          "type": "bytes32"
        },
        {
          "indexed": true,
          "internalType": "address",
          "name": "account",
          "type": "address"
        },
        {
          "indexed": true,
          "internalType": "address",
          "name": "sender",
          "type": "address"
        }
      ],
      "name": "RoleGranted",
      "type": "event"
    },
    {
      "anonymous": false,
      "inputs": [
        {
          "indexed": true,
          "internalType": "bytes32",
          "name": "role",
          "type": "bytes32"
        },
        {
          "indexed": true,
          "internalType": "address",
          "name": "account",
          "type": "address"
        },
        {
          "indexed": true,
          "internalType": "address",
          "name": "sender",
          "type": "address"
        }
      ],
      "name": "RoleRevoked",
      "type": "event"
    },
    {
      "inputs": [
        {
          "internalType": "address",
          "name": "_address",
          "type": "address"
        },
        {
          "internalType": "enum IKYC.KYCLevel",
          "name": "_level",
          "type": "uint8"
        }
      ],
      "name": "downgradeKYCLevel",
      "outputs": [],
      "stateMutability": "nonpayable",
      "type": "function"
    },
    {
      "inputs": [
        {
          "internalType": "address",
          "name": "_address",
          "type": "address"
        },
        {
          "internalType": "enum IKYC.KYCLevel",
          "name": "_level",
          "type": "uint8"
        }
      ],
      "name": "upgradeKYCLevel",
      "outputs": [],
      "stateMutability": "nonpayable",
      "type": "function"
    }
  ],
  "bytecode": "0x60808060405234601557610859908161001b8239f35b600080fdfe6080604052600436101561001257600080fd5b60003560e01c80635eb0b780146101965763bfaf549f1461003257600080fd5b3461019157610040366102ab565b610048610305565b60ff6100938373ffffffffffffffffffffffffffffffffffffffff166000527f4af1d504512f854c7078c56ac9c12020bc257f235588a56d7260372203621f7d602052604060002090565b541660058110156101625760058210156101625781101561013857816101228261011d7f679508bf89c0073dd90331fea791815c63167976b266d3479ca19b26040fc2599573ffffffffffffffffffffffffffffffffffffffff166000527f4af1d504512f854c7078c56ac9c12020bc257f235588a56d7260372203621f7d602052604060002090565b6106a8565b6101336040519283923390846106df565b0390a1005b7fb0b621f50000000000000000000000000000000000000000000000000000000060005260046000fd5b7f4e487b7100000000000000000000000000000000000000000000000000000000600052602160045260246000fd5b600080fd5b34610191576101a4366102ab565b6101ac610305565b60ff6101f78373ffffffffffffffffffffffffffffffffffffffff166000527f4af1d504512f854c7078c56ac9c12020bc257f235588a56d7260372203621f7d602052604060002090565b541660058110156101625760058210156101625781111561028157816101228261011d7f905d33a25bc703bfcdab18dad80f2cbe75b4cffae4fda09342403fca4faa6fb49573ffffffffffffffffffffffffffffffffffffffff166000527f4af1d504512f854c7078c56ac9c12020bc257f235588a56d7260372203621f7d602052604060002090565b7f4be85dc00000000000000000000000000000000000000000000000000000000060005260046000fd5b7ffffffffffffffffffffffffffffffffffffffffffffffffffffffffffffffffc60409101126101915760043573ffffffffffffffffffffffffffffffffffffffff81168103610191579060243560058110156101915790565b3360009081527fe2d43158a731c6a82d252c01770b7dedc6e54f37eb945e44de168334112881d960205260409020541561033b57565b33602a6000610349826107a9565b926103576040519485610739565b828452610363836107a9565b927fffffffffffffffffffffffffffffffffffffffffffffffffffffffffffffffe0602086019401368537845115610614576030845384516001101561061457607860218601535b600281116106415750610558575060427fbeff95366d83ad44efaa4e854e9fd68aec2d11a48b468b6caf0ee12dc238591460006103e7836107a9565b916103f56040519384610739565b838352610401846107a9565b937fffffffffffffffffffffffffffffffffffffffffffffffffffffffffffffffe0602085019501368637835115610614576030855383516001101561061457607860218501535b6002811161058057506105585761054f60446104fe7fffffffffffffffffffffffffffffffffffffffffffffffffffffffffffffffe0601f8961050d60118b60378c8c604051998a946104c960208701997f416363657373436f6e74726f6c3a206163636f756e74200000000000000000008b5251809287890190610716565b8501917f206973206d697373696e6720726f6c6520000000000000000000000000000000858401525180936048840190610716565b01010301848101865285610739565b6040519586947f08c379a00000000000000000000000000000000000000000000000000000000086526020600487015251809281602488015287870190610716565b01168101030190fd5b807fab409fe20000000000000000000000000000000000000000000000000000000060049252fd5b7fffffffffffffffffffffffffffffffffffffffffffffffffffffffffffffffff0190600f811660108110156105e7577f3031323334353637383961626364656600000000000000000000000000000000901a6105dd83866107e3565b5360041c90610449565b6024847f4e487b710000000000000000000000000000000000000000000000000000000081526032600452fd5b6024837f4e487b710000000000000000000000000000000000000000000000000000000081526032600452fd5b7fffffffffffffffffffffffffffffffffffffffffffffffffffffffffffffffff0190600f811660108110156105e7577f3031323334353637383961626364656600000000000000000000000000000000901a61069e83876107e3565b5360041c906103ab565b9060058110156101625760ff7fffffffffffffffffffffffffffffffffffffffffffffffffffffffffffffff008354169116179055565b73ffffffffffffffffffffffffffffffffffffffff9182168152911660208201526060810192919060058210156101625760400152565b60005b8381106107295750506000910152565b8181015183820152602001610719565b90601f7fffffffffffffffffffffffffffffffffffffffffffffffffffffffffffffffe0910116810190811067ffffffffffffffff82111761077a57604052565b7f4e487b7100000000000000000000000000000000000000000000000000000000600052604160045260246000fd5b67ffffffffffffffff811161077a57601f017fffffffffffffffffffffffffffffffffffffffffffffffffffffffffffffffe01660200190565b9081518110156107f4570160200190565b7f4e487b7100000000000000000000000000000000000000000000000000000000600052603260045260246000fdfea2646970667358221220daa91df3525755b163108e87a38398bf7471642e77420c5e27201decd00fe4d564736f6c634300081c0033",
  "linkReferences": {},
  "deployedLinkReferences": {}
}