{
  "_format": "hh-sol-artifact-1",
  "contractName": "Order",
  "sourceName": "contracts/modules/Order.sol",
  "abi": [
    {
      "inputs": [
        {
          "internalType": "string",
          "name": "_functionName",
          "type": "string"
        }
      ],
      "name": "DelegateCallFailed",
      "type": "error"
    },
    {
      "inputs": [],
      "name": "InvalidChainId",
      "type": "error"
    },
    {
      "inputs": [],
      "name": "InvalidDuration",
      "type": "error"
    },
    {
      "inputs": [],
      "name": "InvalidExpiry",
      "type": "error"
    },
    {
      "inputs": [],
      "name": "InvalidOrderCreateState",
      "type": "error"
    },
    {
      "inputs": [],
      "name": "InvalidQuantity",
      "type": "error"
    },
    {
      "inputs": [],
      "name": "InvalidSigner",
      "type": "error"
    },
    {
      "inputs": [],
      "name": "InvalidTradeToken",
      "type": "error"
    },
    {
      "inputs": [],
      "name": "MerchantConcurrencyReached",
      "type": "error"
    },
    {
      "inputs": [],
      "name": "MustBeMerchant",
      "type": "error"
    },
    {
      "inputs": [],
      "name": "MustBeMerchantOrTrader",
      "type": "error"
    },
    {
      "inputs": [],
      "name": "MustBeTrader",
      "type": "error"
    },
    {
      "inputs": [],
      "name": "NotYetDeadline",
      "type": "error"
    },
    {
      "inputs": [],
      "name": "OrderAcceptedRequired",
      "type": "error"
    },
    {
      "inputs": [],
      "name": "OrderDoesNotExists",
      "type": "error"
    },
    {
      "inputs": [],
      "name": "OrderExists",
      "type": "error"
    },
    {
      "inputs": [],
      "name": "OrderExpired",
      "type": "error"
    },
    {
      "inputs": [],
      "name": "OrderPaidRequired",
      "type": "error"
    },
    {
      "inputs": [],
      "name": "OrderPendingOrAcceptedRequired",
      "type": "error"
    },
    {
      "inputs": [],
      "name": "OrderPendingRequired",
      "type": "error"
    },
    {
      "inputs": [],
      "name": "ProtocolInvariantCheckFailed",
      "type": "error"
    },
    {
      "inputs": [
        {
          "internalType": "address",
          "name": "token",
          "type": "address"
        }
      ],
      "name": "SafeERC20FailedOperation",
      "type": "error"
    },
    {
      "inputs": [],
      "name": "UnsupportedCurrency",
      "type": "error"
    },
    {
      "inputs": [],
      "name": "UnsupportedPaymentMethod",
      "type": "error"
    },
    {
      "inputs": [],
      "name": "ZeroAddress",
      "type": "error"
    },
    {
      "anonymous": false,
      "inputs": [
        {
          "indexed": false,
          "internalType": "bytes32",
          "name": "orderHash",
          "type": "bytes32"
        },
        {
          "indexed": false,
          "internalType": "address",
          "name": "trader",
          "type": "address"
        },
        {
          "indexed": false,
          "internalType": "address",
          "name": "merchant",
          "type": "address"
        },
        {
          "indexed": false,
          "internalType": "uint256",
          "name": "traderChain",
          "type": "uint256"
        },
        {
          "indexed": false,
          "internalType": "uint256",
          "name": "merchantChain",
          "type": "uint256"
        },
        {
          "indexed": false,
          "internalType": "address",
          "name": "token",
          "type": "address"
        },
        {
          "indexed": false,
          "internalType": "bytes32",
          "name": "currency",
          "type": "bytes32"
        },
        {
          "indexed": false,
          "internalType": "bytes32",
          "name": "paymentMethod",
          "type": "bytes32"
        },
        {
          "indexed": false,
          "internalType": "enum OrderType",
          "name": "orderType",
          "type": "uint8"
        },
        {
          "indexed": false,
          "internalType": "uint256",
          "name": "quantity",
          "type": "uint256"
        },
        {
          "indexed": false,
          "internalType": "enum OrderState",
          "name": "orderState",
          "type": "uint8"
        },
        {
          "indexed": false,
          "internalType": "uint256",
          "name": "deadline",
          "type": "uint256"
        },
        {
          "indexed": false,
          "internalType": "uint256",
          "name": "createdAt",
          "type": "uint256"
        }
      ],
      "name": "NewOrder",
      "type": "event"
    },
    {
      "anonymous": false,
      "inputs": [
        {
          "indexed": false,
          "internalType": "bytes32",
          "name": "orderHash",
          "type": "bytes32"
        },
        {
          "indexed": false,
          "internalType": "enum OrderState",
          "name": "status",
          "type": "uint8"
        }
      ],
      "name": "OrderAccepted",
      "type": "event"
    },
    {
      "anonymous": false,
      "inputs": [
        {
          "indexed": false,
          "internalType": "bytes32",
          "name": "orderHash",
          "type": "bytes32"
        },
        {
          "indexed": false,
          "internalType": "enum OrderState",
          "name": "status",
          "type": "uint8"
        }
      ],
      "name": "OrderCancelled",
      "type": "event"
    },
    {
      "anonymous": false,
      "inputs": [
        {
          "indexed": false,
          "internalType": "bytes32",
          "name": "orderHash",
          "type": "bytes32"
        },
        {
          "indexed": false,
          "internalType": "enum OrderState",
          "name": "status",
          "type": "uint8"
        }
      ],
      "name": "OrderPaid",
      "type": "event"
    },
    {
      "anonymous": false,
      "inputs": [
        {
          "indexed": false,
          "internalType": "bytes32",
          "name": "orderHash",
          "type": "bytes32"
        },
        {
          "indexed": false,
          "internalType": "enum OrderState",
          "name": "status",
          "type": "uint8"
        }
      ],
      "name": "OrderReleased",
      "type": "event"
    },
    {
      "inputs": [
        {
          "internalType": "bytes32",
          "name": "_orderHash",
          "type": "bytes32"
        }
      ],
      "name": "acceptOrder",
      "outputs": [],
      "stateMutability": "nonpayable",
      "type": "function"
    },
    {
      "inputs": [
        {
          "internalType": "bytes32",
          "name": "_orderHash",
          "type": "bytes32"
        }
      ],
      "name": "cancelOrder",
      "outputs": [],
      "stateMutability": "nonpayable",
      "type": "function"
    },
    {
      "inputs": [
        {
          "components": [
            {
              "internalType": "address",
              "name": "trader",
              "type": "address"
            },
            {
              "internalType": "address",
              "name": "merchant",
              "type": "address"
            },
            {
              "internalType": "uint256",
              "name": "traderChain",
              "type": "uint256"
            },
            {
              "internalType": "uint256",
              "name": "merchantChain",
              "type": "uint256"
            },
            {
              "internalType": "address",
              "name": "token",
              "type": "address"
            },
            {
              "internalType": "bytes32",
              "name": "currency",
              "type": "bytes32"
            },
            {
              "internalType": "bytes32",
              "name": "paymentMethod",
              "type": "bytes32"
            },
            {
              "internalType": "enum OrderType",
              "name": "orderType",
              "type": "uint8"
            },
            {
              "internalType": "uint256",
              "name": "quantity",
              "type": "uint256"
            },
            {
              "internalType": "uint256",
              "name": "expiry",
              "type": "uint256"
            },
            {
              "internalType": "uint256",
              "name": "duration",
              "type": "uint256"
            }
          ],
          "internalType": "struct IOrder.CreateOrder",
          "name": "_order",
          "type": "tuple"
        }
      ],
      "name": "createOrder",
      "outputs": [],
      "stateMutability": "nonpayable",
      "type": "function"
    },
    {
      "inputs": [
        {
          "internalType": "bytes32",
          "name": "_orderHash",
          "type": "bytes32"
        }
      ],
      "name": "payOrder",
      "outputs": [],
      "stateMutability": "nonpayable",
      "type": "function"
    },
    {
      "inputs": [
        {
          "internalType": "bytes32",
          "name": "_orderHash",
          "type": "bytes32"
        }
      ],
      "name": "releaseOrder",
      "outputs": [],
      "stateMutability": "nonpayable",
      "type": "function"
    }
  ],
  "bytecode": "0x6080806040523460155761296a908161001b8239f35b600080fdfe6080604052600436101561001257600080fd5b60003560e01c80633bfc17b31461006757806358504a36146100625780637489ec231461005d578063dfc86408146100585763e7da0eaf1461005357600080fd5b611112565b610e94565b610ae5565b610744565b3461070f5761007536610714565b600a6100aa826000527f33ea8f700f9ca485fc65a69b25e04c222b4a03289fd0c98ba53848533a3e39a4602052604060002090565b0154156106e55760026100f660076100eb846000527f33ea8f700f9ca485fc65a69b25e04c222b4a03289fd0c98ba53848533a3e39a4602052604060002090565b015460081c60ff1690565b6100ff816113ac565b036106bb57610169600761013c836000527f33ea8f700f9ca485fc65a69b25e04c222b4a03289fd0c98ba53848533a3e39a4602052604060002090565b016104007fffffffffffffffffffffffffffffffffffffffffffffffffffffffffffff00ff825416179055565b60036101c66101c160016101a6856000527f33ea8f700f9ca485fc65a69b25e04c222b4a03289fd0c98ba53848533a3e39a4602052604060002090565b015473ffffffffffffffffffffffffffffffffffffffff1690565b612180565b016101d18154611426565b905561029b61025661021160046101a6856000527f33ea8f700f9ca485fc65a69b25e04c222b4a03289fd0c98ba53848533a3e39a4602052604060002090565b73ffffffffffffffffffffffffffffffffffffffff166000527f33ea8f700f9ca485fc65a69b25e04c222b4a03289fd0c98ba53848533a3e39a2602052604060002090565b610296600861028e856000527f33ea8f700f9ca485fc65a69b25e04c222b4a03289fd0c98ba53848533a3e39a4602052604060002090565b0154916114ec565b6122de565b906102dc8260086102d5846000527f33ea8f700f9ca485fc65a69b25e04c222b4a03289fd0c98ba53848533a3e39a4602052604060002090565b0154611458565b91610326600561031d61021160046101a6876000527f33ea8f700f9ca485fc65a69b25e04c222b4a03289fd0c98ba53848533a3e39a4602052604060002090565b0191825461159e565b90556103686007610360836000527f33ea8f700f9ca485fc65a69b25e04c222b4a03289fd0c98ba53848533a3e39a4602052604060002090565b015460ff1690565b610371816115ab565b156105a4575b60016103b16007610360846000527f33ea8f700f9ca485fc65a69b25e04c222b4a03289fd0c98ba53848533a3e39a4602052604060002090565b6103ba816115ab565b1461042f575b8061041a60076100eb7fe523b938ed6306ade2fd18c2cde515e4921fb8868319befda9abaaf766295440946000527f33ea8f700f9ca485fc65a69b25e04c222b4a03289fd0c98ba53848533a3e39a4602052604060002090565b9061042a604051928392836115c2565b0390a1005b61049b610482610468836000527f33ea8f700f9ca485fc65a69b25e04c222b4a03289fd0c98ba53848533a3e39a4602052604060002090565b5473ffffffffffffffffffffffffffffffffffffffff1690565b73ffffffffffffffffffffffffffffffffffffffff1690565b330361057a576105757fe523b938ed6306ade2fd18c2cde515e4921fb8868319befda9abaaf766295440926104fe60046101a6856000527f33ea8f700f9ca485fc65a69b25e04c222b4a03289fd0c98ba53848533a3e39a4602052604060002090565b9061053760016101a6866000527f33ea8f700f9ca485fc65a69b25e04c222b4a03289fd0c98ba53848533a3e39a4602052604060002090565b90600361056d866000527f33ea8f700f9ca485fc65a69b25e04c222b4a03289fd0c98ba53848533a3e39a4602052604060002090565b015492612303565b6103c0565b7f0614e1550000000000000000000000000000000000000000000000000000000060005260046000fd5b6105df61048260016101a6846000527f33ea8f700f9ca485fc65a69b25e04c222b4a03289fd0c98ba53848533a3e39a4602052604060002090565b33036106915761068c61062060046101a6846000527f33ea8f700f9ca485fc65a69b25e04c222b4a03289fd0c98ba53848533a3e39a4602052604060002090565b610656610468846000527f33ea8f700f9ca485fc65a69b25e04c222b4a03289fd0c98ba53848533a3e39a4602052604060002090565b84600261056d866000527f33ea8f700f9ca485fc65a69b25e04c222b4a03289fd0c98ba53848533a3e39a4602052604060002090565b610377565b7fd6307e440000000000000000000000000000000000000000000000000000000060005260046000fd5b7f4a306e1d0000000000000000000000000000000000000000000000000000000060005260046000fd5b7f81a618400000000000000000000000000000000000000000000000000000000060005260046000fd5b600080fd5b7ffffffffffffffffffffffffffffffffffffffffffffffffffffffffffffffffc602091011261070f5760043590565b3461070f5761075236610714565b600a610787826000527f33ea8f700f9ca485fc65a69b25e04c222b4a03289fd0c98ba53848533a3e39a4602052604060002090565b0154156106e5576107c66007610360836000527f33ea8f700f9ca485fc65a69b25e04c222b4a03289fd0c98ba53848533a3e39a4602052604060002090565b6107cf816115ab565b15610a0a575b600161080f6007610360846000527f33ea8f700f9ca485fc65a69b25e04c222b4a03289fd0c98ba53848533a3e39a4602052604060002090565b610818816115ab565b146108dd575b806108a560076108787f3b3495bf7f9665729a9928a7d82900e2f4783a47a1f518d224308c26b3f92647946000527f33ea8f700f9ca485fc65a69b25e04c222b4a03289fd0c98ba53848533a3e39a4602052604060002090565b016102007fffffffffffffffffffffffffffffffffffffffffffffffffffffffffffff00ff825416179055565b61041a60076100eb836000527f33ea8f700f9ca485fc65a69b25e04c222b4a03289fd0c98ba53848533a3e39a4602052604060002090565b61091560076100eb836000527f33ea8f700f9ca485fc65a69b25e04c222b4a03289fd0c98ba53848533a3e39a4602052604060002090565b61091e816113ac565b1515806109bf575b6109955761096561048260016101a6846000527f33ea8f700f9ca485fc65a69b25e04c222b4a03289fd0c98ba53848533a3e39a4602052604060002090565b331461081e577fd6307e440000000000000000000000000000000000000000000000000000000060005260046000fd5b7f317dd5870000000000000000000000000000000000000000000000000000000060005260046000fd5b5060016109fa60076100eb846000527f33ea8f700f9ca485fc65a69b25e04c222b4a03289fd0c98ba53848533a3e39a4602052604060002090565b610a03816113ac565b1415610926565b6001610a4460076100eb846000527f33ea8f700f9ca485fc65a69b25e04c222b4a03289fd0c98ba53848533a3e39a4602052604060002090565b610a4d816113ac565b03610abb57610a8b610482610468836000527f33ea8f700f9ca485fc65a69b25e04c222b4a03289fd0c98ba53848533a3e39a4602052604060002090565b33146107d5577f0614e1550000000000000000000000000000000000000000000000000000000060005260046000fd5b7f83d165310000000000000000000000000000000000000000000000000000000060005260046000fd5b3461070f57610af336610714565b600a610b28826000527f33ea8f700f9ca485fc65a69b25e04c222b4a03289fd0c98ba53848533a3e39a4602052604060002090565b0154156106e557610b676007610360836000527f33ea8f700f9ca485fc65a69b25e04c222b4a03289fd0c98ba53848533a3e39a4602052604060002090565b610b70816115ab565b15610d5e575b6001610bb06007610360846000527f33ea8f700f9ca485fc65a69b25e04c222b4a03289fd0c98ba53848533a3e39a4602052604060002090565b610bb9816115ab565b14610c46575b806108a56007610c197fe3bb8b6a10cd6f3d19108b8f000be77007825b16e073eb3a26cd8ccf3b6259a4946000527f33ea8f700f9ca485fc65a69b25e04c222b4a03289fd0c98ba53848533a3e39a4602052604060002090565b016105007fffffffffffffffffffffffffffffffffffffffffffffffffffffffffffff00ff825416179055565b610c8161048260016101a6846000527f33ea8f700f9ca485fc65a69b25e04c222b4a03289fd0c98ba53848533a3e39a4602052604060002090565b33036106915780610d57610ce460046101a67fe3bb8b6a10cd6f3d19108b8f000be77007825b16e073eb3a26cd8ccf3b6259a4956000527f33ea8f700f9ca485fc65a69b25e04c222b4a03289fd0c98ba53848533a3e39a4602052604060002090565b6008610d19846000527f33ea8f700f9ca485fc65a69b25e04c222b4a03289fd0c98ba53848533a3e39a4602052604060002090565b0154610d51610468856000527f33ea8f700f9ca485fc65a69b25e04c222b4a03289fd0c98ba53848533a3e39a4602052604060002090565b91612496565b9050610bbf565b6001610d9860076100eb846000527f33ea8f700f9ca485fc65a69b25e04c222b4a03289fd0c98ba53848533a3e39a4602052604060002090565b610da1816113ac565b03610abb57610ddf610482610468836000527f33ea8f700f9ca485fc65a69b25e04c222b4a03289fd0c98ba53848533a3e39a4602052604060002090565b330361057a57610e8f610e2060046101a6846000527f33ea8f700f9ca485fc65a69b25e04c222b4a03289fd0c98ba53848533a3e39a4602052604060002090565b6008610e55846000527f33ea8f700f9ca485fc65a69b25e04c222b4a03289fd0c98ba53848533a3e39a4602052604060002090565b0154610d5160016101a6866000527f33ea8f700f9ca485fc65a69b25e04c222b4a03289fd0c98ba53848533a3e39a4602052604060002090565b610b76565b3461070f57610ea236610714565b600a610ed7826000527f33ea8f700f9ca485fc65a69b25e04c222b4a03289fd0c98ba53848533a3e39a4602052604060002090565b0154156106e557610f1660076100eb836000527f33ea8f700f9ca485fc65a69b25e04c222b4a03289fd0c98ba53848533a3e39a4602052604060002090565b610f1f816113ac565b6110e857610f5e61048260016101a6846000527f33ea8f700f9ca485fc65a69b25e04c222b4a03289fd0c98ba53848533a3e39a4602052604060002090565b33036106915780610feb6007610fbe7fc1c3487325326ec0a3256c2248d978c3d4bd005ab1e5579108080de5291b1eba946000527f33ea8f700f9ca485fc65a69b25e04c222b4a03289fd0c98ba53848533a3e39a4602052604060002090565b016101007fffffffffffffffffffffffffffffffffffffffffffffffffffffffffffff00ff825416179055565b6110236007610360836000527f33ea8f700f9ca485fc65a69b25e04c222b4a03289fd0c98ba53848533a3e39a4602052604060002090565b61102c816115ab565b156110695761041a60076100eb836000527f33ea8f700f9ca485fc65a69b25e04c222b4a03289fd0c98ba53848533a3e39a4602052604060002090565b6110e36110a460046101a6846000527f33ea8f700f9ca485fc65a69b25e04c222b4a03289fd0c98ba53848533a3e39a4602052604060002090565b339060086110db856000527f33ea8f700f9ca485fc65a69b25e04c222b4a03289fd0c98ba53848533a3e39a4602052604060002090565b0154906125e0565b6108a5565b7f602cf9ef0000000000000000000000000000000000000000000000000000000060005260046000fd5b3461070f576101607ffffffffffffffffffffffffffffffffffffffffffffffffffffffffffffffffc36011261070f57600061114c6112f3565b611154611316565b6111c460443591611198606435611169611339565b60a43560c4356111776115d8565b906101043592610124359461014435966040519b8c9a60208c019e8f611601565b037fffffffffffffffffffffffffffffffffffffffffffffffffffffffffffffffe08101835282611494565b51902061119861129761125460a06040517f8b73c3c69bb8fe3d512ecc4cf759cc79239f7b179b0ffacaa9a75d522b39400f81527f03c29967dc1ec387c86cb32e2d942a047a54b4d2a64b4fea68f9345b7f8089da60208201527ff9446b8e937d86f0bc87cac73923491692b123ca5f8761908494703758206adf60408201524660608201523060808201522090565b9260405192839160208301958690916042927f19010000000000000000000000000000000000000000000000000000000000008352600283015260228201520190565b5190206112a26112f3565b73ffffffffffffffffffffffffffffffffffffffff339116036112cb576112c890611966565b80f35b6004827f815e1d64000000000000000000000000000000000000000000000000000000008152fd5b60043573ffffffffffffffffffffffffffffffffffffffff8116810361070f5790565b60243573ffffffffffffffffffffffffffffffffffffffff8116810361070f5790565b60843573ffffffffffffffffffffffffffffffffffffffff8116810361070f5790565b3573ffffffffffffffffffffffffffffffffffffffff8116810361070f5790565b7f4e487b7100000000000000000000000000000000000000000000000000000000600052602160045260246000fd5b600611156113b657565b61137d565b9060068110156113b6577fffffffffffffffffffffffffffffffffffffffffffffffffffffffffffff00ff61ff0083549260081b169116179055565b7f4e487b7100000000000000000000000000000000000000000000000000000000600052601160045260246000fd5b907fffffffffffffffffffffffffffffffffffffffffffffffffffffffffffffffff820191821161145357565b6113f7565b9190820391821161145357565b7f4e487b7100000000000000000000000000000000000000000000000000000000600052604160045260246000fd5b90601f7fffffffffffffffffffffffffffffffffffffffffffffffffffffffffffffffe0910116810190811067ffffffffffffffff8211176114d557604052565b611465565b604051906114ea61018083611494565b565b9060405160e0810181811067ffffffffffffffff8211176114d55760405260c06006829461152060ff825416859015159052565b6001810154602085015260028101546040850152611575611558600383015473ffffffffffffffffffffffffffffffffffffffff1690565b73ffffffffffffffffffffffffffffffffffffffff166060860152565b60048101546080850152600581015460a08501520154910152565b906001820180921161145357565b9190820180921161145357565b600211156113b657565b9060068210156113b65752565b9081526040810192916114ea91602001906115b5565b60e435600281101561070f5790565b35600281101561070f5790565b9060028210156113b65752565b98969492909b9a99979593916101808a019c7fbe72a4ba8a4616daa23d6306346d5930701dd2c68f00b529aa356cf7b5dc05b68b5273ffffffffffffffffffffffffffffffffffffffff1660208b015273ffffffffffffffffffffffffffffffffffffffff1660408a01526060890152608088015273ffffffffffffffffffffffffffffffffffffffff1660a087015260c086015260e085015261010084016116a9916115f4565b6101208301526101408201526101600152565b60028210156113b65752565b60068210156113b65752565b9060028110156113b65760ff7fffffffffffffffffffffffffffffffffffffffffffffffffffffffffffffff008354169116179055565b90610160600a91611774611733825173ffffffffffffffffffffffffffffffffffffffff1690565b859073ffffffffffffffffffffffffffffffffffffffff167fffffffffffffffffffffffff0000000000000000000000000000000000000000825416179055565b6117dc611798602083015173ffffffffffffffffffffffffffffffffffffffff1690565b600186019073ffffffffffffffffffffffffffffffffffffffff167fffffffffffffffffffffffff0000000000000000000000000000000000000000825416179055565b6040810151600285015560608101516003850155611858611814608083015173ffffffffffffffffffffffffffffffffffffffff1690565b600486019073ffffffffffffffffffffffffffffffffffffffff167fffffffffffffffffffffffff0000000000000000000000000000000000000000825416179055565b60a0810151600585015560c0810151600685015561189f6007850161188a60e0840151611884816115ab565b826116d4565b6101008301519061189a826113ac565b6113bb565b610120810151600885015561014081015160098501550151910155565b9a98969492909d9c9b99979593916101a08c019e8c5273ffffffffffffffffffffffffffffffffffffffff1660208c015273ffffffffffffffffffffffffffffffffffffffff1660408b015260608a0152608089015273ffffffffffffffffffffffffffffffffffffffff1660a088015260c087015260e08601526101008501611945916115f4565b6101208401526101408301611959916115b5565b6101608201526101800152565b600090611976610482600461135c565b1561215857611988610482602461135c565b156121585761199a610482608461135c565b1561215857610104356001811061213057604435600181106121085760643593600185106120e0576101243542116120b8576119d5816113ac565b6119de816113ac565b50600a611a14846000527f33ea8f700f9ca485fc65a69b25e04c222b4a03289fd0c98ba53848533a3e39a4602052604060002090565b015461208e5760a43590611a62611a5e611a57846000527f33ea8f700f9ca485fc65a69b25e04c222b4a03289fd0c98ba53848533a3e39a1602052604060002090565b5460ff1690565b1590565b6120645760c43590611aa3611a5e611a57846000527f33ea8f700f9ca485fc65a69b25e04c222b4a03289fd0c98ba53848533a3e39a0602052604060002090565b61203a57611aba611a5e611a57610211608461135c565b6120105761014435957f33ea8f700f9ca485fc65a69b25e04c222b4a03289fd0c98ba53848533a3e39a65487108015611fe6575b611fbc576003611b016101c1602461135c565b019384547f33ea8f700f9ca485fc65a69b25e04c222b4a03289fd0c98ba53848533a3e39a5541115611f92577f40746c61461ad3025caece8817f27fd91abfd3f6390b7b20bbe41dde689217de97611c6c94611c1192611bfe611b64600461135c565b96611b6f602461135c565b96611b7a608461135c565b91611bd7611b92611b8b60e46115e7565b984261159e565b99611bba611b9e6114da565b73ffffffffffffffffffffffffffffffffffffffff909d168d52565b73ffffffffffffffffffffffffffffffffffffffff1660208c0152565b60408a0152606089015273ffffffffffffffffffffffffffffffffffffffff166080880152565b60a086015260c085015260e084016116bc565b611c20600061010084016116c8565b8461012083015261014082015242610160820152611c67856000527f33ea8f700f9ca485fc65a69b25e04c222b4a03289fd0c98ba53848533a3e39a4602052604060002090565b61170b565b611c768154611590565b9055611c8260e46115e7565b611c8b816115ab565b15611f83575b6001611c9d60e46115e7565b611ca6816115ab565b14611f5e575b50611ce3610468826000527f33ea8f700f9ca485fc65a69b25e04c222b4a03289fd0c98ba53848533a3e39a4602052604060002090565b90611f59611d1f60016101a6846000527f33ea8f700f9ca485fc65a69b25e04c222b4a03289fd0c98ba53848533a3e39a4602052604060002090565b6002611d54846000527f33ea8f700f9ca485fc65a69b25e04c222b4a03289fd0c98ba53848533a3e39a4602052604060002090565b01546003611d8b856000527f33ea8f700f9ca485fc65a69b25e04c222b4a03289fd0c98ba53848533a3e39a4602052604060002090565b0154611dc560046101a6876000527f33ea8f700f9ca485fc65a69b25e04c222b4a03289fd0c98ba53848533a3e39a4602052604060002090565b6005611dfa876000527f33ea8f700f9ca485fc65a69b25e04c222b4a03289fd0c98ba53848533a3e39a4602052604060002090565b01546006611e31886000527f33ea8f700f9ca485fc65a69b25e04c222b4a03289fd0c98ba53848533a3e39a4602052604060002090565b0154611e6b60076103608a6000527f33ea8f700f9ca485fc65a69b25e04c222b4a03289fd0c98ba53848533a3e39a4602052604060002090565b916008611ea18a6000527f33ea8f700f9ca485fc65a69b25e04c222b4a03289fd0c98ba53848533a3e39a4602052604060002090565b015493611edc60076100eb8c6000527f33ea8f700f9ca485fc65a69b25e04c222b4a03289fd0c98ba53848533a3e39a4602052604060002090565b956009611f128c6000527f33ea8f700f9ca485fc65a69b25e04c222b4a03289fd0c98ba53848533a3e39a4602052604060002090565b015497600a611f4a8d6000527f33ea8f700f9ca485fc65a69b25e04c222b4a03289fd0c98ba53848533a3e39a4602052604060002090565b0154996040519d8e9d8e6118bc565b0390a1565b611f7d90611f6c608461135c565b90611f77600461135c565b916125e0565b38611cac565b611f8d60006113ac565b611c91565b7f69b974f20000000000000000000000000000000000000000000000000000000060005260046000fd5b7f761664010000000000000000000000000000000000000000000000000000000060005260046000fd5b507f33ea8f700f9ca485fc65a69b25e04c222b4a03289fd0c98ba53848533a3e39a7548711611aee565b7f7be55e6c0000000000000000000000000000000000000000000000000000000060005260046000fd5b7fde3051d60000000000000000000000000000000000000000000000000000000060005260046000fd5b7f2263f4e20000000000000000000000000000000000000000000000000000000060005260046000fd5b7fe59146300000000000000000000000000000000000000000000000000000000060005260046000fd5b807fc56873ba0000000000000000000000000000000000000000000000000000000060049252fd5b807f7a47c9a20000000000000000000000000000000000000000000000000000000060049252fd5b6004847f7a47c9a2000000000000000000000000000000000000000000000000000000008152fd5b6004837f524f409b000000000000000000000000000000000000000000000000000000008152fd5b6004827fd92e233d000000000000000000000000000000000000000000000000000000008152fd5b73ffffffffffffffffffffffffffffffffffffffff6121de8273ffffffffffffffffffffffffffffffffffffffff166000527f33ea8f700f9ca485fc65a69b25e04c222b4a03289fd0c98ba53848533a3e39a3602052604060002090565b5460081c16612233576122309073ffffffffffffffffffffffffffffffffffffffff166000527f33ea8f700f9ca485fc65a69b25e04c222b4a03289fd0c98ba53848533a3e39a3602052604060002090565b90565b73ffffffffffffffffffffffffffffffffffffffff6122946122309273ffffffffffffffffffffffffffffffffffffffff166000527f33ea8f700f9ca485fc65a69b25e04c222b4a03289fd0c98ba53848533a3e39a3602052604060002090565b5460081c1673ffffffffffffffffffffffffffffffffffffffff166000527f33ea8f700f9ca485fc65a69b25e04c222b4a03289fd0c98ba53848533a3e39a3602052604060002090565b60800151808202828104821483151715611453576127101161070f5761223091612809565b468403612314576114ea9350612496565b600093919261240885946111986123a073ffffffffffffffffffffffffffffffffffffffff60036123848873ffffffffffffffffffffffffffffffffffffffff166000527f33ea8f700f9ca485fc65a69b25e04c222b4a03289fd0c98ba53848533a3e39a2602052604060002090565b01541673ffffffffffffffffffffffffffffffffffffffff1690565b9560405194859360208501977f7c1779dc000000000000000000000000000000000000000000000000000000008952602486019094939273ffffffffffffffffffffffffffffffffffffffff9060609382608085019816845260208401521660408201520152565b51915af46124146126e2565b501561241c57565b6040517f9becf85d00000000000000000000000000000000000000000000000000000000815260206004820152601760248201527f4c69625472616e736665722e5f62726964676553656e640000000000000000006044820152606490fd5b9081602091031261070f575190565b6040513d6000823e3d90fd5b6040517f70a08231000000000000000000000000000000000000000000000000000000008152306004820152919273ffffffffffffffffffffffffffffffffffffffff9190911691602081602481865afa9081156125b85784906000926125bd575b50612504919284612740565b6040517f70a0823100000000000000000000000000000000000000000000000000000000815230600482015291602090839060249082905afa9081156125b85761255692600092612587575b50611458565b0361255d57565b7fc7e8fc500000000000000000000000000000000000000000000000000000000060005260046000fd5b6125aa91925060203d6020116125b1575b6125a28183611494565b81019061247b565b9038612550565b503d612598565b61248a565b61250492506125da9060203d6020116125b1576125a28183611494565b916124f8565b6040517f70a08231000000000000000000000000000000000000000000000000000000008152306004820152919273ffffffffffffffffffffffffffffffffffffffff9190911691602081602481865afa9081156125b85784906000926126bf575b5061265091923090856127a2565b6040517f70a0823100000000000000000000000000000000000000000000000000000000815230600482015291602090839060249082905afa80156125b857612556926000916126a05750611458565b6126b9915060203d6020116125b1576125a28183611494565b38612550565b61265092506126dc9060203d6020116125b1576125a28183611494565b91612642565b3d1561273b573d9067ffffffffffffffff82116114d5576040519161272f60207fffffffffffffffffffffffffffffffffffffffffffffffffffffffffffffffe0601f8401160184611494565b82523d6000602084013e565b606090565b6114ea9273ffffffffffffffffffffffffffffffffffffffff604051937fa9059cbb00000000000000000000000000000000000000000000000000000000602086015216602484015260448301526044825261279d606483611494565b612898565b90919273ffffffffffffffffffffffffffffffffffffffff6114ea9481604051957f23b872dd00000000000000000000000000000000000000000000000000000000602088015216602486015216604484015260648301526064825261279d608483611494565b818102907fffffffffffffffffffffffffffffffffffffffffffffffffffffffffffffffff8382099082808310920391808303921461288d57816127101115612886577fbc01a36e2eb1c432ca57a786c226809d495182a9930be0ded288ce703afb7e9193612710910990828211900360fc1b910360041c170290565b6011612923565b506127109250500490565b906000602091828151910182855af11561248a576000513d61291a575073ffffffffffffffffffffffffffffffffffffffff81163b155b6128d65750565b73ffffffffffffffffffffffffffffffffffffffff907f5274afe7000000000000000000000000000000000000000000000000000000006000521660045260246000fd5b600114156128cf565b634e487b716000526020526024601cfdfea2646970667358221220f51f9825564512c77b38a9441986e98c8b49b3ee907a9d5ef161ab86d55c217e64736f6c634300081c0033",
  "linkReferences": {},
  "deployedLinkReferences": {}
}