{
  "_format": "hh-sol-artifact-1",
  "contractName": "OrderSig",
  "sourceName": "contracts/modules/OrderSig.sol",
  "abi": [
    {
      "inputs": [
        {
          "internalType": "string",
          "name": "_functionName",
          "type": "string"
        }
      ],
      "name": "DelegateCallFailed",
      "type": "error"
    },
    {
      "inputs": [],
      "name": "ECDSA__InvalidS",
      "type": "error"
    },
    {
      "inputs": [],
      "name": "ECDSA__InvalidSignature",
      "type": "error"
    },
    {
      "inputs": [],
      "name": "ECDSA__InvalidSignatureLength",
      "type": "error"
    },
    {
      "inputs": [],
      "name": "ECDSA__InvalidV",
      "type": "error"
    },
    {
      "inputs": [],
      "name": "InvalidChainId",
      "type": "error"
    },
    {
      "inputs": [],
      "name": "InvalidDuration",
      "type": "error"
    },
    {
      "inputs": [],
      "name": "InvalidOrderCreateState",
      "type": "error"
    },
    {
      "inputs": [],
      "name": "InvalidOrderMethodCall",
      "type": "error"
    },
    {
      "inputs": [],
      "name": "InvalidQuantity",
      "type": "error"
    },
    {
      "inputs": [],
      "name": "InvalidSignature",
      "type": "error"
    },
    {
      "inputs": [],
      "name": "InvalidSigner",
      "type": "error"
    },
    {
      "inputs": [],
      "name": "InvalidTradeToken",
      "type": "error"
    },
    {
      "inputs": [],
      "name": "MerchantConcurrencyReached",
      "type": "error"
    },
    {
      "inputs": [],
      "name": "MustBeMerchant",
      "type": "error"
    },
    {
      "inputs": [],
      "name": "MustBeMerchantOrTrader",
      "type": "error"
    },
    {
      "inputs": [],
      "name": "MustBeTrader",
      "type": "error"
    },
    {
      "inputs": [],
      "name": "OrderAcceptedRequired",
      "type": "error"
    },
    {
      "inputs": [],
      "name": "OrderDoesNotExists",
      "type": "error"
    },
    {
      "inputs": [],
      "name": "OrderExists",
      "type": "error"
    },
    {
      "inputs": [],
      "name": "OrderExpired",
      "type": "error"
    },
    {
      "inputs": [],
      "name": "OrderPaidRequired",
      "type": "error"
    },
    {
      "inputs": [],
      "name": "OrderPendingOrAcceptedRequired",
      "type": "error"
    },
    {
      "inputs": [],
      "name": "OrderPendingRequired",
      "type": "error"
    },
    {
      "inputs": [],
      "name": "ProtocolInvariantCheckFailed",
      "type": "error"
    },
    {
      "inputs": [
        {
          "internalType": "address",
          "name": "token",
          "type": "address"
        }
      ],
      "name": "SafeERC20FailedOperation",
      "type": "error"
    },
    {
      "inputs": [],
      "name": "SignatureExpired",
      "type": "error"
    },
    {
      "inputs": [],
      "name": "ZeroAddress",
      "type": "error"
    },
    {
      "anonymous": false,
      "inputs": [
        {
          "indexed": false,
          "internalType": "bytes32",
          "name": "orderHash",
          "type": "bytes32"
        },
        {
          "indexed": false,
          "internalType": "address",
          "name": "trader",
          "type": "address"
        },
        {
          "indexed": false,
          "internalType": "address",
          "name": "merchant",
          "type": "address"
        },
        {
          "indexed": false,
          "internalType": "uint256",
          "name": "traderChain",
          "type": "uint256"
        },
        {
          "indexed": false,
          "internalType": "uint256",
          "name": "merchantChain",
          "type": "uint256"
        },
        {
          "indexed": false,
          "internalType": "address",
          "name": "token",
          "type": "address"
        },
        {
          "indexed": false,
          "internalType": "bytes32",
          "name": "currency",
          "type": "bytes32"
        },
        {
          "indexed": false,
          "internalType": "bytes32",
          "name": "paymentMethod",
          "type": "bytes32"
        },
        {
          "indexed": false,
          "internalType": "enum OrderType",
          "name": "orderType",
          "type": "uint8"
        },
        {
          "indexed": false,
          "internalType": "uint256",
          "name": "quantity",
          "type": "uint256"
        },
        {
          "indexed": false,
          "internalType": "enum OrderState",
          "name": "orderState",
          "type": "uint8"
        },
        {
          "indexed": false,
          "internalType": "uint256",
          "name": "deadline",
          "type": "uint256"
        },
        {
          "indexed": false,
          "internalType": "uint256",
          "name": "createdAt",
          "type": "uint256"
        }
      ],
      "name": "NewOrder",
      "type": "event"
    },
    {
      "anonymous": false,
      "inputs": [
        {
          "indexed": false,
          "internalType": "bytes32",
          "name": "orderHash",
          "type": "bytes32"
        },
        {
          "indexed": false,
          "internalType": "enum OrderState",
          "name": "status",
          "type": "uint8"
        }
      ],
      "name": "OrderAccepted",
      "type": "event"
    },
    {
      "anonymous": false,
      "inputs": [
        {
          "indexed": false,
          "internalType": "bytes32",
          "name": "orderHash",
          "type": "bytes32"
        },
        {
          "indexed": false,
          "internalType": "address",
          "name": "appealer",
          "type": "address"
        },
        {
          "indexed": false,
          "internalType": "enum IAppeal.AppealDecision",
          "name": "appealDecision",
          "type": "uint8"
        },
        {
          "indexed": false,
          "internalType": "enum OrderState",
          "name": "orderState",
          "type": "uint8"
        },
        {
          "indexed": false,
          "internalType": "uint256",
          "name": "createdAt",
          "type": "uint256"
        }
      ],
      "name": "OrderAppealed",
      "type": "event"
    },
    {
      "anonymous": false,
      "inputs": [
        {
          "indexed": false,
          "internalType": "bytes32",
          "name": "orderHash",
          "type": "bytes32"
        },
        {
          "indexed": false,
          "internalType": "enum OrderState",
          "name": "status",
          "type": "uint8"
        }
      ],
      "name": "OrderCancelled",
      "type": "event"
    },
    {
      "anonymous": false,
      "inputs": [
        {
          "indexed": false,
          "internalType": "bytes32",
          "name": "orderHash",
          "type": "bytes32"
        },
        {
          "indexed": false,
          "internalType": "enum OrderState",
          "name": "status",
          "type": "uint8"
        }
      ],
      "name": "OrderPaid",
      "type": "event"
    },
    {
      "anonymous": false,
      "inputs": [
        {
          "indexed": false,
          "internalType": "bytes32",
          "name": "orderHash",
          "type": "bytes32"
        },
        {
          "indexed": false,
          "internalType": "enum OrderState",
          "name": "status",
          "type": "uint8"
        }
      ],
      "name": "OrderReleased",
      "type": "event"
    },
    {
      "inputs": [
        {
          "components": [
            {
              "internalType": "bytes32",
              "name": "orderHash",
              "type": "bytes32"
            },
            {
              "internalType": "enum IOrderSig.OrderMethod",
              "name": "method",
              "type": "uint8"
            },
            {
              "internalType": "uint256",
              "name": "expiry",
              "type": "uint256"
            }
          ],
          "internalType": "struct IOrderSig.OrderMethodPayload",
          "name": "_method",
          "type": "tuple"
        },
        {
          "internalType": "bytes",
          "name": "_sig",
          "type": "bytes"
        }
      ],
      "name": "acceptOrder",
      "outputs": [],
      "stateMutability": "nonpayable",
      "type": "function"
    },
    {
      "inputs": [
        {
          "components": [
            {
              "internalType": "bytes32",
              "name": "orderHash",
              "type": "bytes32"
            },
            {
              "internalType": "enum IOrderSig.OrderMethod",
              "name": "method",
              "type": "uint8"
            },
            {
              "internalType": "uint256",
              "name": "expiry",
              "type": "uint256"
            }
          ],
          "internalType": "struct IOrderSig.OrderMethodPayload",
          "name": "_method",
          "type": "tuple"
        },
        {
          "internalType": "bytes",
          "name": "_sig",
          "type": "bytes"
        }
      ],
      "name": "appealOrder",
      "outputs": [],
      "stateMutability": "nonpayable",
      "type": "function"
    },
    {
      "inputs": [
        {
          "components": [
            {
              "internalType": "bytes32",
              "name": "orderHash",
              "type": "bytes32"
            },
            {
              "internalType": "enum IOrderSig.OrderMethod",
              "name": "method",
              "type": "uint8"
            },
            {
              "internalType": "uint256",
              "name": "expiry",
              "type": "uint256"
            }
          ],
          "internalType": "struct IOrderSig.OrderMethodPayload",
          "name": "_method",
          "type": "tuple"
        },
        {
          "internalType": "bytes",
          "name": "_sig",
          "type": "bytes"
        }
      ],
      "name": "cancelOrder",
      "outputs": [],
      "stateMutability": "nonpayable",
      "type": "function"
    },
    {
      "inputs": [
        {
          "components": [
            {
              "internalType": "address",
              "name": "trader",
              "type": "address"
            },
            {
              "internalType": "address",
              "name": "merchant",
              "type": "address"
            },
            {
              "internalType": "uint256",
              "name": "traderChain",
              "type": "uint256"
            },
            {
              "internalType": "uint256",
              "name": "merchantChain",
              "type": "uint256"
            },
            {
              "internalType": "address",
              "name": "token",
              "type": "address"
            },
            {
              "internalType": "bytes32",
              "name": "currency",
              "type": "bytes32"
            },
            {
              "internalType": "bytes32",
              "name": "paymentMethod",
              "type": "bytes32"
            },
            {
              "internalType": "enum OrderType",
              "name": "orderType",
              "type": "uint8"
            },
            {
              "internalType": "uint256",
              "name": "quantity",
              "type": "uint256"
            },
            {
              "internalType": "uint256",
              "name": "expiry",
              "type": "uint256"
            },
            {
              "internalType": "uint256",
              "name": "duration",
              "type": "uint256"
            }
          ],
          "internalType": "struct IOrder.CreateOrder",
          "name": "_order",
          "type": "tuple"
        },
        {
          "internalType": "bytes",
          "name": "_traderSig",
          "type": "bytes"
        },
        {
          "internalType": "bytes",
          "name": "_merchantSig",
          "type": "bytes"
        }
      ],
      "name": "createOrder",
      "outputs": [],
      "stateMutability": "nonpayable",
      "type": "function"
    },
    {
      "inputs": [
        {
          "components": [
            {
              "internalType": "bytes32",
              "name": "orderHash",
              "type": "bytes32"
            },
            {
              "internalType": "enum IOrderSig.OrderMethod",
              "name": "method",
              "type": "uint8"
            },
            {
              "internalType": "uint256",
              "name": "expiry",
              "type": "uint256"
            }
          ],
          "internalType": "struct IOrderSig.OrderMethodPayload",
          "name": "_method",
          "type": "tuple"
        },
        {
          "internalType": "bytes",
          "name": "_sig",
          "type": "bytes"
        }
      ],
      "name": "payOrder",
      "outputs": [],
      "stateMutability": "nonpayable",
      "type": "function"
    },
    {
      "inputs": [
        {
          "components": [
            {
              "internalType": "bytes32",
              "name": "orderHash",
              "type": "bytes32"
            },
            {
              "internalType": "enum IOrderSig.OrderMethod",
              "name": "method",
              "type": "uint8"
            },
            {
              "internalType": "uint256",
              "name": "expiry",
              "type": "uint256"
            }
          ],
          "internalType": "struct IOrderSig.OrderMethodPayload",
          "name": "_method",
          "type": "tuple"
        },
        {
          "internalType": "bytes",
          "name": "_sig",
          "type": "bytes"
        }
      ],
      "name": "releaseOrder",
      "outputs": [],
      "stateMutability": "nonpayable",
      "type": "function"
    }
  ],
  "bytecode": "0x60808060405234601557613724908161001b8239f35b600080fdfe6080604052600436101561001257600080fd5b60003560e01c806307b587c714610077578063189df3a01461007257806370a18b1a1461006d5780637cbd072914610068578063ccddd515146100635763e103e38d1461005e57600080fd5b6115be565b611420565b610df1565b610ae6565b6106c4565b34610638576100853661066b565b91906040820135421161060e576020926100b96040516100a58682611983565b600081526100b4368486611a39565b611b21565b6105e4576100c8848401611aad565b60058110156105df576003036105b5576100f06100f6926100e885611b44565b923691611a39565b90612acb565b903591826000527f33ea8f700f9ca485fc65a69b25e04c222b4a03289fd0c98ba53848533a3e39a48152600a604060002001541561058b577f33ea8f700f9ca485fc65a69b25e04c222b4a03289fd0c98ba53848533a3e39a490836000525242600960406000200154116000146101725761017091612c36565b005b506101b660076101ab836000527f33ea8f700f9ca485fc65a69b25e04c222b4a03289fd0c98ba53848533a3e39a4602052604060002090565b015460081c60ff1690565b6101bf81611cb0565b151580610540575b610516578061022d60076102257fe3bb8b6a10cd6f3d19108b8f000be77007825b16e073eb3a26cd8ccf3b6259a4946000527f33ea8f700f9ca485fc65a69b25e04c222b4a03289fd0c98ba53848533a3e39a4602052604060002090565b015460ff1690565b61023681611e16565b1561041f575b60016102766007610225846000527f33ea8f700f9ca485fc65a69b25e04c222b4a03289fd0c98ba53848533a3e39a4602052604060002090565b61027f81611e16565b14610337575b6102ea60076102bd836000527f33ea8f700f9ca485fc65a69b25e04c222b4a03289fd0c98ba53848533a3e39a4602052604060002090565b016105007fffffffffffffffffffffffffffffffffffffffffffffffffffffffffffff00ff825416179055565b61032260076101ab836000527f33ea8f700f9ca485fc65a69b25e04c222b4a03289fd0c98ba53848533a3e39a4602052604060002090565b9061033260405192839283611e20565b0390a1005b61041a61038d6004610372846000527f33ea8f700f9ca485fc65a69b25e04c222b4a03289fd0c98ba53848533a3e39a4602052604060002090565b015473ffffffffffffffffffffffffffffffffffffffff1690565b60086103c2846000527f33ea8f700f9ca485fc65a69b25e04c222b4a03289fd0c98ba53848533a3e39a4602052604060002090565b01546104146103fa856000527f33ea8f700f9ca485fc65a69b25e04c222b4a03289fd0c98ba53848533a3e39a4602052604060002090565b5473ffffffffffffffffffffffffffffffffffffffff1690565b916133c7565b610285565b600161045960076101ab846000527f33ea8f700f9ca485fc65a69b25e04c222b4a03289fd0c98ba53848533a3e39a4602052604060002090565b61046281611cb0565b0361023c576105116104a26004610372846000527f33ea8f700f9ca485fc65a69b25e04c222b4a03289fd0c98ba53848533a3e39a4602052604060002090565b60086104d7846000527f33ea8f700f9ca485fc65a69b25e04c222b4a03289fd0c98ba53848533a3e39a4602052604060002090565b01546104146001610372866000527f33ea8f700f9ca485fc65a69b25e04c222b4a03289fd0c98ba53848533a3e39a4602052604060002090565b61023c565b7f317dd5870000000000000000000000000000000000000000000000000000000060005260046000fd5b50600161057b60076101ab846000527f33ea8f700f9ca485fc65a69b25e04c222b4a03289fd0c98ba53848533a3e39a4602052604060002090565b61058481611cb0565b14156101c7565b7f81a618400000000000000000000000000000000000000000000000000000000060005260046000fd5b7fc514a45f0000000000000000000000000000000000000000000000000000000060005260046000fd5b611a7e565b7f8baa579f0000000000000000000000000000000000000000000000000000000060005260046000fd5b7f0819bdcd0000000000000000000000000000000000000000000000000000000060005260046000fd5b600080fd5b9181601f840112156106385782359167ffffffffffffffff8311610638576020838186019501011161063857565b907ffffffffffffffffffffffffffffffffffffffffffffffffffffffffffffffffc82016080811261063857606013610638576004916064359067ffffffffffffffff8211610638576106c09160040161063d565b9091565b34610638576106d23661066b565b91906040820135421161060e576020926106f26040516100a58682611983565b6105e457610701848401611aad565b60058110156105df576001036105b5576100f0610721926100e885611b44565b903590600a610759836000527f33ea8f700f9ca485fc65a69b25e04c222b4a03289fd0c98ba53848533a3e39a4602052604060002090565b01541561058b57600261079a60076101ab856000527f33ea8f700f9ca485fc65a69b25e04c222b4a03289fd0c98ba53848533a3e39a4602052604060002090565b6107a381611cb0565b03610abc576107fc6107e36001610372856000527f33ea8f700f9ca485fc65a69b25e04c222b4a03289fd0c98ba53848533a3e39a4602052604060002090565b73ffffffffffffffffffffffffffffffffffffffff1690565b73ffffffffffffffffffffffffffffffffffffffff8216908114159081610a79575b50610a4f577f4692713807ece016e4224a954ce29bf370e276b0cea611d553232c2f4d7b4fd9926108da61091f926108b16007610884876000527f33ea8f700f9ca485fc65a69b25e04c222b4a03289fd0c98ba53848533a3e39a4602052604060002090565b016103007fffffffffffffffffffffffffffffffffffffffffffffffffffffffffffff00ff825416179055565b6108b96119c9565b9285845283019073ffffffffffffffffffffffffffffffffffffffff169052565b6000604082015242606082015261091a836000527fdde41ee27df2f118255a2f19cab8c860a382d1448ec2327858e570d89818304c602052604060002090565b611cf6565b610952816000527fdde41ee27df2f118255a2f19cab8c860a382d1448ec2327858e570d89818304c602052604060002090565b5461033261098e6001610372856000527fdde41ee27df2f118255a2f19cab8c860a382d1448ec2327858e570d89818304c602052604060002090565b926109d260016109c7836000527fdde41ee27df2f118255a2f19cab8c860a382d1448ec2327858e570d89818304c602052604060002090565b015460a01c60ff1690565b906002610a40610a1060076101ab856000527f33ea8f700f9ca485fc65a69b25e04c222b4a03289fd0c98ba53848533a3e39a4602052604060002090565b926000527fdde41ee27df2f118255a2f19cab8c860a382d1448ec2327858e570d89818304c602052604060002090565b01549160405195869586611dcb565b7ff04747a90000000000000000000000000000000000000000000000000000000060005260046000fd5b9050610ab46107e36103fa856000527f33ea8f700f9ca485fc65a69b25e04c222b4a03289fd0c98ba53848533a3e39a4602052604060002090565b14153861081e565b7f4a306e1d0000000000000000000000000000000000000000000000000000000060005260046000fd5b3461063857610af43661066b565b6040830135421161060e57610b106040516100a5602082611983565b6105e457610b2060208401611aad565b60058110156105df576105b5576100f0610b3d926100e885611b44565b9035600a610b74826000527f33ea8f700f9ca485fc65a69b25e04c222b4a03289fd0c98ba53848533a3e39a4602052604060002090565b01541561058b57610bb360076101ab836000527f33ea8f700f9ca485fc65a69b25e04c222b4a03289fd0c98ba53848533a3e39a4602052604060002090565b610bbc81611cb0565b610dc757610bfb6107e36001610372846000527f33ea8f700f9ca485fc65a69b25e04c222b4a03289fd0c98ba53848533a3e39a4602052604060002090565b73ffffffffffffffffffffffffffffffffffffffff831603610d9d577fc1c3487325326ec0a3256c2248d978c3d4bd005ab1e5579108080de5291b1eba91610c9e6007610c71846000527f33ea8f700f9ca485fc65a69b25e04c222b4a03289fd0c98ba53848533a3e39a4602052604060002090565b016101007fffffffffffffffffffffffffffffffffffffffffffffffffffffffffffff00ff825416179055565b610cd66007610225846000527f33ea8f700f9ca485fc65a69b25e04c222b4a03289fd0c98ba53848533a3e39a4602052604060002090565b610cdf81611e16565b15610d1e575b5061032260076101ab836000527f33ea8f700f9ca485fc65a69b25e04c222b4a03289fd0c98ba53848533a3e39a4602052604060002090565b610d9790610d5a6004610372856000527f33ea8f700f9ca485fc65a69b25e04c222b4a03289fd0c98ba53848533a3e39a4602052604060002090565b6008610d8f856000527f33ea8f700f9ca485fc65a69b25e04c222b4a03289fd0c98ba53848533a3e39a4602052604060002090565b015490612f8b565b38610ce5565b7fd6307e440000000000000000000000000000000000000000000000000000000060005260046000fd5b7f602cf9ef0000000000000000000000000000000000000000000000000000000060005260046000fd5b3461063857610dff3661066b565b6040830135421161060e57610e1b6040516100a5602082611983565b6105e457610e2b60208401611aad565b60058110156105df576002036105b5576100f0610e4b926100e885611b44565b9035600a610e82826000527f33ea8f700f9ca485fc65a69b25e04c222b4a03289fd0c98ba53848533a3e39a4602052604060002090565b01541561058b576002610ec360076101ab846000527f33ea8f700f9ca485fc65a69b25e04c222b4a03289fd0c98ba53848533a3e39a4602052604060002090565b610ecc81611cb0565b03610abc57610f366007610f09836000527f33ea8f700f9ca485fc65a69b25e04c222b4a03289fd0c98ba53848533a3e39a4602052604060002090565b016104007fffffffffffffffffffffffffffffffffffffffffffffffffffffffffffff00ff825416179055565b6003610f78610f736001610372856000527f33ea8f700f9ca485fc65a69b25e04c222b4a03289fd0c98ba53848533a3e39a4602052604060002090565b6130cf565b01610f838154611e65565b905561104d611008610fc36004610372856000527f33ea8f700f9ca485fc65a69b25e04c222b4a03289fd0c98ba53848533a3e39a4602052604060002090565b73ffffffffffffffffffffffffffffffffffffffff166000527f33ea8f700f9ca485fc65a69b25e04c222b4a03289fd0c98ba53848533a3e39a2602052604060002090565b6110486008611040856000527f33ea8f700f9ca485fc65a69b25e04c222b4a03289fd0c98ba53848533a3e39a4602052604060002090565b015491611ea4565b61322a565b9161108e836008611087856000527f33ea8f700f9ca485fc65a69b25e04c222b4a03289fd0c98ba53848533a3e39a4602052604060002090565b0154611e97565b926110d860056110cf610fc36004610372886000527f33ea8f700f9ca485fc65a69b25e04c222b4a03289fd0c98ba53848533a3e39a4602052604060002090565b01918254611f56565b90556111126007610225846000527f33ea8f700f9ca485fc65a69b25e04c222b4a03289fd0c98ba53848533a3e39a4602052604060002090565b61111b81611e16565b1561131d575b600161115b6007610225856000527f33ea8f700f9ca485fc65a69b25e04c222b4a03289fd0c98ba53848533a3e39a4602052604060002090565b61116481611e16565b146111c4575b7fe523b938ed6306ade2fd18c2cde515e4921fb8868319befda9abaaf7662954408261032260076101ab836000527f33ea8f700f9ca485fc65a69b25e04c222b4a03289fd0c98ba53848533a3e39a4602052604060002090565b73ffffffffffffffffffffffffffffffffffffffff6112126107e36103fa856000527f33ea8f700f9ca485fc65a69b25e04c222b4a03289fd0c98ba53848533a3e39a4602052604060002090565b9116036112f3576112ed7fe523b938ed6306ade2fd18c2cde515e4921fb8868319befda9abaaf766295440926112766004610372856000527f33ea8f700f9ca485fc65a69b25e04c222b4a03289fd0c98ba53848533a3e39a4602052604060002090565b906112af6001610372866000527f33ea8f700f9ca485fc65a69b25e04c222b4a03289fd0c98ba53848533a3e39a4602052604060002090565b9060036112e5866000527f33ea8f700f9ca485fc65a69b25e04c222b4a03289fd0c98ba53848533a3e39a4602052604060002090565b01549261324f565b3861116a565b7f0614e1550000000000000000000000000000000000000000000000000000000060005260046000fd5b6113586107e36001610372856000527f33ea8f700f9ca485fc65a69b25e04c222b4a03289fd0c98ba53848533a3e39a4602052604060002090565b73ffffffffffffffffffffffffffffffffffffffff821603610d9d5761141b6113af6004610372856000527f33ea8f700f9ca485fc65a69b25e04c222b4a03289fd0c98ba53848533a3e39a4602052604060002090565b6113e56103fa856000527f33ea8f700f9ca485fc65a69b25e04c222b4a03289fd0c98ba53848533a3e39a4602052604060002090565b8560026112e5876000527f33ea8f700f9ca485fc65a69b25e04c222b4a03289fd0c98ba53848533a3e39a4602052604060002090565b611121565b34610638577ffffffffffffffffffffffffffffffffffffffffffffffffffffffffffffffffc36016101a081126106385761016013610638576101643567ffffffffffffffff81116106385761147a90369060040161063d565b6101843567ffffffffffffffff81116106385761149b90369060040161063d565b9161012435421161060e576114c66040516114b7602082611983565b600081526100b4368488611a39565b6105e4576114df6114e5916114d9612038565b95611a70565b84612acb565b73ffffffffffffffffffffffffffffffffffffffff80611503611aba565b921691160361159457611522611517611a24565b6100b4368585611a39565b1561154e575050610170906115386107e3611add565b33036115465760019061233e565b60009061233e565b6115619161155b91611a70565b82612acb565b73ffffffffffffffffffffffffffffffffffffffff8061157f611add565b9216911603611594576101709060019061233e565b7f815e1d640000000000000000000000000000000000000000000000000000000060005260046000fd5b34610638576115cc3661066b565b6040830135421161060e576115e86040516100a5602082611983565b6105e4576115f860208401611aad565b60058110156105df576001036105b5576100f0611618926100e885611b44565b903590600a611650836000527f33ea8f700f9ca485fc65a69b25e04c222b4a03289fd0c98ba53848533a3e39a4602052604060002090565b01541561058b5761168f6007610225846000527f33ea8f700f9ca485fc65a69b25e04c222b4a03289fd0c98ba53848533a3e39a4602052604060002090565b61169881611e16565b15611863575b60016116d86007610225856000527f33ea8f700f9ca485fc65a69b25e04c222b4a03289fd0c98ba53848533a3e39a4602052604060002090565b6116e181611e16565b1461176e575b7f3b3495bf7f9665729a9928a7d82900e2f4783a47a1f518d224308c26b3f92647826102ea6007611741836000527f33ea8f700f9ca485fc65a69b25e04c222b4a03289fd0c98ba53848533a3e39a4602052604060002090565b016102007fffffffffffffffffffffffffffffffffffffffffffffffffffffffffffff00ff825416179055565b6117a660076101ab846000527f33ea8f700f9ca485fc65a69b25e04c222b4a03289fd0c98ba53848533a3e39a4602052604060002090565b6117af81611cb0565b151580611818575b6105165773ffffffffffffffffffffffffffffffffffffffff61180b6107e36001610372866000527f33ea8f700f9ca485fc65a69b25e04c222b4a03289fd0c98ba53848533a3e39a4602052604060002090565b911603610d9d57386116e7565b50600161185360076101ab856000527f33ea8f700f9ca485fc65a69b25e04c222b4a03289fd0c98ba53848533a3e39a4602052604060002090565b61185c81611cb0565b14156117b7565b600161189d60076101ab856000527f33ea8f700f9ca485fc65a69b25e04c222b4a03289fd0c98ba53848533a3e39a4602052604060002090565b6118a681611cb0565b0361192a576118e46107e36103fa846000527f33ea8f700f9ca485fc65a69b25e04c222b4a03289fd0c98ba53848533a3e39a4602052604060002090565b73ffffffffffffffffffffffffffffffffffffffff82161461169e577f0614e1550000000000000000000000000000000000000000000000000000000060005260046000fd5b7f83d165310000000000000000000000000000000000000000000000000000000060005260046000fd5b7f4e487b7100000000000000000000000000000000000000000000000000000000600052604160045260246000fd5b90601f7fffffffffffffffffffffffffffffffffffffffffffffffffffffffffffffffe0910116810190811067ffffffffffffffff8211176119c457604052565b611954565b604051906119d8608083611983565b565b604051906119d861018083611983565b67ffffffffffffffff81116119c457601f017fffffffffffffffffffffffffffffffffffffffffffffffffffffffffffffffe01660200190565b60405190611a33602083611983565b60008252565b929192611a45826119ea565b91611a536040519384611983565b829481845281830111610638578281602093846000960137010152565b611a7b913691611a39565b90565b7f4e487b7100000000000000000000000000000000000000000000000000000000600052602160045260246000fd5b3560058110156106385790565b60043573ffffffffffffffffffffffffffffffffffffffff811681036106385790565b60243573ffffffffffffffffffffffffffffffffffffffff811681036106385790565b3573ffffffffffffffffffffffffffffffffffffffff811681036106385790565b805190825191828103611b3b576020809201209201201490565b50505050600090565b8035906040611b5560208301611aad565b9101356040519160208301937fd1964fa00810eddb58ddb5bfe19402b94983ad64661bfcc8d5c7e9da59b0e11c8552604084015260058110156105df576060830152608082015260808152611bab60a082611983565b519020611c7e611caa611c3b60a06040517f8b73c3c69bb8fe3d512ecc4cf759cc79239f7b179b0ffacaa9a75d522b39400f81527f03c29967dc1ec387c86cb32e2d942a047a54b4d2a64b4fea68f9345b7f8089da60208201527ff9446b8e937d86f0bc87cac73923491692b123ca5f8761908494703758206adf60408201524660608201523060808201522090565b9260405192839160208301958690916042927f19010000000000000000000000000000000000000000000000000000000000008352600283015260228201520190565b037fffffffffffffffffffffffffffffffffffffffffffffffffffffffffffffffe08101835282611983565b51902090565b600611156105df57565b9060068110156105df577fffffffffffffffffffffffffffffffffffffffffffffffffffffffffffff00ff61ff0083549260081b169116179055565b90805182556001820190611d5f73ffffffffffffffffffffffffffffffffffffffff602083015116839073ffffffffffffffffffffffffffffffffffffffff167fffffffffffffffffffffffff0000000000000000000000000000000000000000825416179055565b60408101519060038210156105df576002926060927fffffffffffffffffffffff00ffffffffffffffffffffffffffffffffffffffff74ff000000000000000000000000000000000000000083549260a01b1691161790550151910155565b9060068210156105df5752565b90815273ffffffffffffffffffffffffffffffffffffffff909116602082015260a081019493929160038110156105df57608092611e129160408401526060830190611dbe565b0152565b600211156105df57565b9081526040810192916119d89160200190611dbe565b7f4e487b7100000000000000000000000000000000000000000000000000000000600052601160045260246000fd5b907fffffffffffffffffffffffffffffffffffffffffffffffffffffffffffffffff8201918211611e9257565b611e36565b91908203918211611e9257565b9060405160e0810181811067ffffffffffffffff8211176119c45760405260c060068294611ed860ff825416859015159052565b6001810154602085015260028101546040850152611f2d611f10600383015473ffffffffffffffffffffffffffffffffffffffff1690565b73ffffffffffffffffffffffffffffffffffffffff166060860152565b60048101546080850152600581015460a08501520154910152565b9060018201809211611e9257565b91908201809211611e9257565b3560028110156106385790565b9060028210156105df5752565b98969492909b9a99979593916101808a019c7fbe72a4ba8a4616daa23d6306346d5930701dd2c68f00b529aa356cf7b5dc05b68b5273ffffffffffffffffffffffffffffffffffffffff1660208b015273ffffffffffffffffffffffffffffffffffffffff1660408a01526060890152608088015273ffffffffffffffffffffffffffffffffffffffff1660a087015260c086015260e0850152610100840161202591611f70565b6101208301526101408201526101600152565b6120426004611b00565b61204c6024611b00565b611bab60443591611c7e6064356120636084611b00565b60a43560c43561207360e4611f63565b906101043592610124359461014435966040519b8c9a60208c019e8f611f7d565b60028210156105df5752565b60068210156105df5752565b9060028110156105df5760ff7fffffffffffffffffffffffffffffffffffffffffffffffffffffffffffffff008354169116179055565b90610160600a9161214c61210b825173ffffffffffffffffffffffffffffffffffffffff1690565b859073ffffffffffffffffffffffffffffffffffffffff167fffffffffffffffffffffffff0000000000000000000000000000000000000000825416179055565b6121b4612170602083015173ffffffffffffffffffffffffffffffffffffffff1690565b600186019073ffffffffffffffffffffffffffffffffffffffff167fffffffffffffffffffffffff0000000000000000000000000000000000000000825416179055565b60408101516002850155606081015160038501556122306121ec608083015173ffffffffffffffffffffffffffffffffffffffff1690565b600486019073ffffffffffffffffffffffffffffffffffffffff167fffffffffffffffffffffffff0000000000000000000000000000000000000000825416179055565b60a0810151600585015560c081015160068501556122776007850161226260e084015161225c81611e16565b826120ac565b6101008301519061227282611cb0565b611cba565b610120810151600885015561014081015160098501550151910155565b9a98969492909d9c9b99979593916101a08c019e8c5273ffffffffffffffffffffffffffffffffffffffff1660208c015273ffffffffffffffffffffffffffffffffffffffff1660408b015260608a0152608089015273ffffffffffffffffffffffffffffffffffffffff1660a088015260c087015260e0860152610100850161231d91611f70565b610120840152610140830161233191611dbe565b6101608201526101800152565b61234b6107e36004611b00565b15612aa15761235d6107e36024611b00565b15612aa15761236f6107e36084611b00565b15612aa1576101043560018110612a775760443560018110612a4d576064359360018510612a4d57610124354211612a23576123aa81611cb0565b6001811491821580612a11575b6129e757600a6123f0866000527f33ea8f700f9ca485fc65a69b25e04c222b4a03289fd0c98ba53848533a3e39a4602052604060002090565b01546129bd57612414612410612409610fc36084611b00565b5460ff1690565b1590565b61299357610144357f33ea8f700f9ca485fc65a69b25e04c222b4a03289fd0c98ba53848533a3e39a65481108015612969575b61293f57600361245a610f736024611b00565b019182547f33ea8f700f9ca485fc65a69b25e04c222b4a03289fd0c98ba53848533a3e39a5541115612915577f40746c61461ad3025caece8817f27fd91abfd3f6390b7b20bbe41dde689217de976125706125ca936124b96004611b00565b936124c46024611b00565b9361255d6124d26084611b00565b60a4359260c435946125366124f16124ea60e4611f63565b9842611f56565b996125196124fd6119da565b73ffffffffffffffffffffffffffffffffffffffff909d168d52565b73ffffffffffffffffffffffffffffffffffffffff1660208c0152565b60408a0152606089015273ffffffffffffffffffffffffffffffffffffffff166080880152565b60a086015260c085015260e08401612094565b61257e8561010084016120a0565b86610120830152610140820152426101608201526125c5876000527f33ea8f700f9ca485fc65a69b25e04c222b4a03289fd0c98ba53848533a3e39a4602052604060002090565b6120e3565b6125d48154611f48565b90556125e060e4611f63565b6125e981611e16565b156128e3575b505060016125fd60e4611f63565b61260681611e16565b146128be575b506126436103fa826000527f33ea8f700f9ca485fc65a69b25e04c222b4a03289fd0c98ba53848533a3e39a4602052604060002090565b906128b961267f6001610372846000527f33ea8f700f9ca485fc65a69b25e04c222b4a03289fd0c98ba53848533a3e39a4602052604060002090565b60026126b4846000527f33ea8f700f9ca485fc65a69b25e04c222b4a03289fd0c98ba53848533a3e39a4602052604060002090565b015460036126eb856000527f33ea8f700f9ca485fc65a69b25e04c222b4a03289fd0c98ba53848533a3e39a4602052604060002090565b01546127256004610372876000527f33ea8f700f9ca485fc65a69b25e04c222b4a03289fd0c98ba53848533a3e39a4602052604060002090565b600561275a876000527f33ea8f700f9ca485fc65a69b25e04c222b4a03289fd0c98ba53848533a3e39a4602052604060002090565b01546006612791886000527f33ea8f700f9ca485fc65a69b25e04c222b4a03289fd0c98ba53848533a3e39a4602052604060002090565b01546127cb60076102258a6000527f33ea8f700f9ca485fc65a69b25e04c222b4a03289fd0c98ba53848533a3e39a4602052604060002090565b9160086128018a6000527f33ea8f700f9ca485fc65a69b25e04c222b4a03289fd0c98ba53848533a3e39a4602052604060002090565b01549361283c60076101ab8c6000527f33ea8f700f9ca485fc65a69b25e04c222b4a03289fd0c98ba53848533a3e39a4602052604060002090565b9560096128728c6000527f33ea8f700f9ca485fc65a69b25e04c222b4a03289fd0c98ba53848533a3e39a4602052604060002090565b015497600a6128aa8d6000527f33ea8f700f9ca485fc65a69b25e04c222b4a03289fd0c98ba53848533a3e39a4602052604060002090565b0154996040519d8e9d8e612294565b0390a1565b6128dd906128cc6084611b00565b906128d76004611b00565b91612f8b565b3861260c565b6128ec90611cb0565b6128f8575b38806125ef565b6129106129056084611b00565b826128d76024611b00565b6128f1565b7f69b974f20000000000000000000000000000000000000000000000000000000060005260046000fd5b7f761664010000000000000000000000000000000000000000000000000000000060005260046000fd5b507f33ea8f700f9ca485fc65a69b25e04c222b4a03289fd0c98ba53848533a3e39a7548111612447565b7f7be55e6c0000000000000000000000000000000000000000000000000000000060005260046000fd5b7fe59146300000000000000000000000000000000000000000000000000000000060005260046000fd5b7fdac5c1f60000000000000000000000000000000000000000000000000000000060005260046000fd5b50612a1b82611cb0565b8115156123b7565b7fc56873ba0000000000000000000000000000000000000000000000000000000060005260046000fd5b7f7a47c9a20000000000000000000000000000000000000000000000000000000060005260046000fd5b7f524f409b0000000000000000000000000000000000000000000000000000000060005260046000fd5b7fd92e233d0000000000000000000000000000000000000000000000000000000060005260046000fd5b906041815103612c0c576020810151916060604083015192015160001a907f7fffffffffffffffffffffffffffffff5d576e7357a4501ddfe92f46681b20a08311612be257601b82141580612bd7575b612bad57612b4e600093602095604051948594859094939260ff6060936080840197845216602083015260408201520152565b838052039060015afa15612ba85760005173ffffffffffffffffffffffffffffffffffffffff811615612b7e5790565b7f8fe7664e0000000000000000000000000000000000000000000000000000000060005260046000fd5b612f7f565b7facd54a900000000000000000000000000000000000000000000000000000000060005260046000fd5b50601c821415612b1b565b7fe4a61add0000000000000000000000000000000000000000000000000000000060005260046000fd5b7f4fc237b80000000000000000000000000000000000000000000000000000000060005260046000fd5b90612c6f6007610225846000527f33ea8f700f9ca485fc65a69b25e04c222b4a03289fd0c98ba53848533a3e39a4602052604060002090565b612c7881611e16565b15612e24575b6001612cb86007610225856000527f33ea8f700f9ca485fc65a69b25e04c222b4a03289fd0c98ba53848533a3e39a4602052604060002090565b612cc181611e16565b14612d6a575b5080612d2260076102bd7fe3bb8b6a10cd6f3d19108b8f000be77007825b16e073eb3a26cd8ccf3b6259a4946000527f33ea8f700f9ca485fc65a69b25e04c222b4a03289fd0c98ba53848533a3e39a4602052604060002090565b612d5a60076101ab836000527f33ea8f700f9ca485fc65a69b25e04c222b4a03289fd0c98ba53848533a3e39a4602052604060002090565b906128b960405192839283611e20565b73ffffffffffffffffffffffffffffffffffffffff612dba6107e36001610372866000527f33ea8f700f9ca485fc65a69b25e04c222b4a03289fd0c98ba53848533a3e39a4602052604060002090565b911603610d9d5780612e1e61038d60046103727fe3bb8b6a10cd6f3d19108b8f000be77007825b16e073eb3a26cd8ccf3b6259a4956000527f33ea8f700f9ca485fc65a69b25e04c222b4a03289fd0c98ba53848533a3e39a4602052604060002090565b90612cc7565b6001612e5e60076101ab856000527f33ea8f700f9ca485fc65a69b25e04c222b4a03289fd0c98ba53848533a3e39a4602052604060002090565b612e6781611cb0565b0361192a57612ea56107e36103fa846000527f33ea8f700f9ca485fc65a69b25e04c222b4a03289fd0c98ba53848533a3e39a4602052604060002090565b73ffffffffffffffffffffffffffffffffffffffff8216036112f357612f6b612efc6004610372856000527f33ea8f700f9ca485fc65a69b25e04c222b4a03289fd0c98ba53848533a3e39a4602052604060002090565b6008612f31856000527f33ea8f700f9ca485fc65a69b25e04c222b4a03289fd0c98ba53848533a3e39a4602052604060002090565b01546104146001610372876000527f33ea8f700f9ca485fc65a69b25e04c222b4a03289fd0c98ba53848533a3e39a4602052604060002090565b612c7e565b90816020910312610638575190565b6040513d6000823e3d90fd5b6040517f70a08231000000000000000000000000000000000000000000000000000000008152306004820152919273ffffffffffffffffffffffffffffffffffffffff9190911691602081602481865afa908115612ba85784906000926130ac575b50612ffb91923090856134ca565b6040517f70a0823100000000000000000000000000000000000000000000000000000000815230600482015291602090839060249082905afa8015612ba85761304c9260009161307d575b50611e97565b0361305357565b7fc7e8fc500000000000000000000000000000000000000000000000000000000060005260046000fd5b61309f915060203d6020116130a5575b6130978183611983565b810190612f70565b38613046565b503d61308d565b612ffb92506130c99060203d6020116130a5576130978183611983565b91612fed565b73ffffffffffffffffffffffffffffffffffffffff61312d8273ffffffffffffffffffffffffffffffffffffffff166000527f33ea8f700f9ca485fc65a69b25e04c222b4a03289fd0c98ba53848533a3e39a3602052604060002090565b5460081c1661317f57611a7b9073ffffffffffffffffffffffffffffffffffffffff166000527f33ea8f700f9ca485fc65a69b25e04c222b4a03289fd0c98ba53848533a3e39a3602052604060002090565b73ffffffffffffffffffffffffffffffffffffffff6131e0611a7b9273ffffffffffffffffffffffffffffffffffffffff166000527f33ea8f700f9ca485fc65a69b25e04c222b4a03289fd0c98ba53848533a3e39a3602052604060002090565b5460081c1673ffffffffffffffffffffffffffffffffffffffff166000527f33ea8f700f9ca485fc65a69b25e04c222b4a03289fd0c98ba53848533a3e39a3602052604060002090565b60800151808202828104821483151715611e92576127101161063857611a7b9161364e565b468403613260576119d893506133c7565b60009391926133548594611c7e6132ec73ffffffffffffffffffffffffffffffffffffffff60036132d08873ffffffffffffffffffffffffffffffffffffffff166000527f33ea8f700f9ca485fc65a69b25e04c222b4a03289fd0c98ba53848533a3e39a2602052604060002090565b01541673ffffffffffffffffffffffffffffffffffffffff1690565b9560405194859360208501977f7c1779dc000000000000000000000000000000000000000000000000000000008952602486019094939273ffffffffffffffffffffffffffffffffffffffff9060609382608085019816845260208401521660408201520152565b51915af4613360613536565b501561336857565b6040517f9becf85d00000000000000000000000000000000000000000000000000000000815260206004820152601760248201527f4c69625472616e736665722e5f62726964676553656e640000000000000000006044820152606490fd5b6040517f70a08231000000000000000000000000000000000000000000000000000000008152306004820152919273ffffffffffffffffffffffffffffffffffffffff9190911691602081602481865afa908115612ba85784906000926134a7575b50613435919284613566565b6040517f70a0823100000000000000000000000000000000000000000000000000000000815230600482015291602090839060249082905afa908115612ba85761304c926000926134865750611e97565b6134a091925060203d6020116130a5576130978183611983565b9038613046565b61343592506134c49060203d6020116130a5576130978183611983565b91613429565b90919273ffffffffffffffffffffffffffffffffffffffff6119d89481604051957f23b872dd000000000000000000000000000000000000000000000000000000006020880152166024860152166044840152606483015260648252613531608483611983565b6135c3565b3d15613561573d90613547826119ea565b916135556040519384611983565b82523d6000602084013e565b606090565b6119d89273ffffffffffffffffffffffffffffffffffffffff604051937fa9059cbb000000000000000000000000000000000000000000000000000000006020860152166024840152604483015260448252613531606483611983565b906000602091828151910182855af115612f7f576000513d613645575073ffffffffffffffffffffffffffffffffffffffff81163b155b6136015750565b73ffffffffffffffffffffffffffffffffffffffff907f5274afe7000000000000000000000000000000000000000000000000000000006000521660045260246000fd5b600114156135fa565b818102907fffffffffffffffffffffffffffffffffffffffffffffffffffffffffffffffff838209908280831092039180830392146136d2578161271011156136cb577fbc01a36e2eb1c432ca57a786c226809d495182a9930be0ded288ce703afb7e9193612710910990828211900360fc1b910360041c170290565b60116136dd565b506127109250500490565b634e487b716000526020526024601cfdfea26469706673582212201065aee1771dbf4b6d73a1c5bcf06eaec560e3f70557b45487120e2df4a12c4564736f6c634300081c0033",
  "linkReferences": {},
  "deployedLinkReferences": {}
}