{
  "_format": "hh-sol-artifact-1",
  "contractName": "DummySender",
  "sourceName": "contracts/tokens/cross_chain_senders/DummySender.sol",
  "abi": [
    {
      "inputs": [],
      "name": "ProtocolInvariantCheckFailed",
      "type": "error"
    },
    {
      "inputs": [
        {
          "internalType": "address",
          "name": "token",
          "type": "address"
        }
      ],
      "name": "SafeERC20FailedOperation",
      "type": "error"
    },
    {
      "inputs": [
        {
          "internalType": "address",
          "name": "_token",
          "type": "address"
        },
        {
          "internalType": "uint256",
          "name": "_amount",
          "type": "uint256"
        },
        {
          "internalType": "address",
          "name": "_to",
          "type": "address"
        },
        {
          "internalType": "uint256",
          "name": "",
          "type": "uint256"
        }
      ],
      "name": "send",
      "outputs": [],
      "stateMutability": "nonpayable",
      "type": "function"
    },
    {
      "inputs": [
        {
          "internalType": "address",
          "name": "",
          "type": "address"
        },
        {
          "internalType": "uint256",
          "name": "",
          "type": "uint256"
        }
      ],
      "name": "supportsChain",
      "outputs": [
        {
          "internalType": "bool",
          "name": "",
          "type": "bool"
        }
      ],
      "stateMutability": "pure",
      "type": "function"
    }
  ],
  "bytecode": "0x608080604052346015576103be908161001b8239f35b600080fdfe608080604052600436101561001357600080fd5b60003560e01c9081637c1779dc1461007d575063bdaa4e3b1461003557600080fd5b346100785760407ffffffffffffffffffffffffffffffffffffffffffffffffffffffffffffffffc3601126100785761006c6102f5565b50602060405160018152f35b600080fd5b346100785760807ffffffffffffffffffffffffffffffffffffffffffffffffffffffffffffffffc360112610078576100b46102f5565b90602435916044359073ffffffffffffffffffffffffffffffffffffffff82168092036100785773ffffffffffffffffffffffffffffffffffffffff16907f70a08231000000000000000000000000000000000000000000000000000000008352306004840152602083602481855afa92831561027b576000936102bd575b506000602091604051838101917fa9059cbb00000000000000000000000000000000000000000000000000000000835260248201528660448201526044815261017d606482610318565b519082855af11561027b576000513d6102b45750803b155b610287576020602491604051928380927f70a082310000000000000000000000000000000000000000000000000000000082523060048301525afa90811561027b57600091610249575b50810390811161021a57036101f057005b7fc7e8fc500000000000000000000000000000000000000000000000000000000060005260046000fd5b7f4e487b7100000000000000000000000000000000000000000000000000000000600052601160045260246000fd5b90506020813d602011610273575b8161026460209383610318565b810103126100785751836101df565b3d9150610257565b6040513d6000823e3d90fd5b7f5274afe70000000000000000000000000000000000000000000000000000000060005260045260246000fd5b60011415610195565b90926020823d6020116102ed575b816102d860209383610318565b810103126102ea575051916000610133565b80fd5b3d91506102cb565b6004359073ffffffffffffffffffffffffffffffffffffffff8216820361007857565b90601f7fffffffffffffffffffffffffffffffffffffffffffffffffffffffffffffffe0910116810190811067ffffffffffffffff82111761035957604052565b7f4e487b7100000000000000000000000000000000000000000000000000000000600052604160045260246000fdfea264697066735822122064a812b790f43e50a6516591734f9765dcf91fa3866e0fbc834579e717f7b0c264736f6c634300081c0033",
  "linkReferences": {},
  "deployedLinkReferences": {}
}