{
  "_format": "hh-sol-artifact-1",
  "contractName": "TokenMultiSend",
  "sourceName": "contracts/tokens/TokenMultiSend.sol",
  "abi": [
    {
      "inputs": [
        {
          "internalType": "address",
          "name": "token",
          "type": "address"
        }
      ],
      "name": "SafeERC20FailedOperation",
      "type": "error"
    },
    {
      "anonymous": false,
      "inputs": [
        {
          "indexed": false,
          "internalType": "address",
          "name": "distributor",
          "type": "address"
        },
        {
          "indexed": false,
          "internalType": "address",
          "name": "benefactor",
          "type": "address"
        },
        {
          "indexed": false,
          "internalType": "address",
          "name": "token",
          "type": "address"
        },
        {
          "indexed": false,
          "internalType": "uint256",
          "name": "amount",
          "type": "uint256"
        }
      ],
      "name": "Distributed",
      "type": "event"
    },
    {
      "inputs": [
        {
          "internalType": "address[]",
          "name": "_tokens",
          "type": "address[]"
        },
        {
          "internalType": "uint256",
          "name": "_val",
          "type": "uint256"
        },
        {
          "internalType": "address",
          "name": "_to",
          "type": "address"
        }
      ],
      "name": "send",
      "outputs": [],
      "stateMutability": "nonpayable",
      "type": "function"
    }
  ],
  "bytecode": "0x6080806040523460155761030e908161001b8239f35b600080fdfe6080604052600436101561001257600080fd5b60003560e01c632431adcc1461002757600080fd5b346102735760607ffffffffffffffffffffffffffffffffffffffffffffffffffffffffffffffffc3601126102735760043567ffffffffffffffff811161027357366023820112156102735780600401359067ffffffffffffffff8211610273576024810190602436918460051b010111610273576024356044359273ffffffffffffffffffffffffffffffffffffffff84168094036102735760005b8181106100cd57005b73ffffffffffffffffffffffffffffffffffffffff6100f56100f0838588610278565b6102b7565b166101046100f0838588610278565b6040519073ffffffffffffffffffffffffffffffffffffffff60208301917f23b872dd0000000000000000000000000000000000000000000000000000000083523360248501521660448301528560648301526064825260a082019082821067ffffffffffffffff83111761024457602092600092604052519082855af115610238576000513d61022f5750803b155b6102025750807f767a76cf38548696c4899acb67e2015902d6f0a05e029d5947b41a143b88a8ed60806101cd6100f0600195878a610278565b73ffffffffffffffffffffffffffffffffffffffff604051913383528a6020840152166040820152866060820152a1016100c4565b7f5274afe70000000000000000000000000000000000000000000000000000000060005260045260246000fd5b60011415610194565b6040513d6000823e3d90fd5b7f4e487b7100000000000000000000000000000000000000000000000000000000600052604160045260246000fd5b600080fd5b91908110156102885760051b0190565b7f4e487b7100000000000000000000000000000000000000000000000000000000600052603260045260246000fd5b3573ffffffffffffffffffffffffffffffffffffffff81168103610273579056fea2646970667358221220fff23f39ca46a27fcd1dc626065218483554006a079cb17239a4c2f4a9a4217a64736f6c634300081c0033",
  "linkReferences": {},
  "deployedLinkReferences": {}
}