{
  "_format": "hh-sol-artifact-1",
  "contractName": "OrderSig",
  "sourceName": "contracts/modules/OrderSig.sol",
  "abi": [
    {
      "inputs": [],
      "name": "AppealExists",
      "type": "error"
    },
    {
      "inputs": [
        {
          "internalType": "string",
          "name": "_functionName",
          "type": "string"
        }
      ],
      "name": "DelegateCallFailed",
      "type": "error"
    },
    {
      "inputs": [],
      "name": "ECDSA__InvalidS",
      "type": "error"
    },
    {
      "inputs": [],
      "name": "ECDSA__InvalidSignature",
      "type": "error"
    },
    {
      "inputs": [],
      "name": "ECDSA__InvalidSignatureLength",
      "type": "error"
    },
    {
      "inputs": [],
      "name": "ECDSA__InvalidV",
      "type": "error"
    },
    {
      "inputs": [],
      "name": "InvalidChainId",
      "type": "error"
    },
    {
      "inputs": [],
      "name": "InvalidDuration",
      "type": "error"
    },
    {
      "inputs": [],
      "name": "InvalidOrderCreateState",
      "type": "error"
    },
    {
      "inputs": [],
      "name": "InvalidOrderMethodCall",
      "type": "error"
    },
    {
      "inputs": [],
      "name": "InvalidQuantity",
      "type": "error"
    },
    {
      "inputs": [],
      "name": "InvalidSignature",
      "type": "error"
    },
    {
      "inputs": [],
      "name": "InvalidSigner",
      "type": "error"
    },
    {
      "inputs": [],
      "name": "InvalidTradeToken",
      "type": "error"
    },
    {
      "inputs": [],
      "name": "MustBeAppealer",
      "type": "error"
    },
    {
      "inputs": [],
      "name": "MustBeMerchant",
      "type": "error"
    },
    {
      "inputs": [],
      "name": "MustBeMerchantOrTrader",
      "type": "error"
    },
    {
      "inputs": [],
      "name": "MustBeTrader",
      "type": "error"
    },
    {
      "inputs": [],
      "name": "OrderAcceptedRequired",
      "type": "error"
    },
    {
      "inputs": [],
      "name": "OrderAppealedRequired",
      "type": "error"
    },
    {
      "inputs": [],
      "name": "OrderDoesNotExists",
      "type": "error"
    },
    {
      "inputs": [],
      "name": "OrderExists",
      "type": "error"
    },
    {
      "inputs": [],
      "name": "OrderExpired",
      "type": "error"
    },
    {
      "inputs": [],
      "name": "OrderPaidRequired",
      "type": "error"
    },
    {
      "inputs": [],
      "name": "OrderPendingOrAcceptedRequired",
      "type": "error"
    },
    {
      "inputs": [],
      "name": "OrderPendingRequired",
      "type": "error"
    },
    {
      "inputs": [],
      "name": "ProtocolInvariantCheckFailed",
      "type": "error"
    },
    {
      "inputs": [
        {
          "internalType": "address",
          "name": "token",
          "type": "address"
        }
      ],
      "name": "SafeERC20FailedOperation",
      "type": "error"
    },
    {
      "inputs": [],
      "name": "SignatureExpired",
      "type": "error"
    },
    {
      "inputs": [],
      "name": "ZeroAddress",
      "type": "error"
    },
    {
      "anonymous": false,
      "inputs": [
        {
          "indexed": false,
          "internalType": "bytes32",
          "name": "orderHash",
          "type": "bytes32"
        },
        {
          "indexed": false,
          "internalType": "address",
          "name": "appealer",
          "type": "address"
        },
        {
          "indexed": false,
          "internalType": "enum IAppeal.AppealDecision",
          "name": "appealDecision",
          "type": "uint8"
        },
        {
          "indexed": false,
          "internalType": "enum OrderState",
          "name": "orderState",
          "type": "uint8"
        },
        {
          "indexed": false,
          "internalType": "uint256",
          "name": "cancelledAt",
          "type": "uint256"
        }
      ],
      "name": "AppealCancelled",
      "type": "event"
    },
    {
      "anonymous": false,
      "inputs": [
        {
          "indexed": false,
          "internalType": "bytes32",
          "name": "orderHash",
          "type": "bytes32"
        },
        {
          "indexed": false,
          "internalType": "address",
          "name": "trader",
          "type": "address"
        },
        {
          "indexed": false,
          "internalType": "address",
          "name": "merchant",
          "type": "address"
        },
        {
          "indexed": false,
          "internalType": "uint256",
          "name": "traderChain",
          "type": "uint256"
        },
        {
          "indexed": false,
          "internalType": "uint256",
          "name": "merchantChain",
          "type": "uint256"
        },
        {
          "indexed": false,
          "internalType": "address",
          "name": "token",
          "type": "address"
        },
        {
          "indexed": false,
          "internalType": "bytes32",
          "name": "currency",
          "type": "bytes32"
        },
        {
          "indexed": false,
          "internalType": "bytes32",
          "name": "paymentMethod",
          "type": "bytes32"
        },
        {
          "indexed": false,
          "internalType": "enum OrderType",
          "name": "orderType",
          "type": "uint8"
        },
        {
          "indexed": false,
          "internalType": "uint256",
          "name": "quantity",
          "type": "uint256"
        },
        {
          "indexed": false,
          "internalType": "enum OrderState",
          "name": "orderState",
          "type": "uint8"
        },
        {
          "indexed": false,
          "internalType": "uint256",
          "name": "deadline",
          "type": "uint256"
        },
        {
          "indexed": false,
          "internalType": "uint256",
          "name": "createdAt",
          "type": "uint256"
        }
      ],
      "name": "NewOrder",
      "type": "event"
    },
    {
      "anonymous": false,
      "inputs": [
        {
          "indexed": false,
          "internalType": "bytes32",
          "name": "orderHash",
          "type": "bytes32"
        },
        {
          "indexed": false,
          "internalType": "enum OrderState",
          "name": "status",
          "type": "uint8"
        }
      ],
      "name": "OrderAccepted",
      "type": "event"
    },
    {
      "anonymous": false,
      "inputs": [
        {
          "indexed": false,
          "internalType": "bytes32",
          "name": "orderHash",
          "type": "bytes32"
        },
        {
          "indexed": false,
          "internalType": "address",
          "name": "appealer",
          "type": "address"
        },
        {
          "indexed": false,
          "internalType": "enum IAppeal.AppealDecision",
          "name": "appealDecision",
          "type": "uint8"
        },
        {
          "indexed": false,
          "internalType": "enum OrderState",
          "name": "orderState",
          "type": "uint8"
        },
        {
          "indexed": false,
          "internalType": "uint256",
          "name": "createdAt",
          "type": "uint256"
        }
      ],
      "name": "OrderAppealed",
      "type": "event"
    },
    {
      "anonymous": false,
      "inputs": [
        {
          "indexed": false,
          "internalType": "bytes32",
          "name": "orderHash",
          "type": "bytes32"
        },
        {
          "indexed": false,
          "internalType": "enum OrderState",
          "name": "status",
          "type": "uint8"
        }
      ],
      "name": "OrderCancelled",
      "type": "event"
    },
    {
      "anonymous": false,
      "inputs": [
        {
          "indexed": false,
          "internalType": "bytes32",
          "name": "orderHash",
          "type": "bytes32"
        },
        {
          "indexed": false,
          "internalType": "enum OrderState",
          "name": "status",
          "type": "uint8"
        }
      ],
      "name": "OrderPaid",
      "type": "event"
    },
    {
      "anonymous": false,
      "inputs": [
        {
          "indexed": false,
          "internalType": "bytes32",
          "name": "orderHash",
          "type": "bytes32"
        },
        {
          "indexed": false,
          "internalType": "enum OrderState",
          "name": "status",
          "type": "uint8"
        }
      ],
      "name": "OrderReleased",
      "type": "event"
    },
    {
      "inputs": [
        {
          "components": [
            {
              "internalType": "bytes32",
              "name": "orderHash",
              "type": "bytes32"
            },
            {
              "internalType": "enum IOrderSig.OrderMethod",
              "name": "method",
              "type": "uint8"
            },
            {
              "internalType": "uint256",
              "name": "expiry",
              "type": "uint256"
            }
          ],
          "internalType": "struct IOrderSig.OrderMethodPayload",
          "name": "_method",
          "type": "tuple"
        },
        {
          "internalType": "bytes",
          "name": "_sig",
          "type": "bytes"
        }
      ],
      "name": "acceptOrder",
      "outputs": [],
      "stateMutability": "nonpayable",
      "type": "function"
    },
    {
      "inputs": [
        {
          "components": [
            {
              "internalType": "bytes32",
              "name": "orderHash",
              "type": "bytes32"
            },
            {
              "internalType": "enum IOrderSig.OrderMethod",
              "name": "method",
              "type": "uint8"
            },
            {
              "internalType": "uint256",
              "name": "expiry",
              "type": "uint256"
            }
          ],
          "internalType": "struct IOrderSig.OrderMethodPayload",
          "name": "_method",
          "type": "tuple"
        },
        {
          "internalType": "bytes",
          "name": "_sig",
          "type": "bytes"
        }
      ],
      "name": "appealOrder",
      "outputs": [],
      "stateMutability": "nonpayable",
      "type": "function"
    },
    {
      "inputs": [
        {
          "components": [
            {
              "internalType": "bytes32",
              "name": "orderHash",
              "type": "bytes32"
            },
            {
              "internalType": "enum IOrderSig.OrderMethod",
              "name": "method",
              "type": "uint8"
            },
            {
              "internalType": "uint256",
              "name": "expiry",
              "type": "uint256"
            }
          ],
          "internalType": "struct IOrderSig.OrderMethodPayload",
          "name": "_method",
          "type": "tuple"
        },
        {
          "internalType": "bytes",
          "name": "_sig",
          "type": "bytes"
        }
      ],
      "name": "cancelAppeal",
      "outputs": [],
      "stateMutability": "nonpayable",
      "type": "function"
    },
    {
      "inputs": [
        {
          "components": [
            {
              "internalType": "bytes32",
              "name": "orderHash",
              "type": "bytes32"
            },
            {
              "internalType": "enum IOrderSig.OrderMethod",
              "name": "method",
              "type": "uint8"
            },
            {
              "internalType": "uint256",
              "name": "expiry",
              "type": "uint256"
            }
          ],
          "internalType": "struct IOrderSig.OrderMethodPayload",
          "name": "_method",
          "type": "tuple"
        },
        {
          "internalType": "bytes",
          "name": "_sig",
          "type": "bytes"
        }
      ],
      "name": "cancelOrder",
      "outputs": [],
      "stateMutability": "nonpayable",
      "type": "function"
    },
    {
      "inputs": [
        {
          "components": [
            {
              "internalType": "address",
              "name": "trader",
              "type": "address"
            },
            {
              "internalType": "address",
              "name": "merchant",
              "type": "address"
            },
            {
              "internalType": "uint256",
              "name": "traderChain",
              "type": "uint256"
            },
            {
              "internalType": "uint256",
              "name": "merchantChain",
              "type": "uint256"
            },
            {
              "internalType": "address",
              "name": "token",
              "type": "address"
            },
            {
              "internalType": "bytes32",
              "name": "currency",
              "type": "bytes32"
            },
            {
              "internalType": "bytes32",
              "name": "paymentMethod",
              "type": "bytes32"
            },
            {
              "internalType": "enum OrderType",
              "name": "orderType",
              "type": "uint8"
            },
            {
              "internalType": "uint256",
              "name": "quantity",
              "type": "uint256"
            },
            {
              "internalType": "uint256",
              "name": "expiry",
              "type": "uint256"
            },
            {
              "internalType": "uint256",
              "name": "duration",
              "type": "uint256"
            }
          ],
          "internalType": "struct IOrder.CreateOrder",
          "name": "_order",
          "type": "tuple"
        },
        {
          "internalType": "bytes",
          "name": "_traderSig",
          "type": "bytes"
        },
        {
          "internalType": "bytes",
          "name": "_merchantSig",
          "type": "bytes"
        }
      ],
      "name": "createOrder",
      "outputs": [],
      "stateMutability": "nonpayable",
      "type": "function"
    },
    {
      "inputs": [
        {
          "components": [
            {
              "internalType": "bytes32",
              "name": "orderHash",
              "type": "bytes32"
            },
            {
              "internalType": "enum IOrderSig.OrderMethod",
              "name": "method",
              "type": "uint8"
            },
            {
              "internalType": "uint256",
              "name": "expiry",
              "type": "uint256"
            }
          ],
          "internalType": "struct IOrderSig.OrderMethodPayload",
          "name": "_method",
          "type": "tuple"
        },
        {
          "internalType": "bytes",
          "name": "_sig",
          "type": "bytes"
        }
      ],
      "name": "payOrder",
      "outputs": [],
      "stateMutability": "nonpayable",
      "type": "function"
    },
    {
      "inputs": [
        {
          "components": [
            {
              "internalType": "bytes32",
              "name": "orderHash",
              "type": "bytes32"
            },
            {
              "internalType": "enum IOrderSig.OrderMethod",
              "name": "method",
              "type": "uint8"
            },
            {
              "internalType": "uint256",
              "name": "expiry",
              "type": "uint256"
            }
          ],
          "internalType": "struct IOrderSig.OrderMethodPayload",
          "name": "_method",
          "type": "tuple"
        },
        {
          "internalType": "bytes",
          "name": "_sig",
          "type": "bytes"
        }
      ],
      "name": "releaseOrder",
      "outputs": [],
      "stateMutability": "nonpayable",
      "type": "function"
    }
  ],
  "bytecode": "0x60808060405234601557613840908161001b8239f35b600080fdfe6080604052600436101561001257600080fd5b60003560e01c806307b587c714610087578063189df3a01461008257806352abcbf91461007d57806370a18b1a146100785780637cbd072914610073578063ccddd5151461006e5763e103e38d1461006957600080fd5b61192a565b61178c565b6111ac565b610ea1565b610b70565b6106d4565b34610648576100953661067b565b91906040820135421161061e576020926100c96040516100b58682611cc2565b600081526100c4368486611d78565b611e60565b6105f4576100d8848401611dec565b60078110156105ef576003036105c557610100610106926100f885611e83565b923691611d78565b90612d5a565b903591826000527f33ea8f700f9ca485fc65a69b25e04c222b4a03289fd0c98ba53848533a3e39a08152600a604060002001541561059b577f33ea8f700f9ca485fc65a69b25e04c222b4a03289fd0c98ba53848533a3e39a090836000525242600960406000200154116000146101825761018091612ec5565b005b506101c660076101bb836000527f33ea8f700f9ca485fc65a69b25e04c222b4a03289fd0c98ba53848533a3e39a0602052604060002090565b015460081c60ff1690565b6101cf81611fef565b151580610550575b610526578061023d60076102357fe3bb8b6a10cd6f3d19108b8f000be77007825b16e073eb3a26cd8ccf3b6259a4946000527f33ea8f700f9ca485fc65a69b25e04c222b4a03289fd0c98ba53848533a3e39a0602052604060002090565b015460ff1690565b610246816121da565b1561042f575b60016102866007610235846000527f33ea8f700f9ca485fc65a69b25e04c222b4a03289fd0c98ba53848533a3e39a0602052604060002090565b61028f816121da565b14610347575b6102fa60076102cd836000527f33ea8f700f9ca485fc65a69b25e04c222b4a03289fd0c98ba53848533a3e39a0602052604060002090565b016105007fffffffffffffffffffffffffffffffffffffffffffffffffffffffffffff00ff825416179055565b61033260076101bb836000527f33ea8f700f9ca485fc65a69b25e04c222b4a03289fd0c98ba53848533a3e39a0602052604060002090565b90610342604051928392836121e4565b0390a1005b61042a61039d6004610382846000527f33ea8f700f9ca485fc65a69b25e04c222b4a03289fd0c98ba53848533a3e39a0602052604060002090565b015473ffffffffffffffffffffffffffffffffffffffff1690565b60086103d2846000527f33ea8f700f9ca485fc65a69b25e04c222b4a03289fd0c98ba53848533a3e39a0602052604060002090565b015461042461040a856000527f33ea8f700f9ca485fc65a69b25e04c222b4a03289fd0c98ba53848533a3e39a0602052604060002090565b5473ffffffffffffffffffffffffffffffffffffffff1690565b916134e3565b610295565b600161046960076101bb846000527f33ea8f700f9ca485fc65a69b25e04c222b4a03289fd0c98ba53848533a3e39a0602052604060002090565b61047281611fef565b0361024c576105216104b26004610382846000527f33ea8f700f9ca485fc65a69b25e04c222b4a03289fd0c98ba53848533a3e39a0602052604060002090565b60086104e7846000527f33ea8f700f9ca485fc65a69b25e04c222b4a03289fd0c98ba53848533a3e39a0602052604060002090565b01546104246001610382866000527f33ea8f700f9ca485fc65a69b25e04c222b4a03289fd0c98ba53848533a3e39a0602052604060002090565b61024c565b7f317dd5870000000000000000000000000000000000000000000000000000000060005260046000fd5b50600161058b60076101bb846000527f33ea8f700f9ca485fc65a69b25e04c222b4a03289fd0c98ba53848533a3e39a0602052604060002090565b61059481611fef565b14156101d7565b7f81a618400000000000000000000000000000000000000000000000000000000060005260046000fd5b7fc514a45f0000000000000000000000000000000000000000000000000000000060005260046000fd5b611dbd565b7f8baa579f0000000000000000000000000000000000000000000000000000000060005260046000fd5b7f0819bdcd0000000000000000000000000000000000000000000000000000000060005260046000fd5b600080fd5b9181601f840112156106485782359167ffffffffffffffff8311610648576020838186019501011161064857565b907ffffffffffffffffffffffffffffffffffffffffffffffffffffffffffffffffc82016080811261064857606013610648576004916064359067ffffffffffffffff8211610648576106d09160040161064d565b9091565b34610648576106e23661067b565b91906040820135421161061e576020926107026040516100b58682611cc2565b6105f457610711848401611dec565b60078110156105ef576004036105c557610100610731926100f885611e83565b903590600a610769836000527f33ea8f700f9ca485fc65a69b25e04c222b4a03289fd0c98ba53848533a3e39a0602052604060002090565b01541561059b5760026107a5836000527fdde41ee27df2f118255a2f19cab8c860a382d1448ec2327858e570d89818304c602052604060002090565b0154610b465760026107e560076101bb856000527f33ea8f700f9ca485fc65a69b25e04c222b4a03289fd0c98ba53848533a3e39a0602052604060002090565b6107ee81611fef565b03610b1c5761084761082e6001610382856000527f33ea8f700f9ca485fc65a69b25e04c222b4a03289fd0c98ba53848533a3e39a0602052604060002090565b73ffffffffffffffffffffffffffffffffffffffff1690565b73ffffffffffffffffffffffffffffffffffffffff8216908114159081610ad9575b50610aaf577f4692713807ece016e4224a954ce29bf370e276b0cea611d553232c2f4d7b4fd99261092561097f926108fc60076108cf876000527f33ea8f700f9ca485fc65a69b25e04c222b4a03289fd0c98ba53848533a3e39a0602052604060002090565b016103007fffffffffffffffffffffffffffffffffffffffffffffffffffffffffffff00ff825416179055565b610904611d08565b9285845283019073ffffffffffffffffffffffffffffffffffffffff169052565b6000604082015242606082015260006080820152600060a0820152600060c082015261097a836000527fdde41ee27df2f118255a2f19cab8c860a382d1448ec2327858e570d89818304c602052604060002090565b612035565b6109b2816000527fdde41ee27df2f118255a2f19cab8c860a382d1448ec2327858e570d89818304c602052604060002090565b546103426109ee6001610382856000527fdde41ee27df2f118255a2f19cab8c860a382d1448ec2327858e570d89818304c602052604060002090565b92610a326001610a27836000527fdde41ee27df2f118255a2f19cab8c860a382d1448ec2327858e570d89818304c602052604060002090565b015460a01c60ff1690565b906002610aa0610a7060076101bb856000527f33ea8f700f9ca485fc65a69b25e04c222b4a03289fd0c98ba53848533a3e39a0602052604060002090565b926000527fdde41ee27df2f118255a2f19cab8c860a382d1448ec2327858e570d89818304c602052604060002090565b0154916040519586958661218f565b7ff04747a90000000000000000000000000000000000000000000000000000000060005260046000fd5b9050610b1461082e61040a856000527f33ea8f700f9ca485fc65a69b25e04c222b4a03289fd0c98ba53848533a3e39a0602052604060002090565b141538610869565b7f4a306e1d0000000000000000000000000000000000000000000000000000000060005260046000fd5b7f153bcd450000000000000000000000000000000000000000000000000000000060005260046000fd5b3461064857610b7e3661067b565b6040830135421161061e57610b9a6040516100b5602082611cc2565b6105f457610baa60208401611dec565b60078110156105ef576005036105c557610100610bca926100f885611e83565b903590600a610c02836000527f33ea8f700f9ca485fc65a69b25e04c222b4a03289fd0c98ba53848533a3e39a0602052604060002090565b01541561059b576003610c4360076101bb856000527f33ea8f700f9ca485fc65a69b25e04c222b4a03289fd0c98ba53848533a3e39a0602052604060002090565b610c4c81611fef565b03610e775773ffffffffffffffffffffffffffffffffffffffff80610c9f6001610382866000527fdde41ee27df2f118255a2f19cab8c860a382d1448ec2327858e570d89818304c602052604060002090565b9216911603610e4d5780610d2f6007610d027f845f9d50336d0b9f5c52454923ab5f2a8155d1aa9b48b9f3483c1f87ac3cbad4946000527f33ea8f700f9ca485fc65a69b25e04c222b4a03289fd0c98ba53848533a3e39a0602052604060002090565b016102007fffffffffffffffffffffffffffffffffffffffffffffffffffffffffffff00ff825416179055565b426003610d65836000527fdde41ee27df2f118255a2f19cab8c860a382d1448ec2327858e570d89818304c602052604060002090565b0155610d9a816000527fdde41ee27df2f118255a2f19cab8c860a382d1448ec2327858e570d89818304c602052604060002090565b54610342610dd66001610382856000527fdde41ee27df2f118255a2f19cab8c860a382d1448ec2327858e570d89818304c602052604060002090565b92610e0f6001610a27836000527fdde41ee27df2f118255a2f19cab8c860a382d1448ec2327858e570d89818304c602052604060002090565b906003610aa0610a7060076101bb856000527f33ea8f700f9ca485fc65a69b25e04c222b4a03289fd0c98ba53848533a3e39a0602052604060002090565b7f84588d9d0000000000000000000000000000000000000000000000000000000060005260046000fd5b7f4198c1b30000000000000000000000000000000000000000000000000000000060005260046000fd5b3461064857610eaf3661067b565b6040830135421161061e57610ecb6040516100b5602082611cc2565b6105f457610edb60208401611dec565b60078110156105ef576105c557610100610ef8926100f885611e83565b9035600a610f2f826000527f33ea8f700f9ca485fc65a69b25e04c222b4a03289fd0c98ba53848533a3e39a0602052604060002090565b01541561059b57610f6e60076101bb836000527f33ea8f700f9ca485fc65a69b25e04c222b4a03289fd0c98ba53848533a3e39a0602052604060002090565b610f7781611fef565b61118257610fb661082e6001610382846000527f33ea8f700f9ca485fc65a69b25e04c222b4a03289fd0c98ba53848533a3e39a0602052604060002090565b73ffffffffffffffffffffffffffffffffffffffff831603611158577fc1c3487325326ec0a3256c2248d978c3d4bd005ab1e5579108080de5291b1eba91611059600761102c846000527f33ea8f700f9ca485fc65a69b25e04c222b4a03289fd0c98ba53848533a3e39a0602052604060002090565b016101007fffffffffffffffffffffffffffffffffffffffffffffffffffffffffffff00ff825416179055565b6110916007610235846000527f33ea8f700f9ca485fc65a69b25e04c222b4a03289fd0c98ba53848533a3e39a0602052604060002090565b61109a816121da565b156110d9575b5061033260076101bb836000527f33ea8f700f9ca485fc65a69b25e04c222b4a03289fd0c98ba53848533a3e39a0602052604060002090565b611152906111156004610382856000527f33ea8f700f9ca485fc65a69b25e04c222b4a03289fd0c98ba53848533a3e39a0602052604060002090565b600861114a856000527f33ea8f700f9ca485fc65a69b25e04c222b4a03289fd0c98ba53848533a3e39a0602052604060002090565b01549061321a565b386110a0565b7fd6307e440000000000000000000000000000000000000000000000000000000060005260046000fd5b7f602cf9ef0000000000000000000000000000000000000000000000000000000060005260046000fd5b34610648576111ba3661067b565b6040830135421161061e576111d66040516100b5602082611cc2565b6105f4576111e660208401611dec565b60078110156105ef576002036105c557610100611206926100f885611e83565b9035600a61123d826000527f33ea8f700f9ca485fc65a69b25e04c222b4a03289fd0c98ba53848533a3e39a0602052604060002090565b01541561059b57600261127e60076101bb846000527f33ea8f700f9ca485fc65a69b25e04c222b4a03289fd0c98ba53848533a3e39a0602052604060002090565b61128781611fef565b03610b1c576112f160076112c4836000527f33ea8f700f9ca485fc65a69b25e04c222b4a03289fd0c98ba53848533a3e39a0602052604060002090565b016104007fffffffffffffffffffffffffffffffffffffffffffffffffffffffffffff00ff825416179055565b6113b961137461132f6004610382856000527f33ea8f700f9ca485fc65a69b25e04c222b4a03289fd0c98ba53848533a3e39a0602052604060002090565b73ffffffffffffffffffffffffffffffffffffffff166000527f33ea8f700f9ca485fc65a69b25e04c222b4a03289fd0c98ba53848533a3e399f602052604060002090565b6113b460086113ac856000527f33ea8f700f9ca485fc65a69b25e04c222b4a03289fd0c98ba53848533a3e39a0602052604060002090565b0154916121fa565b61335e565b916113fa8360086113f3856000527f33ea8f700f9ca485fc65a69b25e04c222b4a03289fd0c98ba53848533a3e39a0602052604060002090565b0154612287565b92611444600161143b61132f6004610382886000527f33ea8f700f9ca485fc65a69b25e04c222b4a03289fd0c98ba53848533a3e39a0602052604060002090565b01918254612299565b905561147e6007610235846000527f33ea8f700f9ca485fc65a69b25e04c222b4a03289fd0c98ba53848533a3e39a0602052604060002090565b611487816121da565b15611689575b60016114c76007610235856000527f33ea8f700f9ca485fc65a69b25e04c222b4a03289fd0c98ba53848533a3e39a0602052604060002090565b6114d0816121da565b14611530575b7fe523b938ed6306ade2fd18c2cde515e4921fb8868319befda9abaaf7662954408261033260076101bb836000527f33ea8f700f9ca485fc65a69b25e04c222b4a03289fd0c98ba53848533a3e39a0602052604060002090565b73ffffffffffffffffffffffffffffffffffffffff61157e61082e61040a856000527f33ea8f700f9ca485fc65a69b25e04c222b4a03289fd0c98ba53848533a3e39a0602052604060002090565b91160361165f576116597fe523b938ed6306ade2fd18c2cde515e4921fb8868319befda9abaaf766295440926115e26004610382856000527f33ea8f700f9ca485fc65a69b25e04c222b4a03289fd0c98ba53848533a3e39a0602052604060002090565b9061161b6001610382866000527f33ea8f700f9ca485fc65a69b25e04c222b4a03289fd0c98ba53848533a3e39a0602052604060002090565b906003611651866000527f33ea8f700f9ca485fc65a69b25e04c222b4a03289fd0c98ba53848533a3e39a0602052604060002090565b015492613383565b386114d6565b7f0614e1550000000000000000000000000000000000000000000000000000000060005260046000fd5b6116c461082e6001610382856000527f33ea8f700f9ca485fc65a69b25e04c222b4a03289fd0c98ba53848533a3e39a0602052604060002090565b73ffffffffffffffffffffffffffffffffffffffff8216036111585761178761171b6004610382856000527f33ea8f700f9ca485fc65a69b25e04c222b4a03289fd0c98ba53848533a3e39a0602052604060002090565b61175161040a856000527f33ea8f700f9ca485fc65a69b25e04c222b4a03289fd0c98ba53848533a3e39a0602052604060002090565b856002611651876000527f33ea8f700f9ca485fc65a69b25e04c222b4a03289fd0c98ba53848533a3e39a0602052604060002090565b61148d565b34610648577ffffffffffffffffffffffffffffffffffffffffffffffffffffffffffffffffc36016101a081126106485761016013610648576101643567ffffffffffffffff8111610648576117e690369060040161064d565b6101843567ffffffffffffffff81116106485761180790369060040161064d565b9161012435421161061e57611832604051611823602082611cc2565b600081526100c4368488611d78565b6105f45761184b6118519161184561237b565b95611daf565b84612d5a565b73ffffffffffffffffffffffffffffffffffffffff8061186f611df9565b92169116036119005761188e611883611d63565b6100c4368585611d78565b156118ba575050610180906118a461082e611e1c565b33036118b25760019061263d565b60009061263d565b6118cd916118c791611daf565b82612d5a565b73ffffffffffffffffffffffffffffffffffffffff806118eb611e1c565b9216911603611900576101809060019061263d565b7f815e1d640000000000000000000000000000000000000000000000000000000060005260046000fd5b34610648576119383661067b565b6040830135421161061e576119546040516100b5602082611cc2565b6105f45761196460208401611dec565b60078110156105ef576001036105c557610100611984926100f885611e83565b903590600a6119bc836000527f33ea8f700f9ca485fc65a69b25e04c222b4a03289fd0c98ba53848533a3e39a0602052604060002090565b01541561059b576119fb6007610235846000527f33ea8f700f9ca485fc65a69b25e04c222b4a03289fd0c98ba53848533a3e39a0602052604060002090565b611a04816121da565b15611ba2575b6001611a446007610235856000527f33ea8f700f9ca485fc65a69b25e04c222b4a03289fd0c98ba53848533a3e39a0602052604060002090565b611a4d816121da565b14611aad575b7f3b3495bf7f9665729a9928a7d82900e2f4783a47a1f518d224308c26b3f92647826102fa6007610d02836000527f33ea8f700f9ca485fc65a69b25e04c222b4a03289fd0c98ba53848533a3e39a0602052604060002090565b611ae560076101bb846000527f33ea8f700f9ca485fc65a69b25e04c222b4a03289fd0c98ba53848533a3e39a0602052604060002090565b611aee81611fef565b151580611b57575b6105265773ffffffffffffffffffffffffffffffffffffffff611b4a61082e6001610382866000527f33ea8f700f9ca485fc65a69b25e04c222b4a03289fd0c98ba53848533a3e39a0602052604060002090565b9116036111585738611a53565b506001611b9260076101bb856000527f33ea8f700f9ca485fc65a69b25e04c222b4a03289fd0c98ba53848533a3e39a0602052604060002090565b611b9b81611fef565b1415611af6565b6001611bdc60076101bb856000527f33ea8f700f9ca485fc65a69b25e04c222b4a03289fd0c98ba53848533a3e39a0602052604060002090565b611be581611fef565b03611c6957611c2361082e61040a846000527f33ea8f700f9ca485fc65a69b25e04c222b4a03289fd0c98ba53848533a3e39a0602052604060002090565b73ffffffffffffffffffffffffffffffffffffffff821614611a0a577f0614e1550000000000000000000000000000000000000000000000000000000060005260046000fd5b7f83d165310000000000000000000000000000000000000000000000000000000060005260046000fd5b7f4e487b7100000000000000000000000000000000000000000000000000000000600052604160045260246000fd5b90601f7fffffffffffffffffffffffffffffffffffffffffffffffffffffffffffffffe0910116810190811067ffffffffffffffff821117611d0357604052565b611c93565b60405190611d1760e083611cc2565b565b60405190611d1761018083611cc2565b67ffffffffffffffff8111611d0357601f017fffffffffffffffffffffffffffffffffffffffffffffffffffffffffffffffe01660200190565b60405190611d72602083611cc2565b60008252565b929192611d8482611d29565b91611d926040519384611cc2565b829481845281830111610648578281602093846000960137010152565b611dba913691611d78565b90565b7f4e487b7100000000000000000000000000000000000000000000000000000000600052602160045260246000fd5b3560078110156106485790565b60043573ffffffffffffffffffffffffffffffffffffffff811681036106485790565b60243573ffffffffffffffffffffffffffffffffffffffff811681036106485790565b3573ffffffffffffffffffffffffffffffffffffffff811681036106485790565b805190825191828103611e7a576020809201209201201490565b50505050600090565b8035906040611e9460208301611dec565b9101356040519160208301937fd1964fa00810eddb58ddb5bfe19402b94983ad64661bfcc8d5c7e9da59b0e11c8552604084015260078110156105ef576060830152608082015260808152611eea60a082611cc2565b519020611fbd611fe9611f7a60a06040517f8b73c3c69bb8fe3d512ecc4cf759cc79239f7b179b0ffacaa9a75d522b39400f81527f03c29967dc1ec387c86cb32e2d942a047a54b4d2a64b4fea68f9345b7f8089da60208201527ff9446b8e937d86f0bc87cac73923491692b123ca5f8761908494703758206adf60408201524660608201523060808201522090565b9260405192839160208301958690916042927f19010000000000000000000000000000000000000000000000000000000000008352600283015260228201520190565b037fffffffffffffffffffffffffffffffffffffffffffffffffffffffffffffffe08101835282611cc2565b51902090565b600611156105ef57565b9060068110156105ef577fffffffffffffffffffffffffffffffffffffffffffffffffffffffffffff00ff61ff0083549260081b169116179055565b9080518255600182019061209e73ffffffffffffffffffffffffffffffffffffffff602083015116839073ffffffffffffffffffffffffffffffffffffffff167fffffffffffffffffffffffff0000000000000000000000000000000000000000825416179055565b60408101519060038210156105ef5760038210156105ef578260c0927fffffffffffffffffffffff00ffffffffffffffffffffffffffffffffffffffff74ff0000000000000000000000000000000000000000600596549260a01b169116179055606081015160028501556080810151600385015561217b61213760a083015173ffffffffffffffffffffffffffffffffffffffff1690565b600486019073ffffffffffffffffffffffffffffffffffffffff167fffffffffffffffffffffffff0000000000000000000000000000000000000000825416179055565b0151910155565b9060068210156105ef5752565b90815273ffffffffffffffffffffffffffffffffffffffff909116602082015260a081019493929160038110156105ef576080926121d69160408401526060830190612182565b0152565b600211156105ef57565b908152604081019291611d179160200190612182565b906040516080810181811067ffffffffffffffff821117611d035760405260606003829460ff815416151584526001810154602085015273ffffffffffffffffffffffffffffffffffffffff60028201541660408501520154910152565b7f4e487b7100000000000000000000000000000000000000000000000000000000600052601160045260246000fd5b9190820391821161229457565b612258565b9190820180921161229457565b3560028110156106485790565b9060028210156105ef5752565b98969492909b9a99979593916101808a019c7fbe72a4ba8a4616daa23d6306346d5930701dd2c68f00b529aa356cf7b5dc05b68b5273ffffffffffffffffffffffffffffffffffffffff1660208b015273ffffffffffffffffffffffffffffffffffffffff1660408a01526060890152608088015273ffffffffffffffffffffffffffffffffffffffff1660a087015260c086015260e08501526101008401612368916122b3565b6101208301526101408201526101600152565b6123856004611e3f565b61238f6024611e3f565b611eea60443591611fbd6064356123a66084611e3f565b60a43560c4356123b660e46122a6565b906101043592610124359461014435966040519b8c9a60208c019e8f6122c0565b60028210156105ef5752565b60068210156105ef5752565b9060028110156105ef5760ff7fffffffffffffffffffffffffffffffffffffffffffffffffffffffffffffff008354169116179055565b90610160600a9161248f61244e825173ffffffffffffffffffffffffffffffffffffffff1690565b859073ffffffffffffffffffffffffffffffffffffffff167fffffffffffffffffffffffff0000000000000000000000000000000000000000825416179055565b6124f76124b3602083015173ffffffffffffffffffffffffffffffffffffffff1690565b600186019073ffffffffffffffffffffffffffffffffffffffff167fffffffffffffffffffffffff0000000000000000000000000000000000000000825416179055565b604081015160028501556060810151600385015561252f612137608083015173ffffffffffffffffffffffffffffffffffffffff1690565b60a0810151600585015560c081015160068501556125766007850161256160e084015161255b816121da565b826123ef565b6101008301519061257182611fef565b611ff9565b610120810151600885015561014081015160098501550151910155565b9a98969492909d9c9b99979593916101a08c019e8c5273ffffffffffffffffffffffffffffffffffffffff1660208c015273ffffffffffffffffffffffffffffffffffffffff1660408b015260608a0152608089015273ffffffffffffffffffffffffffffffffffffffff1660a088015260c087015260e0860152610100850161261c916122b3565b610120840152610140830161263091612182565b6101608201526101800152565b61264a61082e6004611e3f565b15612d305761265c61082e6024611e3f565b15612d305761266e61082e6084611e3f565b15612d30576101043560018110612d065760443560018110612cdc576064359360018510612cdc57610124354211612cb2576126a981611fef565b6001811491821580612ca0575b612c7657600a6126ef866000527f33ea8f700f9ca485fc65a69b25e04c222b4a03289fd0c98ba53848533a3e39a0602052604060002090565b0154612c4c5761271361270f61270861132f6084611e3f565b5460ff1690565b1590565b612c225761014435907f33ea8f700f9ca485fc65a69b25e04c222b4a03289fd0c98ba53848533a3e39a15482108015612bf8575b612bce577f40746c61461ad3025caece8817f27fd91abfd3f6390b7b20bbe41dde689217de9661283561288f9361277e6004611e3f565b936127896024611e3f565b936128226127976084611e3f565b60a4359260c435946127fb6127b66127af60e46122a6565b9842612299565b996127de6127c2611d19565b73ffffffffffffffffffffffffffffffffffffffff909d168d52565b73ffffffffffffffffffffffffffffffffffffffff1660208c0152565b60408a0152606089015273ffffffffffffffffffffffffffffffffffffffff166080880152565b60a086015260c085015260e084016123d7565b6128438461010084016123e3565b856101208301526101408201524261016082015261288a866000527f33ea8f700f9ca485fc65a69b25e04c222b4a03289fd0c98ba53848533a3e39a0602052604060002090565b612426565b61289960e46122a6565b6128a2816121da565b15612b9c575b505060016128b660e46122a6565b6128bf816121da565b14612b77575b506128fc61040a826000527f33ea8f700f9ca485fc65a69b25e04c222b4a03289fd0c98ba53848533a3e39a0602052604060002090565b90612b726129386001610382846000527f33ea8f700f9ca485fc65a69b25e04c222b4a03289fd0c98ba53848533a3e39a0602052604060002090565b600261296d846000527f33ea8f700f9ca485fc65a69b25e04c222b4a03289fd0c98ba53848533a3e39a0602052604060002090565b015460036129a4856000527f33ea8f700f9ca485fc65a69b25e04c222b4a03289fd0c98ba53848533a3e39a0602052604060002090565b01546129de6004610382876000527f33ea8f700f9ca485fc65a69b25e04c222b4a03289fd0c98ba53848533a3e39a0602052604060002090565b6005612a13876000527f33ea8f700f9ca485fc65a69b25e04c222b4a03289fd0c98ba53848533a3e39a0602052604060002090565b01546006612a4a886000527f33ea8f700f9ca485fc65a69b25e04c222b4a03289fd0c98ba53848533a3e39a0602052604060002090565b0154612a8460076102358a6000527f33ea8f700f9ca485fc65a69b25e04c222b4a03289fd0c98ba53848533a3e39a0602052604060002090565b916008612aba8a6000527f33ea8f700f9ca485fc65a69b25e04c222b4a03289fd0c98ba53848533a3e39a0602052604060002090565b015493612af560076101bb8c6000527f33ea8f700f9ca485fc65a69b25e04c222b4a03289fd0c98ba53848533a3e39a0602052604060002090565b956009612b2b8c6000527f33ea8f700f9ca485fc65a69b25e04c222b4a03289fd0c98ba53848533a3e39a0602052604060002090565b015497600a612b638d6000527f33ea8f700f9ca485fc65a69b25e04c222b4a03289fd0c98ba53848533a3e39a0602052604060002090565b0154996040519d8e9d8e612593565b0390a1565b612b9690612b856084611e3f565b90612b906004611e3f565b9161321a565b386128c5565b612ba590611fef565b612bb1575b38806128a8565b612bc9612bbe6084611e3f565b82612b906024611e3f565b612baa565b7f761664010000000000000000000000000000000000000000000000000000000060005260046000fd5b507f33ea8f700f9ca485fc65a69b25e04c222b4a03289fd0c98ba53848533a3e39a2548211612747565b7f7be55e6c0000000000000000000000000000000000000000000000000000000060005260046000fd5b7fe59146300000000000000000000000000000000000000000000000000000000060005260046000fd5b7fdac5c1f60000000000000000000000000000000000000000000000000000000060005260046000fd5b50612caa82611fef565b8115156126b6565b7fc56873ba0000000000000000000000000000000000000000000000000000000060005260046000fd5b7f7a47c9a20000000000000000000000000000000000000000000000000000000060005260046000fd5b7f524f409b0000000000000000000000000000000000000000000000000000000060005260046000fd5b7fd92e233d0000000000000000000000000000000000000000000000000000000060005260046000fd5b906041815103612e9b576020810151916060604083015192015160001a907f7fffffffffffffffffffffffffffffff5d576e7357a4501ddfe92f46681b20a08311612e7157601b82141580612e66575b612e3c57612ddd600093602095604051948594859094939260ff6060936080840197845216602083015260408201520152565b838052039060015afa15612e375760005173ffffffffffffffffffffffffffffffffffffffff811615612e0d5790565b7f8fe7664e0000000000000000000000000000000000000000000000000000000060005260046000fd5b61320e565b7facd54a900000000000000000000000000000000000000000000000000000000060005260046000fd5b50601c821415612daa565b7fe4a61add0000000000000000000000000000000000000000000000000000000060005260046000fd5b7f4fc237b80000000000000000000000000000000000000000000000000000000060005260046000fd5b90612efe6007610235846000527f33ea8f700f9ca485fc65a69b25e04c222b4a03289fd0c98ba53848533a3e39a0602052604060002090565b612f07816121da565b156130b3575b6001612f476007610235856000527f33ea8f700f9ca485fc65a69b25e04c222b4a03289fd0c98ba53848533a3e39a0602052604060002090565b612f50816121da565b14612ff9575b5080612fb160076102cd7fe3bb8b6a10cd6f3d19108b8f000be77007825b16e073eb3a26cd8ccf3b6259a4946000527f33ea8f700f9ca485fc65a69b25e04c222b4a03289fd0c98ba53848533a3e39a0602052604060002090565b612fe960076101bb836000527f33ea8f700f9ca485fc65a69b25e04c222b4a03289fd0c98ba53848533a3e39a0602052604060002090565b90612b72604051928392836121e4565b73ffffffffffffffffffffffffffffffffffffffff61304961082e6001610382866000527f33ea8f700f9ca485fc65a69b25e04c222b4a03289fd0c98ba53848533a3e39a0602052604060002090565b91160361115857806130ad61039d60046103827fe3bb8b6a10cd6f3d19108b8f000be77007825b16e073eb3a26cd8ccf3b6259a4956000527f33ea8f700f9ca485fc65a69b25e04c222b4a03289fd0c98ba53848533a3e39a0602052604060002090565b90612f56565b60016130ed60076101bb856000527f33ea8f700f9ca485fc65a69b25e04c222b4a03289fd0c98ba53848533a3e39a0602052604060002090565b6130f681611fef565b03611c695761313461082e61040a846000527f33ea8f700f9ca485fc65a69b25e04c222b4a03289fd0c98ba53848533a3e39a0602052604060002090565b73ffffffffffffffffffffffffffffffffffffffff82160361165f576131fa61318b6004610382856000527f33ea8f700f9ca485fc65a69b25e04c222b4a03289fd0c98ba53848533a3e39a0602052604060002090565b60086131c0856000527f33ea8f700f9ca485fc65a69b25e04c222b4a03289fd0c98ba53848533a3e39a0602052604060002090565b01546104246001610382876000527f33ea8f700f9ca485fc65a69b25e04c222b4a03289fd0c98ba53848533a3e39a0602052604060002090565b612f0d565b90816020910312610648575190565b6040513d6000823e3d90fd5b6040517f70a08231000000000000000000000000000000000000000000000000000000008152306004820152919273ffffffffffffffffffffffffffffffffffffffff9190911691602081602481865afa908115612e3757849060009261333b575b5061328a91923090856135e6565b6040517f70a0823100000000000000000000000000000000000000000000000000000000815230600482015291602090839060249082905afa8015612e37576132db9260009161330c575b50612287565b036132e257565b7fc7e8fc500000000000000000000000000000000000000000000000000000000060005260046000fd5b61332e915060203d602011613334575b6133268183611cc2565b8101906131ff565b386132d5565b503d61331c565b61328a92506133589060203d602011613334576133268183611cc2565b9161327c565b60600151808202828104821483151715612294576127101161064857611dba9161376a565b46840361339457611d1793506134e3565b6000939192613470859473ffffffffffffffffffffffffffffffffffffffff841686527f33ea8f700f9ca485fc65a69b25e04c222b4a03289fd0c98ba53848533a3e399f602052611fbd61340861082e61082e600260408b20015473ffffffffffffffffffffffffffffffffffffffff1690565b9560405194859360208501977f7c1779dc000000000000000000000000000000000000000000000000000000008952602486019094939273ffffffffffffffffffffffffffffffffffffffff9060609382608085019816845260208401521660408201520152565b51915af461347c613652565b501561348457565b6040517f9becf85d00000000000000000000000000000000000000000000000000000000815260206004820152601760248201527f4c69625472616e736665722e5f62726964676553656e640000000000000000006044820152606490fd5b6040517f70a08231000000000000000000000000000000000000000000000000000000008152306004820152919273ffffffffffffffffffffffffffffffffffffffff9190911691602081602481865afa908115612e375784906000926135c3575b50613551919284613682565b6040517f70a0823100000000000000000000000000000000000000000000000000000000815230600482015291602090839060249082905afa908115612e37576132db926000926135a25750612287565b6135bc91925060203d602011613334576133268183611cc2565b90386132d5565b61355192506135e09060203d602011613334576133268183611cc2565b91613545565b90919273ffffffffffffffffffffffffffffffffffffffff611d179481604051957f23b872dd00000000000000000000000000000000000000000000000000000000602088015216602486015216604484015260648301526064825261364d608483611cc2565b6136df565b3d1561367d573d9061366382611d29565b916136716040519384611cc2565b82523d6000602084013e565b606090565b611d179273ffffffffffffffffffffffffffffffffffffffff604051937fa9059cbb00000000000000000000000000000000000000000000000000000000602086015216602484015260448301526044825261364d606483611cc2565b906000602091828151910182855af11561320e576000513d613761575073ffffffffffffffffffffffffffffffffffffffff81163b155b61371d5750565b73ffffffffffffffffffffffffffffffffffffffff907f5274afe7000000000000000000000000000000000000000000000000000000006000521660045260246000fd5b60011415613716565b818102907fffffffffffffffffffffffffffffffffffffffffffffffffffffffffffffffff838209908280831092039180830392146137ee578161271011156137e7577fbc01a36e2eb1c432ca57a786c226809d495182a9930be0ded288ce703afb7e9193612710910990828211900360fc1b910360041c170290565b60116137f9565b506127109250500490565b634e487b716000526020526024601cfdfea2646970667358221220a113faa1524127839606379383ad4f1da74f22071d2fee00d6a607cc2194387164736f6c634300081c0033",
  "linkReferences": {},
  "deployedLinkReferences": {}
}