{
  "_format": "hh-sol-artifact-1",
  "contractName": "DummySender",
  "sourceName": "contracts/tokens/cross_chain_senders/DummySender.sol",
  "abi": [
    {
      "inputs": [],
      "name": "ProtocolInvariantCheckFailed",
      "type": "error"
    },
    {
      "inputs": [
        {
          "internalType": "address",
          "name": "token",
          "type": "address"
        }
      ],
      "name": "SafeERC20FailedOperation",
      "type": "error"
    },
    {
      "inputs": [
        {
          "internalType": "address",
          "name": "_token",
          "type": "address"
        },
        {
          "internalType": "uint256",
          "name": "_amount",
          "type": "uint256"
        },
        {
          "internalType": "address",
          "name": "_to",
          "type": "address"
        },
        {
          "internalType": "uint256",
          "name": "",
          "type": "uint256"
        }
      ],
      "name": "send",
      "outputs": [],
      "stateMutability": "nonpayable",
      "type": "function"
    }
  ],
  "bytecode": "0x6080806040523460155761034c908161001b8239f35b600080fdfe608080604052600436101561001357600080fd5b60003560e01c637c1779dc1461002857600080fd5b3461021f5760807ffffffffffffffffffffffffffffffffffffffffffffffffffffffffffffffffc36011261021f576004359073ffffffffffffffffffffffffffffffffffffffff821680920361021f576024359160443573ffffffffffffffffffffffffffffffffffffffff811680910361021f577f70a08231000000000000000000000000000000000000000000000000000000008352306004840152602083602481855afa92831561022c5760009361026e575b506000602091604051838101917fa9059cbb0000000000000000000000000000000000000000000000000000000083526024820152866044820152604481526101296064826102a6565b519082855af11561022c576000513d6102655750803b155b610238576020602491604051928380927f70a082310000000000000000000000000000000000000000000000000000000082523060048301525afa90811561022c576000916101f5575b5081039081116101c6570361019c57005b7fc7e8fc500000000000000000000000000000000000000000000000000000000060005260046000fd5b7f4e487b7100000000000000000000000000000000000000000000000000000000600052601160045260246000fd5b90506020813d602011610224575b81610210602093836102a6565b8101031261021f57513861018b565b600080fd5b3d9150610203565b6040513d6000823e3d90fd5b7f5274afe70000000000000000000000000000000000000000000000000000000060005260045260246000fd5b60011415610141565b90926020823d60201161029e575b81610289602093836102a6565b8101031261029b5750519160006100df565b80fd5b3d915061027c565b90601f7fffffffffffffffffffffffffffffffffffffffffffffffffffffffffffffffe0910116810190811067ffffffffffffffff8211176102e757604052565b7f4e487b7100000000000000000000000000000000000000000000000000000000600052604160045260246000fdfea26469706673582212209425ae64d596343cfb3e943625bab5265c4d63d30c596df97398ad7fc9cc1c6f64736f6c634300081c0033",
  "linkReferences": {},
  "deployedLinkReferences": {}
}