{
  "_format": "hh-sol-artifact-1",
  "contractName": "AccessControlInit",
  "sourceName": "contracts/diamond/upgradeInitializers/AccessControlInit.sol",
  "abi": [
    {
      "anonymous": false,
      "inputs": [
        {
          "indexed": true,
          "internalType": "bytes32",
          "name": "role",
          "type": "bytes32"
        },
        {
          "indexed": true,
          "internalType": "bytes32",
          "name": "previousAdminRole",
          "type": "bytes32"
        },
        {
          "indexed": true,
          "internalType": "bytes32",
          "name": "newAdminRole",
          "type": "bytes32"
        }
      ],
      "name": "RoleAdminChanged",
      "type": "event"
    },
    {
      "anonymous": false,
      "inputs": [
        {
          "indexed": true,
          "internalType": "bytes32",
          "name": "role",
          "type": "bytes32"
        },
        {
          "indexed": true,
          "internalType": "address",
          "name": "account",
          "type": "address"
        },
        {
          "indexed": true,
          "internalType": "address",
          "name": "sender",
          "type": "address"
        }
      ],
      "name": "RoleGranted",
      "type": "event"
    },
    {
      "anonymous": false,
      "inputs": [
        {
          "indexed": true,
          "internalType": "bytes32",
          "name": "role",
          "type": "bytes32"
        },
        {
          "indexed": true,
          "internalType": "address",
          "name": "account",
          "type": "address"
        },
        {
          "indexed": true,
          "internalType": "address",
          "name": "sender",
          "type": "address"
        }
      ],
      "name": "RoleRevoked",
      "type": "event"
    },
    {
      "inputs": [],
      "name": "init",
      "outputs": [],
      "stateMutability": "nonpayable",
      "type": "function"
    }
  ],
  "bytecode": "0x6080806040523460155761038a908161001b8239f35b600080fdfe6080604052600436101561001257600080fd5b60003560e01c63e1c7392a1461002757600080fd5b3461034f5760007ffffffffffffffffffffffffffffffffffffffffffffffffffffffffffffffffc36011261034f573360009081527f56672a897fec8f593dbda72d8f96ed3062a0fc2846fe0fef1ce1d2d41603db9060208190526040909120547f56672a897fec8f593dbda72d8f96ed3062a0fc2846fe0fef1ce1d2d41603db8f901561030a575b5050333360007f2f8788117e7eff1d82e926ec794901d17c78024a50270940304540a733656f0d8180a43360009081527f1607cec14f8427ffcbaf70359b34a7dd27c832feb95af350c4589f886ed1b82b60208190526040909120547f1607cec14f8427ffcbaf70359b34a7dd27c832feb95af350c4589f886ed1b82a90156102c5575b505033337f871f4156a8763caa4b80a19e83df37c7069530b66573744126d85428ddfa634d7f2f8788117e7eff1d82e926ec794901d17c78024a50270940304540a733656f0d600080a43360009081527f8e9ac8615d5582e4226d721c7b1a4ed1dee1fb18871217ded5407e27f2ff83ea60208190526040909120547f8e9ac8615d5582e4226d721c7b1a4ed1dee1fb18871217ded5407e27f2ff83e99015610222575b33337f4ec619e1829190795f929742ca4f1a6f7cd622481ddbbfb4c9b5efddb006f9aa7f2f8788117e7eff1d82e926ec794901d17c78024a50270940304540a733656f0d600080a4005b805468010000000000000000811015610296576001810180835581101561026757816000523390602060002001555490336000526020526040600020556001386101d8565b7f4e487b7100000000000000000000000000000000000000000000000000000000600052603260045260246000fd5b7f4e487b7100000000000000000000000000000000000000000000000000000000600052604160045260246000fd5b80546801000000000000000081101561029657600181018083558110156102675781600052339060206000200155549033600052602052604060002055600138610134565b805468010000000000000000811015610296576001810180835581101561026757816000523390602060002001555490336000526020526040600020556001386100b0565b600080fdfea2646970667358221220d938c673d9da26f7fc52b789d39cb477905fd5345ea723d00d812b63c8955f9464736f6c634300081c0033",
  "linkReferences": {},
  "deployedLinkReferences": {}
}