{
  "_format": "hh-sol-artifact-1",
  "contractName": "Order",
  "sourceName": "contracts/modules/Order.sol",
  "abi": [
    {
      "inputs": [],
      "name": "AppealExists",
      "type": "error"
    },
    {
      "inputs": [
        {
          "internalType": "string",
          "name": "_functionName",
          "type": "string"
        }
      ],
      "name": "DelegateCallFailed",
      "type": "error"
    },
    {
      "inputs": [],
      "name": "InvalidAppealDecision",
      "type": "error"
    },
    {
      "inputs": [],
      "name": "InvalidChainId",
      "type": "error"
    },
    {
      "inputs": [],
      "name": "InvalidDuration",
      "type": "error"
    },
    {
      "inputs": [],
      "name": "InvalidExpiry",
      "type": "error"
    },
    {
      "inputs": [],
      "name": "InvalidOrderCreateState",
      "type": "error"
    },
    {
      "inputs": [],
      "name": "InvalidQuantity",
      "type": "error"
    },
    {
      "inputs": [],
      "name": "InvalidSigner",
      "type": "error"
    },
    {
      "inputs": [],
      "name": "InvalidTradeToken",
      "type": "error"
    },
    {
      "inputs": [],
      "name": "MustBeAppealer",
      "type": "error"
    },
    {
      "inputs": [],
      "name": "MustBeMerchant",
      "type": "error"
    },
    {
      "inputs": [],
      "name": "MustBeMerchantOrTrader",
      "type": "error"
    },
    {
      "inputs": [],
      "name": "MustBeTrader",
      "type": "error"
    },
    {
      "inputs": [],
      "name": "NotYetDeadline",
      "type": "error"
    },
    {
      "inputs": [],
      "name": "OrderAcceptedRequired",
      "type": "error"
    },
    {
      "inputs": [],
      "name": "OrderAppealedRequired",
      "type": "error"
    },
    {
      "inputs": [],
      "name": "OrderDoesNotExists",
      "type": "error"
    },
    {
      "inputs": [],
      "name": "OrderExists",
      "type": "error"
    },
    {
      "inputs": [],
      "name": "OrderExpired",
      "type": "error"
    },
    {
      "inputs": [],
      "name": "OrderPaidRequired",
      "type": "error"
    },
    {
      "inputs": [],
      "name": "OrderPendingOrAcceptedRequired",
      "type": "error"
    },
    {
      "inputs": [],
      "name": "OrderPendingRequired",
      "type": "error"
    },
    {
      "inputs": [],
      "name": "ProtocolInvariantCheckFailed",
      "type": "error"
    },
    {
      "inputs": [
        {
          "internalType": "address",
          "name": "token",
          "type": "address"
        }
      ],
      "name": "SafeERC20FailedOperation",
      "type": "error"
    },
    {
      "inputs": [],
      "name": "ZeroAddress",
      "type": "error"
    },
    {
      "anonymous": false,
      "inputs": [
        {
          "indexed": false,
          "internalType": "bytes32",
          "name": "orderHash",
          "type": "bytes32"
        },
        {
          "indexed": false,
          "internalType": "address",
          "name": "trader",
          "type": "address"
        },
        {
          "indexed": false,
          "internalType": "address",
          "name": "merchant",
          "type": "address"
        },
        {
          "indexed": false,
          "internalType": "uint256",
          "name": "traderChain",
          "type": "uint256"
        },
        {
          "indexed": false,
          "internalType": "uint256",
          "name": "merchantChain",
          "type": "uint256"
        },
        {
          "indexed": false,
          "internalType": "address",
          "name": "token",
          "type": "address"
        },
        {
          "indexed": false,
          "internalType": "bytes32",
          "name": "currency",
          "type": "bytes32"
        },
        {
          "indexed": false,
          "internalType": "bytes32",
          "name": "paymentMethod",
          "type": "bytes32"
        },
        {
          "indexed": false,
          "internalType": "enum OrderType",
          "name": "orderType",
          "type": "uint8"
        },
        {
          "indexed": false,
          "internalType": "uint256",
          "name": "quantity",
          "type": "uint256"
        },
        {
          "indexed": false,
          "internalType": "enum OrderState",
          "name": "orderState",
          "type": "uint8"
        },
        {
          "indexed": false,
          "internalType": "uint256",
          "name": "deadline",
          "type": "uint256"
        },
        {
          "indexed": false,
          "internalType": "uint256",
          "name": "createdAt",
          "type": "uint256"
        }
      ],
      "name": "NewOrder",
      "type": "event"
    },
    {
      "anonymous": false,
      "inputs": [
        {
          "indexed": false,
          "internalType": "bytes32",
          "name": "orderHash",
          "type": "bytes32"
        },
        {
          "indexed": false,
          "internalType": "enum OrderState",
          "name": "status",
          "type": "uint8"
        }
      ],
      "name": "OrderAccepted",
      "type": "event"
    },
    {
      "anonymous": false,
      "inputs": [
        {
          "indexed": false,
          "internalType": "bytes32",
          "name": "orderHash",
          "type": "bytes32"
        },
        {
          "indexed": false,
          "internalType": "enum OrderState",
          "name": "status",
          "type": "uint8"
        }
      ],
      "name": "OrderCancelled",
      "type": "event"
    },
    {
      "anonymous": false,
      "inputs": [
        {
          "indexed": false,
          "internalType": "bytes32",
          "name": "orderHash",
          "type": "bytes32"
        },
        {
          "indexed": false,
          "internalType": "enum OrderState",
          "name": "status",
          "type": "uint8"
        }
      ],
      "name": "OrderPaid",
      "type": "event"
    },
    {
      "anonymous": false,
      "inputs": [
        {
          "indexed": false,
          "internalType": "bytes32",
          "name": "orderHash",
          "type": "bytes32"
        },
        {
          "indexed": false,
          "internalType": "enum OrderState",
          "name": "status",
          "type": "uint8"
        }
      ],
      "name": "OrderReleased",
      "type": "event"
    },
    {
      "inputs": [
        {
          "internalType": "bytes32",
          "name": "_orderHash",
          "type": "bytes32"
        }
      ],
      "name": "acceptOrder",
      "outputs": [],
      "stateMutability": "nonpayable",
      "type": "function"
    },
    {
      "inputs": [
        {
          "internalType": "bytes32",
          "name": "_orderHash",
          "type": "bytes32"
        }
      ],
      "name": "cancelOrder",
      "outputs": [],
      "stateMutability": "nonpayable",
      "type": "function"
    },
    {
      "inputs": [
        {
          "components": [
            {
              "internalType": "address",
              "name": "trader",
              "type": "address"
            },
            {
              "internalType": "address",
              "name": "merchant",
              "type": "address"
            },
            {
              "internalType": "uint256",
              "name": "traderChain",
              "type": "uint256"
            },
            {
              "internalType": "uint256",
              "name": "merchantChain",
              "type": "uint256"
            },
            {
              "internalType": "address",
              "name": "token",
              "type": "address"
            },
            {
              "internalType": "bytes32",
              "name": "currency",
              "type": "bytes32"
            },
            {
              "internalType": "bytes32",
              "name": "paymentMethod",
              "type": "bytes32"
            },
            {
              "internalType": "enum OrderType",
              "name": "orderType",
              "type": "uint8"
            },
            {
              "internalType": "uint256",
              "name": "quantity",
              "type": "uint256"
            },
            {
              "internalType": "uint256",
              "name": "expiry",
              "type": "uint256"
            },
            {
              "internalType": "uint256",
              "name": "duration",
              "type": "uint256"
            }
          ],
          "internalType": "struct IOrder.CreateOrder",
          "name": "_order",
          "type": "tuple"
        }
      ],
      "name": "createOrder",
      "outputs": [],
      "stateMutability": "nonpayable",
      "type": "function"
    },
    {
      "inputs": [
        {
          "internalType": "bytes32",
          "name": "_orderHash",
          "type": "bytes32"
        }
      ],
      "name": "payOrder",
      "outputs": [],
      "stateMutability": "nonpayable",
      "type": "function"
    },
    {
      "inputs": [
        {
          "internalType": "bytes32",
          "name": "_orderHash",
          "type": "bytes32"
        }
      ],
      "name": "releaseOrder",
      "outputs": [],
      "stateMutability": "nonpayable",
      "type": "function"
    }
  ],
  "bytecode": "0x60808060405234601557612955908161001b8239f35b600080fdfe6080604052600436101561001257600080fd5b60003560e01c80633bfc17b31461006757806358504a36146100625780637489ec231461005d578063dfc86408146100585763e7da0eaf1461005357600080fd5b6110f8565b610e7a565b610a96565b6106f5565b346106c057610075366106c5565b600a6100aa826000527f33ea8f700f9ca485fc65a69b25e04c222b4a03289fd0c98ba53848533a3e39a0602052604060002090565b0154156106965760026100f660076100eb846000527f33ea8f700f9ca485fc65a69b25e04c222b4a03289fd0c98ba53848533a3e39a0602052604060002090565b015460081c60ff1690565b6100ff81611392565b0361066c57610169600761013c836000527f33ea8f700f9ca485fc65a69b25e04c222b4a03289fd0c98ba53848533a3e39a0602052604060002090565b016104007fffffffffffffffffffffffffffffffffffffffffffffffffffffffffffff00ff825416179055565b61024c6102076101c260046101a7856000527f33ea8f700f9ca485fc65a69b25e04c222b4a03289fd0c98ba53848533a3e39a0602052604060002090565b015473ffffffffffffffffffffffffffffffffffffffff1690565b73ffffffffffffffffffffffffffffffffffffffff166000527f33ea8f700f9ca485fc65a69b25e04c222b4a03289fd0c98ba53848533a3e399f602052604060002090565b610247600861023f856000527f33ea8f700f9ca485fc65a69b25e04c222b4a03289fd0c98ba53848533a3e39a0602052604060002090565b015491611464565b611fa4565b9061028d826008610286846000527f33ea8f700f9ca485fc65a69b25e04c222b4a03289fd0c98ba53848533a3e39a0602052604060002090565b01546114f1565b916102d760016102ce6101c260046101a7876000527f33ea8f700f9ca485fc65a69b25e04c222b4a03289fd0c98ba53848533a3e39a0602052604060002090565b01918254611503565b90556103196007610311836000527f33ea8f700f9ca485fc65a69b25e04c222b4a03289fd0c98ba53848533a3e39a0602052604060002090565b015460ff1690565b61032281611510565b15610555575b60016103626007610311846000527f33ea8f700f9ca485fc65a69b25e04c222b4a03289fd0c98ba53848533a3e39a0602052604060002090565b61036b81611510565b146103e0575b806103cb60076100eb7fe523b938ed6306ade2fd18c2cde515e4921fb8868319befda9abaaf766295440946000527f33ea8f700f9ca485fc65a69b25e04c222b4a03289fd0c98ba53848533a3e39a0602052604060002090565b906103db60405192839283611527565b0390a1005b61044c610433610419836000527f33ea8f700f9ca485fc65a69b25e04c222b4a03289fd0c98ba53848533a3e39a0602052604060002090565b5473ffffffffffffffffffffffffffffffffffffffff1690565b73ffffffffffffffffffffffffffffffffffffffff1690565b330361052b576105267fe523b938ed6306ade2fd18c2cde515e4921fb8868319befda9abaaf766295440926104af60046101a7856000527f33ea8f700f9ca485fc65a69b25e04c222b4a03289fd0c98ba53848533a3e39a0602052604060002090565b906104e860016101a7866000527f33ea8f700f9ca485fc65a69b25e04c222b4a03289fd0c98ba53848533a3e39a0602052604060002090565b90600361051e866000527f33ea8f700f9ca485fc65a69b25e04c222b4a03289fd0c98ba53848533a3e39a0602052604060002090565b015492611fcc565b610371565b7f0614e1550000000000000000000000000000000000000000000000000000000060005260046000fd5b61059061043360016101a7846000527f33ea8f700f9ca485fc65a69b25e04c222b4a03289fd0c98ba53848533a3e39a0602052604060002090565b33036106425761063d6105d160046101a7846000527f33ea8f700f9ca485fc65a69b25e04c222b4a03289fd0c98ba53848533a3e39a0602052604060002090565b610607610419846000527f33ea8f700f9ca485fc65a69b25e04c222b4a03289fd0c98ba53848533a3e39a0602052604060002090565b84600261051e866000527f33ea8f700f9ca485fc65a69b25e04c222b4a03289fd0c98ba53848533a3e39a0602052604060002090565b610328565b7fd6307e440000000000000000000000000000000000000000000000000000000060005260046000fd5b7f4a306e1d0000000000000000000000000000000000000000000000000000000060005260046000fd5b7f81a618400000000000000000000000000000000000000000000000000000000060005260046000fd5b600080fd5b7ffffffffffffffffffffffffffffffffffffffffffffffffffffffffffffffffc60209101126106c05760043590565b346106c057610703366106c5565b600a610738826000527f33ea8f700f9ca485fc65a69b25e04c222b4a03289fd0c98ba53848533a3e39a0602052604060002090565b015415610696576107776007610311836000527f33ea8f700f9ca485fc65a69b25e04c222b4a03289fd0c98ba53848533a3e39a0602052604060002090565b61078081611510565b156109bb575b60016107c06007610311846000527f33ea8f700f9ca485fc65a69b25e04c222b4a03289fd0c98ba53848533a3e39a0602052604060002090565b6107c981611510565b1461088e575b8061085660076108297f3b3495bf7f9665729a9928a7d82900e2f4783a47a1f518d224308c26b3f92647946000527f33ea8f700f9ca485fc65a69b25e04c222b4a03289fd0c98ba53848533a3e39a0602052604060002090565b016102007fffffffffffffffffffffffffffffffffffffffffffffffffffffffffffff00ff825416179055565b6103cb60076100eb836000527f33ea8f700f9ca485fc65a69b25e04c222b4a03289fd0c98ba53848533a3e39a0602052604060002090565b6108c660076100eb836000527f33ea8f700f9ca485fc65a69b25e04c222b4a03289fd0c98ba53848533a3e39a0602052604060002090565b6108cf81611392565b151580610970575b6109465761091661043360016101a7846000527f33ea8f700f9ca485fc65a69b25e04c222b4a03289fd0c98ba53848533a3e39a0602052604060002090565b33146107cf577fd6307e440000000000000000000000000000000000000000000000000000000060005260046000fd5b7f317dd5870000000000000000000000000000000000000000000000000000000060005260046000fd5b5060016109ab60076100eb846000527f33ea8f700f9ca485fc65a69b25e04c222b4a03289fd0c98ba53848533a3e39a0602052604060002090565b6109b481611392565b14156108d7565b60016109f560076100eb846000527f33ea8f700f9ca485fc65a69b25e04c222b4a03289fd0c98ba53848533a3e39a0602052604060002090565b6109fe81611392565b03610a6c57610a3c610433610419836000527f33ea8f700f9ca485fc65a69b25e04c222b4a03289fd0c98ba53848533a3e39a0602052604060002090565b3314610786577f0614e1550000000000000000000000000000000000000000000000000000000060005260046000fd5b7f83d165310000000000000000000000000000000000000000000000000000000060005260046000fd5b346106c057610aa4366106c5565b806000527f33ea8f700f9ca485fc65a69b25e04c222b4a03289fd0c98ba53848533a3e39a0602052600a604060002001541561069657806000527f33ea8f700f9ca485fc65a69b25e04c222b4a03289fd0c98ba53848533a3e39a06020526009604060002001544210600014610b2157610b1f90339061212c565b005b610b5960076100eb836000527f33ea8f700f9ca485fc65a69b25e04c222b4a03289fd0c98ba53848533a3e39a0602052604060002090565b610b6281611392565b151580610e2f575b6109465780610bc860076103117fe3bb8b6a10cd6f3d19108b8f000be77007825b16e073eb3a26cd8ccf3b6259a4946000527f33ea8f700f9ca485fc65a69b25e04c222b4a03289fd0c98ba53848533a3e39a0602052604060002090565b610bd181611510565b15610d38575b6001610c116007610311846000527f33ea8f700f9ca485fc65a69b25e04c222b4a03289fd0c98ba53848533a3e39a0602052604060002090565b610c1a81611510565b14610c85575b6108566007610c58836000527f33ea8f700f9ca485fc65a69b25e04c222b4a03289fd0c98ba53848533a3e39a0602052604060002090565b016105007fffffffffffffffffffffffffffffffffffffffffffffffffffffffffffff00ff825416179055565b610d33610cc060046101a7846000527f33ea8f700f9ca485fc65a69b25e04c222b4a03289fd0c98ba53848533a3e39a0602052604060002090565b6008610cf5846000527f33ea8f700f9ca485fc65a69b25e04c222b4a03289fd0c98ba53848533a3e39a0602052604060002090565b0154610d2d610419856000527f33ea8f700f9ca485fc65a69b25e04c222b4a03289fd0c98ba53848533a3e39a0602052604060002090565b91612628565b610c20565b6001610d7260076100eb846000527f33ea8f700f9ca485fc65a69b25e04c222b4a03289fd0c98ba53848533a3e39a0602052604060002090565b610d7b81611392565b03610bd757610e2a610dbb60046101a7846000527f33ea8f700f9ca485fc65a69b25e04c222b4a03289fd0c98ba53848533a3e39a0602052604060002090565b6008610df0846000527f33ea8f700f9ca485fc65a69b25e04c222b4a03289fd0c98ba53848533a3e39a0602052604060002090565b0154610d2d60016101a7866000527f33ea8f700f9ca485fc65a69b25e04c222b4a03289fd0c98ba53848533a3e39a0602052604060002090565b610bd7565b506001610e6a60076100eb846000527f33ea8f700f9ca485fc65a69b25e04c222b4a03289fd0c98ba53848533a3e39a0602052604060002090565b610e7381611392565b1415610b6a565b346106c057610e88366106c5565b600a610ebd826000527f33ea8f700f9ca485fc65a69b25e04c222b4a03289fd0c98ba53848533a3e39a0602052604060002090565b01541561069657610efc60076100eb836000527f33ea8f700f9ca485fc65a69b25e04c222b4a03289fd0c98ba53848533a3e39a0602052604060002090565b610f0581611392565b6110ce57610f4461043360016101a7846000527f33ea8f700f9ca485fc65a69b25e04c222b4a03289fd0c98ba53848533a3e39a0602052604060002090565b33036106425780610fd16007610fa47fc1c3487325326ec0a3256c2248d978c3d4bd005ab1e5579108080de5291b1eba946000527f33ea8f700f9ca485fc65a69b25e04c222b4a03289fd0c98ba53848533a3e39a0602052604060002090565b016101007fffffffffffffffffffffffffffffffffffffffffffffffffffffffffffff00ff825416179055565b6110096007610311836000527f33ea8f700f9ca485fc65a69b25e04c222b4a03289fd0c98ba53848533a3e39a0602052604060002090565b61101281611510565b1561104f576103cb60076100eb836000527f33ea8f700f9ca485fc65a69b25e04c222b4a03289fd0c98ba53848533a3e39a0602052604060002090565b6110c961108a60046101a7846000527f33ea8f700f9ca485fc65a69b25e04c222b4a03289fd0c98ba53848533a3e39a0602052604060002090565b339060086110c1856000527f33ea8f700f9ca485fc65a69b25e04c222b4a03289fd0c98ba53848533a3e39a0602052604060002090565b015490612481565b610856565b7f602cf9ef0000000000000000000000000000000000000000000000000000000060005260046000fd5b346106c0576101607ffffffffffffffffffffffffffffffffffffffffffffffffffffffffffffffffc3601126106c05760006111326112d9565b61113a6112fc565b6111aa6044359161117e60643561114f61131f565b60a43560c43561115d61153d565b906101043592610124359461014435966040519b8c9a60208c019e8f611566565b037fffffffffffffffffffffffffffffffffffffffffffffffffffffffffffffffe0810183528261140c565b51902061117e61127d61123a60a06040517f8b73c3c69bb8fe3d512ecc4cf759cc79239f7b179b0ffacaa9a75d522b39400f81527f03c29967dc1ec387c86cb32e2d942a047a54b4d2a64b4fea68f9345b7f8089da60208201527ff9446b8e937d86f0bc87cac73923491692b123ca5f8761908494703758206adf60408201524660608201523060808201522090565b9260405192839160208301958690916042927f19010000000000000000000000000000000000000000000000000000000000008352600283015260228201520190565b5190206112886112d9565b73ffffffffffffffffffffffffffffffffffffffff339116036112b1576112ae906118cb565b80f35b6004827f815e1d64000000000000000000000000000000000000000000000000000000008152fd5b60043573ffffffffffffffffffffffffffffffffffffffff811681036106c05790565b60243573ffffffffffffffffffffffffffffffffffffffff811681036106c05790565b60843573ffffffffffffffffffffffffffffffffffffffff811681036106c05790565b3573ffffffffffffffffffffffffffffffffffffffff811681036106c05790565b7f4e487b7100000000000000000000000000000000000000000000000000000000600052602160045260246000fd5b6006111561139c57565b611363565b90600681101561139c577fffffffffffffffffffffffffffffffffffffffffffffffffffffffffffff00ff61ff0083549260081b169116179055565b7f4e487b7100000000000000000000000000000000000000000000000000000000600052604160045260246000fd5b90601f7fffffffffffffffffffffffffffffffffffffffffffffffffffffffffffffffe0910116810190811067ffffffffffffffff82111761144d57604052565b6113dd565b604051906114626101808361140c565b565b906040516080810181811067ffffffffffffffff82111761144d5760405260606003829460ff815416151584526001810154602085015273ffffffffffffffffffffffffffffffffffffffff60028201541660408501520154910152565b7f4e487b7100000000000000000000000000000000000000000000000000000000600052601160045260246000fd5b919082039182116114fe57565b6114c2565b919082018092116114fe57565b6002111561139c57565b90600682101561139c5752565b908152604081019291611462916020019061151a565b60e43560028110156106c05790565b3560028110156106c05790565b90600282101561139c5752565b98969492909b9a99979593916101808a019c7fbe72a4ba8a4616daa23d6306346d5930701dd2c68f00b529aa356cf7b5dc05b68b5273ffffffffffffffffffffffffffffffffffffffff1660208b015273ffffffffffffffffffffffffffffffffffffffff1660408a01526060890152608088015273ffffffffffffffffffffffffffffffffffffffff1660a087015260c086015260e0850152610100840161160e91611559565b6101208301526101408201526101600152565b600282101561139c5752565b600682101561139c5752565b90600281101561139c5760ff7fffffffffffffffffffffffffffffffffffffffffffffffffffffffffffffff008354169116179055565b90610160600a916116d9611698825173ffffffffffffffffffffffffffffffffffffffff1690565b859073ffffffffffffffffffffffffffffffffffffffff167fffffffffffffffffffffffff0000000000000000000000000000000000000000825416179055565b6117416116fd602083015173ffffffffffffffffffffffffffffffffffffffff1690565b600186019073ffffffffffffffffffffffffffffffffffffffff167fffffffffffffffffffffffff0000000000000000000000000000000000000000825416179055565b60408101516002850155606081015160038501556117bd611779608083015173ffffffffffffffffffffffffffffffffffffffff1690565b600486019073ffffffffffffffffffffffffffffffffffffffff167fffffffffffffffffffffffff0000000000000000000000000000000000000000825416179055565b60a0810151600585015560c08101516006850155611804600785016117ef60e08401516117e981611510565b82611639565b610100830151906117ff82611392565b6113a1565b610120810151600885015561014081015160098501550151910155565b9a98969492909d9c9b99979593916101a08c019e8c5273ffffffffffffffffffffffffffffffffffffffff1660208c015273ffffffffffffffffffffffffffffffffffffffff1660408b015260608a0152608089015273ffffffffffffffffffffffffffffffffffffffff1660a088015260c087015260e086015261010085016118aa91611559565b61012084015261014083016118be9161151a565b6101608201526101800152565b6000906118db6104336004611342565b15611f7c576118ed6104336024611342565b15611f7c576118ff6104336084611342565b15611f7c576101043560018110611f545760443560018110611f2c576064359360018510611f0457610124354211611edc5761193a81611392565b61194381611392565b50600a611979846000527f33ea8f700f9ca485fc65a69b25e04c222b4a03289fd0c98ba53848533a3e39a0602052604060002090565b0154611eb25761199d6119996119926101c26084611342565b5460ff1690565b1590565b611e885761014435907f33ea8f700f9ca485fc65a69b25e04c222b4a03289fd0c98ba53848533a3e39a15482108015611e5e575b611e34577f40746c61461ad3025caece8817f27fd91abfd3f6390b7b20bbe41dde689217de94611abf611b1a93611a086004611342565b93611a136024611342565b93611aac611a216084611342565b60a4359260c43594611a85611a40611a3960e461154c565b9842611503565b99611a68611a4c611452565b73ffffffffffffffffffffffffffffffffffffffff909d168d52565b73ffffffffffffffffffffffffffffffffffffffff1660208c0152565b60408a0152606089015273ffffffffffffffffffffffffffffffffffffffff166080880152565b60a086015260c085015260e08401611621565b611ace6000610100840161162d565b8361012083015261014082015242610160820152611b15846000527f33ea8f700f9ca485fc65a69b25e04c222b4a03289fd0c98ba53848533a3e39a0602052604060002090565b611670565b611b2460e461154c565b611b2d81611510565b15611e25575b6001611b3f60e461154c565b611b4881611510565b14611e00575b50611b85610419826000527f33ea8f700f9ca485fc65a69b25e04c222b4a03289fd0c98ba53848533a3e39a0602052604060002090565b90611dfb611bc160016101a7846000527f33ea8f700f9ca485fc65a69b25e04c222b4a03289fd0c98ba53848533a3e39a0602052604060002090565b6002611bf6846000527f33ea8f700f9ca485fc65a69b25e04c222b4a03289fd0c98ba53848533a3e39a0602052604060002090565b01546003611c2d856000527f33ea8f700f9ca485fc65a69b25e04c222b4a03289fd0c98ba53848533a3e39a0602052604060002090565b0154611c6760046101a7876000527f33ea8f700f9ca485fc65a69b25e04c222b4a03289fd0c98ba53848533a3e39a0602052604060002090565b6005611c9c876000527f33ea8f700f9ca485fc65a69b25e04c222b4a03289fd0c98ba53848533a3e39a0602052604060002090565b01546006611cd3886000527f33ea8f700f9ca485fc65a69b25e04c222b4a03289fd0c98ba53848533a3e39a0602052604060002090565b0154611d0d60076103118a6000527f33ea8f700f9ca485fc65a69b25e04c222b4a03289fd0c98ba53848533a3e39a0602052604060002090565b916008611d438a6000527f33ea8f700f9ca485fc65a69b25e04c222b4a03289fd0c98ba53848533a3e39a0602052604060002090565b015493611d7e60076100eb8c6000527f33ea8f700f9ca485fc65a69b25e04c222b4a03289fd0c98ba53848533a3e39a0602052604060002090565b956009611db48c6000527f33ea8f700f9ca485fc65a69b25e04c222b4a03289fd0c98ba53848533a3e39a0602052604060002090565b015497600a611dec8d6000527f33ea8f700f9ca485fc65a69b25e04c222b4a03289fd0c98ba53848533a3e39a0602052604060002090565b0154996040519d8e9d8e611821565b0390a1565b611e1f90611e0e6084611342565b90611e196004611342565b91612481565b38611b4e565b611e2f6000611392565b611b33565b7f761664010000000000000000000000000000000000000000000000000000000060005260046000fd5b507f33ea8f700f9ca485fc65a69b25e04c222b4a03289fd0c98ba53848533a3e39a25482116119d1565b7f7be55e6c0000000000000000000000000000000000000000000000000000000060005260046000fd5b7fe59146300000000000000000000000000000000000000000000000000000000060005260046000fd5b807fc56873ba0000000000000000000000000000000000000000000000000000000060049252fd5b807f7a47c9a20000000000000000000000000000000000000000000000000000000060049252fd5b6004847f7a47c9a2000000000000000000000000000000000000000000000000000000008152fd5b6004837f524f409b000000000000000000000000000000000000000000000000000000008152fd5b6004827fd92e233d000000000000000000000000000000000000000000000000000000008152fd5b606001518082028281048214831517156114fe57612710116106c057611fc991612797565b90565b468403611fdd576114629350612628565b60009391926120b9859473ffffffffffffffffffffffffffffffffffffffff841686527f33ea8f700f9ca485fc65a69b25e04c222b4a03289fd0c98ba53848533a3e399f60205261117e612051610433610433600260408b20015473ffffffffffffffffffffffffffffffffffffffff1690565b9560405194859360208501977f7c1779dc000000000000000000000000000000000000000000000000000000008952602486019094939273ffffffffffffffffffffffffffffffffffffffff9060609382608085019816845260208401521660408201520152565b51915af46120c56125ca565b50156120cd57565b6040517f9becf85d00000000000000000000000000000000000000000000000000000000815260206004820152601760248201527f4c69625472616e736665722e5f62726964676553656e640000000000000000006044820152606490fd5b906121656007610311846000527f33ea8f700f9ca485fc65a69b25e04c222b4a03289fd0c98ba53848533a3e39a0602052604060002090565b61216e81611510565b1561231a575b60016121ae6007610311856000527f33ea8f700f9ca485fc65a69b25e04c222b4a03289fd0c98ba53848533a3e39a0602052604060002090565b6121b781611510565b14612260575b50806122186007610c587fe3bb8b6a10cd6f3d19108b8f000be77007825b16e073eb3a26cd8ccf3b6259a4946000527f33ea8f700f9ca485fc65a69b25e04c222b4a03289fd0c98ba53848533a3e39a0602052604060002090565b61225060076100eb836000527f33ea8f700f9ca485fc65a69b25e04c222b4a03289fd0c98ba53848533a3e39a0602052604060002090565b90611dfb60405192839283611527565b73ffffffffffffffffffffffffffffffffffffffff6122b061043360016101a7866000527f33ea8f700f9ca485fc65a69b25e04c222b4a03289fd0c98ba53848533a3e39a0602052604060002090565b9116036106425780612314610cc060046101a77fe3bb8b6a10cd6f3d19108b8f000be77007825b16e073eb3a26cd8ccf3b6259a4956000527f33ea8f700f9ca485fc65a69b25e04c222b4a03289fd0c98ba53848533a3e39a0602052604060002090565b906121bd565b600161235460076100eb856000527f33ea8f700f9ca485fc65a69b25e04c222b4a03289fd0c98ba53848533a3e39a0602052604060002090565b61235d81611392565b03610a6c5761239b610433610419846000527f33ea8f700f9ca485fc65a69b25e04c222b4a03289fd0c98ba53848533a3e39a0602052604060002090565b73ffffffffffffffffffffffffffffffffffffffff82160361052b576124616123f260046101a7856000527f33ea8f700f9ca485fc65a69b25e04c222b4a03289fd0c98ba53848533a3e39a0602052604060002090565b6008612427856000527f33ea8f700f9ca485fc65a69b25e04c222b4a03289fd0c98ba53848533a3e39a0602052604060002090565b0154610d2d60016101a7876000527f33ea8f700f9ca485fc65a69b25e04c222b4a03289fd0c98ba53848533a3e39a0602052604060002090565b612174565b908160209103126106c0575190565b6040513d6000823e3d90fd5b6040517f70a08231000000000000000000000000000000000000000000000000000000008152306004820152919273ffffffffffffffffffffffffffffffffffffffff9190911691602081602481865afa9081156125a25784906000926125a7575b506124f1919230908561272b565b6040517f70a0823100000000000000000000000000000000000000000000000000000000815230600482015291602090839060249082905afa80156125a25761254292600091612573575b506114f1565b0361254957565b7fc7e8fc500000000000000000000000000000000000000000000000000000000060005260046000fd5b612595915060203d60201161259b575b61258d818361140c565b810190612466565b3861253c565b503d612583565b612475565b6124f192506125c49060203d60201161259b5761258d818361140c565b916124e3565b3d15612623573d9067ffffffffffffffff821161144d576040519161261760207fffffffffffffffffffffffffffffffffffffffffffffffffffffffffffffffe0601f840116018461140c565b82523d6000602084013e565b606090565b6040517f70a08231000000000000000000000000000000000000000000000000000000008152306004820152919273ffffffffffffffffffffffffffffffffffffffff9190911691602081602481865afa9081156125a2578490600092612708575b50612696919284612826565b6040517f70a0823100000000000000000000000000000000000000000000000000000000815230600482015291602090839060249082905afa9081156125a257612542926000926126e757506114f1565b61270191925060203d60201161259b5761258d818361140c565b903861253c565b61269692506127259060203d60201161259b5761258d818361140c565b9161268a565b90919273ffffffffffffffffffffffffffffffffffffffff6114629481604051957f23b872dd00000000000000000000000000000000000000000000000000000000602088015216602486015216604484015260648301526064825261279260848361140c565b612883565b818102907fffffffffffffffffffffffffffffffffffffffffffffffffffffffffffffffff8382099082808310920391808303921461281b57816127101115612814577fbc01a36e2eb1c432ca57a786c226809d495182a9930be0ded288ce703afb7e9193612710910990828211900360fc1b910360041c170290565b601161290e565b506127109250500490565b6114629273ffffffffffffffffffffffffffffffffffffffff604051937fa9059cbb00000000000000000000000000000000000000000000000000000000602086015216602484015260448301526044825261279260648361140c565b906000602091828151910182855af115612475576000513d612905575073ffffffffffffffffffffffffffffffffffffffff81163b155b6128c15750565b73ffffffffffffffffffffffffffffffffffffffff907f5274afe7000000000000000000000000000000000000000000000000000000006000521660045260246000fd5b600114156128ba565b634e487b716000526020526024601cfdfea2646970667358221220cdf9549ce63f73f390395b17f2be8137954374333cc315c97f22851e803c06d364736f6c634300081c0033",
  "linkReferences": {},
  "deployedLinkReferences": {}
}