{
  "contracts/tokens/TokenMultiSend.sol": {
    "TokenMultiSend": {
      "abi": [
        {
          "inputs": [
            {
              "internalType": "address",
              "name": "token",
              "type": "address"
            }
          ],
          "name": "SafeERC20FailedOperation",
          "type": "error"
        },
        {
          "anonymous": false,
          "inputs": [
            {
              "indexed": false,
              "internalType": "address",
              "name": "distributor",
              "type": "address"
            },
            {
              "indexed": false,
              "internalType": "address",
              "name": "benefactor",
              "type": "address"
            },
            {
              "indexed": false,
              "internalType": "address",
              "name": "token",
              "type": "address"
            },
            {
              "indexed": false,
              "internalType": "uint256",
              "name": "amount",
              "type": "uint256"
            }
          ],
          "name": "Distributed",
          "type": "event"
        },
        {
          "inputs": [
            {
              "internalType": "address[]",
              "name": "_tokens",
              "type": "address[]"
            },
            {
              "internalType": "uint256",
              "name": "_val",
              "type": "uint256"
            },
            {
              "internalType": "address",
              "name": "_to",
              "type": "address"
            }
          ],
          "name": "send",
          "outputs": [],
          "stateMutability": "nonpayable",
          "type": "function"
        }
      ],
      "evm": {
        "bytecode": {
          "linkReferences": {},
          "object": "6080806040523460155761030e908161001b8239f35b600080fdfe6080604052600436101561001257600080fd5b60003560e01c632431adcc1461002757600080fd5b346102735760607ffffffffffffffffffffffffffffffffffffffffffffffffffffffffffffffffc3601126102735760043567ffffffffffffffff811161027357366023820112156102735780600401359067ffffffffffffffff8211610273576024810190602436918460051b010111610273576024356044359273ffffffffffffffffffffffffffffffffffffffff84168094036102735760005b8181106100cd57005b73ffffffffffffffffffffffffffffffffffffffff6100f56100f0838588610278565b6102b7565b166101046100f0838588610278565b6040519073ffffffffffffffffffffffffffffffffffffffff60208301917f23b872dd0000000000000000000000000000000000000000000000000000000083523360248501521660448301528560648301526064825260a082019082821067ffffffffffffffff83111761024457602092600092604052519082855af115610238576000513d61022f5750803b155b6102025750807f767a76cf38548696c4899acb67e2015902d6f0a05e029d5947b41a143b88a8ed60806101cd6100f0600195878a610278565b73ffffffffffffffffffffffffffffffffffffffff604051913383528a6020840152166040820152866060820152a1016100c4565b7f5274afe70000000000000000000000000000000000000000000000000000000060005260045260246000fd5b60011415610194565b6040513d6000823e3d90fd5b7f4e487b7100000000000000000000000000000000000000000000000000000000600052604160045260246000fd5b600080fd5b91908110156102885760051b0190565b7f4e487b7100000000000000000000000000000000000000000000000000000000600052603260045260246000fd5b3573ffffffffffffffffffffffffffffffffffffffff81168103610273579056fea2646970667358221220fff23f39ca46a27fcd1dc626065218483554006a079cb17239a4c2f4a9a4217a64736f6c634300081c0033",
          "opcodes": "PUSH1 0x80 DUP1 PUSH1 0x40 MSTORE CALLVALUE PUSH1 0x15 JUMPI PUSH2 0x30E SWAP1 DUP2 PUSH2 0x1B DUP3 CODECOPY RETURN JUMPDEST PUSH1 0x0 DUP1 REVERT INVALID PUSH1 0x80 PUSH1 0x40 MSTORE PUSH1 0x4 CALLDATASIZE LT ISZERO PUSH2 0x12 JUMPI PUSH1 0x0 DUP1 REVERT JUMPDEST PUSH1 0x0 CALLDATALOAD PUSH1 0xE0 SHR PUSH4 0x2431ADCC EQ PUSH2 0x27 JUMPI PUSH1 0x0 DUP1 REVERT JUMPDEST CALLVALUE PUSH2 0x273 JUMPI PUSH1 0x60 PUSH32 0xFFFFFFFFFFFFFFFFFFFFFFFFFFFFFFFFFFFFFFFFFFFFFFFFFFFFFFFFFFFFFFFC CALLDATASIZE ADD SLT PUSH2 0x273 JUMPI PUSH1 0x4 CALLDATALOAD PUSH8 0xFFFFFFFFFFFFFFFF DUP2 GT PUSH2 0x273 JUMPI CALLDATASIZE PUSH1 0x23 DUP3 ADD SLT ISZERO PUSH2 0x273 JUMPI DUP1 PUSH1 0x4 ADD CALLDATALOAD SWAP1 PUSH8 0xFFFFFFFFFFFFFFFF DUP3 GT PUSH2 0x273 JUMPI PUSH1 0x24 DUP2 ADD SWAP1 PUSH1 0x24 CALLDATASIZE SWAP2 DUP5 PUSH1 0x5 SHL ADD ADD GT PUSH2 0x273 JUMPI PUSH1 0x24 CALLDATALOAD PUSH1 0x44 CALLDATALOAD SWAP3 PUSH20 0xFFFFFFFFFFFFFFFFFFFFFFFFFFFFFFFFFFFFFFFF DUP5 AND DUP1 SWAP5 SUB PUSH2 0x273 JUMPI PUSH1 0x0 JUMPDEST DUP2 DUP2 LT PUSH2 0xCD JUMPI STOP JUMPDEST PUSH20 0xFFFFFFFFFFFFFFFFFFFFFFFFFFFFFFFFFFFFFFFF PUSH2 0xF5 PUSH2 0xF0 DUP4 DUP6 DUP9 PUSH2 0x278 JUMP JUMPDEST PUSH2 0x2B7 JUMP JUMPDEST AND PUSH2 0x104 PUSH2 0xF0 DUP4 DUP6 DUP9 PUSH2 0x278 JUMP JUMPDEST PUSH1 0x40 MLOAD SWAP1 PUSH20 0xFFFFFFFFFFFFFFFFFFFFFFFFFFFFFFFFFFFFFFFF PUSH1 0x20 DUP4 ADD SWAP2 PUSH32 0x23B872DD00000000000000000000000000000000000000000000000000000000 DUP4 MSTORE CALLER PUSH1 0x24 DUP6 ADD MSTORE AND PUSH1 0x44 DUP4 ADD MSTORE DUP6 PUSH1 0x64 DUP4 ADD MSTORE PUSH1 0x64 DUP3 MSTORE PUSH1 0xA0 DUP3 ADD SWAP1 DUP3 DUP3 LT PUSH8 0xFFFFFFFFFFFFFFFF DUP4 GT OR PUSH2 0x244 JUMPI PUSH1 0x20 SWAP3 PUSH1 0x0 SWAP3 PUSH1 0x40 MSTORE MLOAD SWAP1 DUP3 DUP6 GAS CALL ISZERO PUSH2 0x238 JUMPI PUSH1 0x0 MLOAD RETURNDATASIZE PUSH2 0x22F JUMPI POP DUP1 EXTCODESIZE ISZERO JUMPDEST PUSH2 0x202 JUMPI POP DUP1 PUSH32 0x767A76CF38548696C4899ACB67E2015902D6F0A05E029D5947B41A143B88A8ED PUSH1 0x80 PUSH2 0x1CD PUSH2 0xF0 PUSH1 0x1 SWAP6 DUP8 DUP11 PUSH2 0x278 JUMP JUMPDEST PUSH20 0xFFFFFFFFFFFFFFFFFFFFFFFFFFFFFFFFFFFFFFFF PUSH1 0x40 MLOAD SWAP2 CALLER DUP4 MSTORE DUP11 PUSH1 0x20 DUP5 ADD MSTORE AND PUSH1 0x40 DUP3 ADD MSTORE DUP7 PUSH1 0x60 DUP3 ADD MSTORE LOG1 ADD PUSH2 0xC4 JUMP JUMPDEST PUSH32 0x5274AFE700000000000000000000000000000000000000000000000000000000 PUSH1 0x0 MSTORE PUSH1 0x4 MSTORE PUSH1 0x24 PUSH1 0x0 REVERT JUMPDEST PUSH1 0x1 EQ ISZERO PUSH2 0x194 JUMP JUMPDEST PUSH1 0x40 MLOAD RETURNDATASIZE PUSH1 0x0 DUP3 RETURNDATACOPY RETURNDATASIZE SWAP1 REVERT JUMPDEST PUSH32 0x4E487B7100000000000000000000000000000000000000000000000000000000 PUSH1 0x0 MSTORE PUSH1 0x41 PUSH1 0x4 MSTORE PUSH1 0x24 PUSH1 0x0 REVERT JUMPDEST PUSH1 0x0 DUP1 REVERT JUMPDEST SWAP2 SWAP1 DUP2 LT ISZERO PUSH2 0x288 JUMPI PUSH1 0x5 SHL ADD SWAP1 JUMP JUMPDEST PUSH32 0x4E487B7100000000000000000000000000000000000000000000000000000000 PUSH1 0x0 MSTORE PUSH1 0x32 PUSH1 0x4 MSTORE PUSH1 0x24 PUSH1 0x0 REVERT JUMPDEST CALLDATALOAD PUSH20 0xFFFFFFFFFFFFFFFFFFFFFFFFFFFFFFFFFFFFFFFF DUP2 AND DUP2 SUB PUSH2 0x273 JUMPI SWAP1 JUMP INVALID LOG2 PUSH5 0x6970667358 0x22 SLT KECCAK256 SELFDESTRUCT CALLCODE EXTCODEHASH CODECOPY 0xCA CHAINID LOG2 PUSH32 0xCD1DC626065218483554006A079CB17239A4C2F4A9A4217A64736F6C63430008 SHR STOP CALLER "
        },
        "methodIdentifiers": {
          "send(address[],uint256,address)": "2431adcc"
        }
      }
    }
  }
}