{
  "_format": "hh-sol-artifact-1",
  "contractName": "AML",
  "sourceName": "contracts/modules/AML.sol",
  "abi": [
    {
      "inputs": [
        {
          "internalType": "uint256",
          "name": "_timeToEnd",
          "type": "uint256"
        }
      ],
      "name": "MinBlackListPeriodNotEnded",
      "type": "error"
    },
    {
      "inputs": [],
      "name": "UintUtils__InsufficientPadding",
      "type": "error"
    },
    {
      "anonymous": false,
      "inputs": [
        {
          "indexed": false,
          "internalType": "address",
          "name": "_address",
          "type": "address"
        },
        {
          "indexed": false,
          "internalType": "address",
          "name": "_agent",
          "type": "address"
        }
      ],
      "name": "BlacklistAdded",
      "type": "event"
    },
    {
      "anonymous": false,
      "inputs": [
        {
          "indexed": false,
          "internalType": "address",
          "name": "_address",
          "type": "address"
        },
        {
          "indexed": false,
          "internalType": "address",
          "name": "_agent",
          "type": "address"
        }
      ],
      "name": "BlacklistRemoved",
      "type": "event"
    },
    {
      "anonymous": false,
      "inputs": [
        {
          "indexed": true,
          "internalType": "bytes32",
          "name": "role",
          "type": "bytes32"
        },
        {
          "indexed": true,
          "internalType": "bytes32",
          "name": "previousAdminRole",
          "type": "bytes32"
        },
        {
          "indexed": true,
          "internalType": "bytes32",
          "name": "newAdminRole",
          "type": "bytes32"
        }
      ],
      "name": "RoleAdminChanged",
      "type": "event"
    },
    {
      "anonymous": false,
      "inputs": [
        {
          "indexed": true,
          "internalType": "bytes32",
          "name": "role",
          "type": "bytes32"
        },
        {
          "indexed": true,
          "internalType": "address",
          "name": "account",
          "type": "address"
        },
        {
          "indexed": true,
          "internalType": "address",
          "name": "sender",
          "type": "address"
        }
      ],
      "name": "RoleGranted",
      "type": "event"
    },
    {
      "anonymous": false,
      "inputs": [
        {
          "indexed": true,
          "internalType": "bytes32",
          "name": "role",
          "type": "bytes32"
        },
        {
          "indexed": true,
          "internalType": "address",
          "name": "account",
          "type": "address"
        },
        {
          "indexed": true,
          "internalType": "address",
          "name": "sender",
          "type": "address"
        }
      ],
      "name": "RoleRevoked",
      "type": "event"
    },
    {
      "inputs": [
        {
          "internalType": "address",
          "name": "_address",
          "type": "address"
        }
      ],
      "name": "addBlacklist",
      "outputs": [],
      "stateMutability": "nonpayable",
      "type": "function"
    },
    {
      "inputs": [
        {
          "internalType": "address",
          "name": "_address",
          "type": "address"
        }
      ],
      "name": "removeBlacklist",
      "outputs": [],
      "stateMutability": "nonpayable",
      "type": "function"
    }
  ],
  "bytecode": "0x60808060405234601557610775908161001b8239f35b600080fdfe6080604052600436101561001257600080fd5b60003560e01c80639cfe42da146101375763eb91e6511461003257600080fd5b346101325760207ffffffffffffffffffffffffffffffffffffffffffffffffffffffffffffffffc3601126101325760043573ffffffffffffffffffffffffffffffffffffffff811681036101325761012d7fb56b80ae09ee21321b1a61fa0172350e6be2e070e53b20991fcbdf514c9bf77b916100ae6102be565b600060016100fb8373ffffffffffffffffffffffffffffffffffffffff166000527fe27aca2c6cdc254ab519f1cc75ea8ed47b56af30e78973e34f7cbf0d9bb964eb602052604060002090565b82815501556040805173ffffffffffffffffffffffffffffffffffffffff909216825233602083015290918291820190565b0390a1005b600080fd5b346101325760207ffffffffffffffffffffffffffffffffffffffffffffffffffffffffffffffffc3601126101325760043573ffffffffffffffffffffffffffffffffffffffff811681036101325761018e6102be565b60405190604082019082821067ffffffffffffffff83111761028f577f16d3e73d99cc9bfeb6c9c26114e148836f8f970a84b0c84e7bb3eadd41444dfa9261012d92604052600181526001602082014281526102298473ffffffffffffffffffffffffffffffffffffffff166000527fe27aca2c6cdc254ab519f1cc75ea8ed47b56af30e78973e34f7cbf0d9bb964eb602052604060002090565b9251151560ff7fffffffffffffffffffffffffffffffffffffffffffffffffffffffffffffff0085541691161783555191015560405191829133908390929173ffffffffffffffffffffffffffffffffffffffff60209181604085019616845216910152565b7f4e487b7100000000000000000000000000000000000000000000000000000000600052604160045260246000fd5b3360009081527f52249beea68726a8dafa5628b889b553a8110a6d4d7510b67a252576be2417896020526040902054156102f457565b33602a6000610302826106c5565b926103106040519485610661565b82845261031c836106c5565b927fffffffffffffffffffffffffffffffffffffffffffffffffffffffffffffffe06020860194013685378451156105cd57603084538451600110156105cd57607860218601535b600281116105fa5750610511575060427faa61357321a698da7ab5496bba01e1e7cb3f168957c8fc1e994626c7487ee76660006103a0836106c5565b916103ae6040519384610661565b8383526103ba846106c5565b937fffffffffffffffffffffffffffffffffffffffffffffffffffffffffffffffe06020850195013686378351156105cd57603085538351600110156105cd57607860218501535b6002811161053957506105115761050860446104b77fffffffffffffffffffffffffffffffffffffffffffffffffffffffffffffffe0601f896104c660118b60378c8c604051998a9461048260208701997f416363657373436f6e74726f6c3a206163636f756e74200000000000000000008b52518092878901906106a2565b8501917f206973206d697373696e6720726f6c65200000000000000000000000000000008584015251809360488401906106a2565b01010301848101865285610661565b6040519586947f08c379a000000000000000000000000000000000000000000000000000000000865260206004870152518092816024880152878701906106a2565b01168101030190fd5b807fab409fe20000000000000000000000000000000000000000000000000000000060049252fd5b7fffffffffffffffffffffffffffffffffffffffffffffffffffffffffffffffff0190600f811660108110156105a0577f3031323334353637383961626364656600000000000000000000000000000000901a61059683866106ff565b5360041c90610402565b6024847f4e487b710000000000000000000000000000000000000000000000000000000081526032600452fd5b6024837f4e487b710000000000000000000000000000000000000000000000000000000081526032600452fd5b7fffffffffffffffffffffffffffffffffffffffffffffffffffffffffffffffff0190600f811660108110156105a0577f3031323334353637383961626364656600000000000000000000000000000000901a61065783876106ff565b5360041c90610364565b90601f7fffffffffffffffffffffffffffffffffffffffffffffffffffffffffffffffe0910116810190811067ffffffffffffffff82111761028f57604052565b60005b8381106106b55750506000910152565b81810151838201526020016106a5565b67ffffffffffffffff811161028f57601f017fffffffffffffffffffffffffffffffffffffffffffffffffffffffffffffffe01660200190565b908151811015610710570160200190565b7f4e487b7100000000000000000000000000000000000000000000000000000000600052603260045260246000fdfea2646970667358221220c07b2e2d4ac74d91306073fe5df23f67484e6c7814c31c6304bfa6866d45632664736f6c634300081c0033",
  "linkReferences": {},
  "deployedLinkReferences": {}
}