{
  "_format": "hh-sol-artifact-1",
  "contractName": "DummySender",
  "sourceName": "contracts/tokens/cross_chain_senders/DummySender.sol",
  "abi": [
    {
      "inputs": [],
      "name": "ProtocolInvariantCheckFailed",
      "type": "error"
    },
    {
      "inputs": [
        {
          "internalType": "address",
          "name": "token",
          "type": "address"
        }
      ],
      "name": "SafeERC20FailedOperation",
      "type": "error"
    },
    {
      "inputs": [
        {
          "internalType": "address",
          "name": "",
          "type": "address"
        },
        {
          "internalType": "uint256[]",
          "name": "",
          "type": "uint256[]"
        }
      ],
      "name": "addSupport",
      "outputs": [],
      "stateMutability": "nonpayable",
      "type": "function"
    },
    {
      "inputs": [
        {
          "internalType": "address",
          "name": "",
          "type": "address"
        },
        {
          "internalType": "uint256[]",
          "name": "",
          "type": "uint256[]"
        }
      ],
      "name": "removeSupport",
      "outputs": [],
      "stateMutability": "nonpayable",
      "type": "function"
    },
    {
      "inputs": [
        {
          "internalType": "address",
          "name": "_token",
          "type": "address"
        },
        {
          "internalType": "uint256",
          "name": "_amount",
          "type": "uint256"
        },
        {
          "internalType": "address",
          "name": "_to",
          "type": "address"
        },
        {
          "internalType": "uint256",
          "name": "",
          "type": "uint256"
        }
      ],
      "name": "send",
      "outputs": [],
      "stateMutability": "nonpayable",
      "type": "function"
    },
    {
      "inputs": [
        {
          "internalType": "address",
          "name": "",
          "type": "address"
        },
        {
          "internalType": "uint256",
          "name": "",
          "type": "uint256"
        }
      ],
      "name": "supportsChain",
      "outputs": [
        {
          "internalType": "bool",
          "name": "",
          "type": "bool"
        }
      ],
      "stateMutability": "pure",
      "type": "function"
    }
  ],
  "bytecode": "0x60808060405234601557610470908161001b8239f35b600080fdfe608080604052600436101561001357600080fd5b60003560e01c908163540b3d4c146100935781637c1779dc1461009857508063bd6a6da1146100935763bdaa4e3b1461004b57600080fd5b3461008e5760407ffffffffffffffffffffffffffffffffffffffffffffffffffffffffffffffffc36011261008e57610082610310565b50602060405160018152f35b600080fd5b610333565b3461008e5760807ffffffffffffffffffffffffffffffffffffffffffffffffffffffffffffffffc36011261008e576100cf610310565b90602435916044359073ffffffffffffffffffffffffffffffffffffffff821680920361008e5773ffffffffffffffffffffffffffffffffffffffff16907f70a08231000000000000000000000000000000000000000000000000000000008352306004840152602083602481855afa928315610296576000936102d8575b506000602091604051838101917fa9059cbb0000000000000000000000000000000000000000000000000000000083526024820152866044820152604481526101986064826103ca565b519082855af115610296576000513d6102cf5750803b155b6102a2576020602491604051928380927f70a082310000000000000000000000000000000000000000000000000000000082523060048301525afa90811561029657600091610264575b508103908111610235570361020b57005b7fc7e8fc500000000000000000000000000000000000000000000000000000000060005260046000fd5b7f4e487b7100000000000000000000000000000000000000000000000000000000600052601160045260246000fd5b90506020813d60201161028e575b8161027f602093836103ca565b8101031261008e5751836101fa565b3d9150610272565b6040513d6000823e3d90fd5b7f5274afe70000000000000000000000000000000000000000000000000000000060005260045260246000fd5b600114156101b0565b90926020823d602011610308575b816102f3602093836103ca565b8101031261030557505191600061014e565b80fd5b3d91506102e6565b6004359073ffffffffffffffffffffffffffffffffffffffff8216820361008e57565b3461008e57600060407ffffffffffffffffffffffffffffffffffffffffffffffffffffffffffffffffc360112610305576004359073ffffffffffffffffffffffffffffffffffffffff8216820361030557505060243567ffffffffffffffff811161008e573660238201121561008e5780600401359067ffffffffffffffff821161008e573660248360051b8301011161008e57005b90601f7fffffffffffffffffffffffffffffffffffffffffffffffffffffffffffffffe0910116810190811067ffffffffffffffff82111761040b57604052565b7f4e487b7100000000000000000000000000000000000000000000000000000000600052604160045260246000fdfea264697066735822122098d85af29d3b45c669a3814cf5f69893588e06163a37a5f7d87a64cd8ce2d62b64736f6c634300081c0033",
  "linkReferences": {},
  "deployedLinkReferences": {}
}