{
  "_format": "hh-sol-artifact-1",
  "contractName": "IExchangeP2P",
  "sourceName": "contracts/IExchangeP2P.sol",
  "abi": [
    {
      "inputs": [
        {
          "internalType": "address",
          "name": "_contractOwner",
          "type": "address"
        },
        {
          "internalType": "address",
          "name": "_diamondCutFacet",
          "type": "address"
        }
      ],
      "stateMutability": "payable",
      "type": "constructor"
    },
    {
      "inputs": [
        {
          "internalType": "address",
          "name": "_initializationContractAddress",
          "type": "address"
        },
        {
          "internalType": "bytes",
          "name": "_calldata",
          "type": "bytes"
        }
      ],
      "name": "InitializationFunctionReverted",
      "type": "error"
    },
    {
      "anonymous": false,
      "inputs": [
        {
          "components": [
            {
              "internalType": "address",
              "name": "facetAddress",
              "type": "address"
            },
            {
              "internalType": "enum IDiamondCut.FacetCutAction",
              "name": "action",
              "type": "uint8"
            },
            {
              "internalType": "bytes4[]",
              "name": "functionSelectors",
              "type": "bytes4[]"
            }
          ],
          "indexed": false,
          "internalType": "struct IDiamondCut.FacetCut[]",
          "name": "_diamondCut",
          "type": "tuple[]"
        },
        {
          "indexed": false,
          "internalType": "address",
          "name": "_init",
          "type": "address"
        },
        {
          "indexed": false,
          "internalType": "bytes",
          "name": "_calldata",
          "type": "bytes"
        }
      ],
      "name": "DiamondCut",
      "type": "event"
    },
    {
      "anonymous": false,
      "inputs": [
        {
          "indexed": true,
          "internalType": "address",
          "name": "previousOwner",
          "type": "address"
        },
        {
          "indexed": true,
          "internalType": "address",
          "name": "newOwner",
          "type": "address"
        }
      ],
      "name": "OwnershipTransferred",
      "type": "event"
    },
    {
      "stateMutability": "payable",
      "type": "fallback"
    },
    {
      "inputs": [],
      "name": "DOMAIN_NAME",
      "outputs": [
        {
          "internalType": "bytes32",
          "name": "",
          "type": "bytes32"
        }
      ],
      "stateMutability": "view",
      "type": "function"
    },
    {
      "inputs": [],
      "name": "DOMAIN_VERSION",
      "outputs": [
        {
          "internalType": "bytes32",
          "name": "",
          "type": "bytes32"
        }
      ],
      "stateMutability": "view",
      "type": "function"
    },
    {
      "inputs": [],
      "name": "domainSeparator",
      "outputs": [
        {
          "internalType": "bytes32",
          "name": "",
          "type": "bytes32"
        }
      ],
      "stateMutability": "view",
      "type": "function"
    },
    {
      "stateMutability": "payable",
      "type": "receive"
    }
  ],
  "bytecode": "0x60a060405261133660408138039182610017816101f7565b9384928339810103126101b8578061003d60206100366101169461021c565b920161021c565b7fc8fcad8db84d3cc18b4c41d551ea0ee66dd599cde068d998e57d5e09332c132080546001600160a01b039384166001600160a01b03198216811790925591929091167f8be0079c531659141344cd1fd0a4f28419497f9722a3daafe3b4186f6b6457e0600080a36100ad610230565b906100b661027d565b6100ce6100c2826102b0565b6307e4c70760e21b9052565b6100e86100d96101d3565b6001600160a01b039093168352565b6000602083015260408201526100fd826102b0565b52610107816102b0565b50610110610311565b90610461565b61019d60a06040517f8b73c3c69bb8fe3d512ecc4cf759cc79239f7b179b0ffacaa9a75d522b39400f81527f03c29967dc1ec387c86cb32e2d942a047a54b4d2a64b4fea68f9345b7f8089da60208201527ff9446b8e937d86f0bc87cac73923491692b123ca5f8761908494703758206adf60408201524660608201523060808201522090565b608052604051610260908161105682396080518161012d0152f35b600080fd5b634e487b7160e01b600052604160045260246000fd5b60405190606082016001600160401b038111838210176101f257604052565b6101bd565b6040519190601f01601f191682016001600160401b038111838210176101f257604052565b51906001600160a01b03821682036101b857565b60409061023c826101f7565b6001815291601f19018260005b82811061025557505050565b6020906102606101d3565b600081526000838201526060604082015282828501015201610249565b604090610289826101f7565b6001815291601f1901366020840137565b634e487b7160e01b600052603260045260246000fd5b8051156102bd5760200190565b61029a565b80518210156102bd5760209160051b010190565b600311156102e057565b634e487b7160e01b600052602160045260246000fd5b6001600160401b0381116101f257601f01601f191660200190565b61031b60206101f7565b9060008252565b5160038110156102e05790565b919082519283825260005b84811061035b575050826000602080949584010152601f8019910116010190565b8060208092840101518282860101520161033a565b9392909193606081016060825283518091526080820190602060808260051b8501019501916000905b8282106103ca575050506001600160a01b0390951660208201529293506103c792604081840391015261032f565b90565b848703607f19018152835180516001600160a01b0316885260208101519497939492939192606083019160038210156102e057604060809160209384870152015193606060408201528451809452019201906000905b80821061043e57505050602080600192980192019201909291610399565b82516001600160e01b031916845260209384019390920191600190910190610420565b91906104876104806000805160206112f68339815191525461ffff1690565b61ffff1690565b908192600091600784166105ae575b9091926000935b86518510156105035760019392916104f6916104ca6104bc888b6102c2565b51516001600160a01b031690565b6104e060206104d98a8d6102c2565b5101610322565b9160406104ed8a8d6102c2565b510151936109e7565b939094019390919261049d565b60009294507f8faa70878671ccd212d20771b795c50af8fd3ff6cf27f4bde57e5d4de0aeb67393969161055c96810361058b575b6007811661055e575b50506105528460405193849384610370565b0390a16000610f7b565b565b6105839060031c5b600052600080516020611316833981519152602052604060002090565b553880610540565b6000805160206112f6833981519152805461ffff191661ffff8316179055610537565b91506105bd6105668460031c90565b5491610496565b156105cb57565b60405162461bcd60e51b815260206004820152602b60248201527f4c69624469616d6f6e644375743a204e6f2073656c6563746f727320696e206660448201526a1858d95d081d1bc818dd5d60aa1b6064820152608490fd5b1561062b57565b60405162461bcd60e51b815260206004820152603660248201527f4c69624469616d6f6e644375743a2052656d6f7665206661636574206164647260448201527f657373206d7573742062652061646472657373283029000000000000000000006064820152608490fd5b634e487b7160e01b600052601160045260246000fd5b80156106b9576000190190565b610696565b156106c557565b60405162461bcd60e51b815260206004820152603760248201527f4c69624469616d6f6e644375743a2043616e27742072656d6f76652066756e6360448201527f74696f6e207468617420646f65736e27742065786973740000000000000000006064820152608490fd5b1561073757565b60405162461bcd60e51b815260206004820152602e60248201527f4c69624469616d6f6e644375743a2043616e27742072656d6f766520696d6d7560448201526d3a30b1363290333ab731ba34b7b760911b6064820152608490fd5b908160031b91808304600814901517156106b957565b919082018092116106b957565b6107c060606101f7565b906028825267206e6f20636f646560c01b6040837f4c69624469616d6f6e644375743a205265706c6163652066616365742068617360208201520152565b1561080557565b60405162461bcd60e51b815260206004820152602f60248201527f4c69624469616d6f6e644375743a2043616e2774207265706c61636520696d6d60448201526e3aba30b1363290333ab731ba34b7b760891b6064820152608490fd5b1561086957565b60405162461bcd60e51b815260206004820152603860248201526000805160206112b683398151915260448201527f6374696f6e20776974682073616d652066756e6374696f6e00000000000000006064820152608490fd5b156108c957565b60405162461bcd60e51b815260206004820152603860248201526000805160206112b683398151915260448201527f6374696f6e207468617420646f65736e277420657869737400000000000000006064820152608490fd5b61092c60606101f7565b906024825263636f646560e01b6040837f4c69624469616d6f6e644375743a2041646420666163657420686173206e6f2060208201520152565b1561096d57565b60405162461bcd60e51b815260206004820152603560248201527f4c69624469616d6f6e644375743a2043616e2774206164642066756e6374696f60448201527f6e207468617420616c72656164792065786973747300000000000000000000006064820152608490fd5b60001981146106b95760010190565b92949390946109f8825115156105c4565b610a01816102d6565b80610b365750610a18610a12610922565b83611028565b6000925b8151841015610b2e5760e0610a42610a3486856102c2565b516001600160e01b03191690565b96610a9f610a99610a8d610a87610a798c63ffffffff60e01b166000526000805160206112d6833981519152602052604060002090565b546001600160601b03191690565b60601c90565b6001600160a01b031690565b15610966565b6001600160e01b0319881660009081526000805160206112d683398151915260205260409020606086901b6001600160601b03191684179055610ae56007841660051b90565b9763ffffffff831b16881c9063ffffffff831b891c1916179614610b17575b610b0f6001916109d8565b930192610a1c565b94610b256105668760031c90565b55600094610b04565b925050509190565b610b45819693949592966102d6565b60018103610c225750610b5f610b596107b6565b84611028565b60005b8551811015610c195780610b7b610a34600193896102c2565b610c12610ba88263ffffffff60e01b166000526000805160206112d6833981519152602052604060002090565b54610bd68160601c610bbc308214156107fe565b610bcf878060a01b038b16821415610862565b15156108c2565b848060601b03198860601b1690858060601b0316179163ffffffff60e01b166000526000805160206112d6833981519152602052604060002090565b5501610b62565b50929350919050565b80610c35600292979497969593966102d6565b03610ed457909190610c50906001600160a01b031615610624565b6007610c5c8260031c90565b9116936000945b8351861015610eba5780610ea5575050610c7c906106ac565b90610c9e82600052600080516020611316833981519152602052604060002090565b54936007905b610cb1610a3482856102c2565b6001600160e01b0319811660009081526000805160206112d6833981519152602052604090205490610cf38260601c610ceb8115156106be565b301415610730565b6000610d52610d138a610d068860051b90565b1b63ffffffff60e01b1690565b6001600160e01b031980821694919082168503610e2d575b5063ffffffff60e01b166000526000805160206112d6833981519152602052604060002090565b55610d6e6007610d6661ffff851660031c90565b931660051b90565b90828714610e105790610dcc91610d9c84600052600080516020611316833981519152602052604060002090565b5490821c9163ffffffff60e01b901c19161791600052600080516020611316833981519152602052604060002090565b555b8115610de2575b6001019490929192610c63565b94506000610e0784600052600080516020611316833981519152602052604060002090565b55600094610dd5565b6001600160e01b0319821c1990981697901c969096179550610dce565b610e9e610e6d610e60610a798463ffffffff60e01b166000526000805160206112d6833981519152602052604060002090565b6001600160601b03191690565b60018060601b038816179163ffffffff60e01b166000526000805160206112d6833981519152602052604060002090565b5538610d2b565b610eb4909591959392936106ac565b90610ca4565b91610ecb919550610ed09350610793565b6107a9565b9190565b60405162461bcd60e51b815260206004820152602760248201527f4c69624469616d6f6e644375743a20496e636f727265637420466163657443756044820152663a20b1ba34b7b760c91b606482015280608481015b0390fd5b3d15610f54573d90610f47610f42836102f6565b6101f7565b9182523d6000602084013e565b606090565b6001600160a01b0390911681526040602082018190526103c79291019061032f565b906001600160a01b0382161561102457610fd9610f9860606101f7565b602881527f4c69624469616d6f6e644375743a205f696e6974206164647265737320686173602082015267206e6f20636f646560c01b604082015283611028565b600080825160208401855af491610fee610f2e565b9215610ff957505050565b82511561100857825160208401fd5b610f2a60405192839263192105d760e01b845260048401610f59565b5050565b3b156110315750565b60405162461bcd60e51b815260206004820152908190610f2a90602483019061032f56fe60806040526004361015610015575b3661015057005b60003560e01c8063796f077b1461009e578063acb8cc49146100405763f698da250361000e576100f7565b346100995760007ffffffffffffffffffffffffffffffffffffffffffffffffffffffffffffffffc3601126100995760206040517ff9446b8e937d86f0bc87cac73923491692b123ca5f8761908494703758206adf8152f35b600080fd5b346100995760007ffffffffffffffffffffffffffffffffffffffffffffffffffffffffffffffffc360112610099577f03c29967dc1ec387c86cb32e2d942a047a54b4d2a64b4fea68f9345b7f8089da60805260206080f35b346100995760007ffffffffffffffffffffffffffffffffffffffffffffffffffffffffffffffffc3601126100995760206040517f00000000000000000000000000000000000000000000000000000000000000008152f35b7fffffffff00000000000000000000000000000000000000000000000000000000600035166000527fc8fcad8db84d3cc18b4c41d551ea0ee66dd599cde068d998e57d5e09332c131c60205260406000205460601c80156101cc5760008091368280378136915af43d6000803e156101c7573d6000f35b3d6000fd5b60646040517f08c379a000000000000000000000000000000000000000000000000000000000815260206004820152602060248201527f4469616d6f6e643a2046756e6374696f6e20646f6573206e6f742065786973746044820152fdfea26469706673582212202ff59b3c926ab5c1915a29c5997f4843076a16a33bf23799ef7cb449287369eb64736f6c634300081c00334c69624469616d6f6e644375743a2043616e2774207265706c6163652066756ec8fcad8db84d3cc18b4c41d551ea0ee66dd599cde068d998e57d5e09332c131cc8fcad8db84d3cc18b4c41d551ea0ee66dd599cde068d998e57d5e09332c131ec8fcad8db84d3cc18b4c41d551ea0ee66dd599cde068d998e57d5e09332c131d",
  "linkReferences": {},
  "deployedLinkReferences": {}
}