{
  "_format": "hh-sol-artifact-1",
  "contractName": "Merchant",
  "sourceName": "contracts/modules/Merchant.sol",
  "abi": [
    {
      "inputs": [],
      "name": "AddressAlreadyMerchant",
      "type": "error"
    },
    {
      "inputs": [],
      "name": "InactiveMerchant",
      "type": "error"
    },
    {
      "inputs": [],
      "name": "InvalidMerchantStake",
      "type": "error"
    },
    {
      "inputs": [],
      "name": "InvalidStakeToken",
      "type": "error"
    },
    {
      "inputs": [],
      "name": "MerchantAlreadStaked",
      "type": "error"
    },
    {
      "inputs": [],
      "name": "MerchantConcurrencyReached",
      "type": "error"
    },
    {
      "inputs": [],
      "name": "MerchantHasActiveOrders",
      "type": "error"
    },
    {
      "inputs": [],
      "name": "MerchantNotAddressOwner",
      "type": "error"
    },
    {
      "inputs": [],
      "name": "ProtocolInvariantCheckFailed",
      "type": "error"
    },
    {
      "inputs": [
        {
          "internalType": "address",
          "name": "token",
          "type": "address"
        }
      ],
      "name": "SafeERC20FailedOperation",
      "type": "error"
    },
    {
      "inputs": [],
      "name": "ZeroAddress",
      "type": "error"
    },
    {
      "anonymous": false,
      "inputs": [
        {
          "indexed": false,
          "internalType": "address",
          "name": "merchant",
          "type": "address"
        },
        {
          "indexed": false,
          "internalType": "address",
          "name": "addr",
          "type": "address"
        }
      ],
      "name": "MerchantAddedAddress",
      "type": "event"
    },
    {
      "anonymous": false,
      "inputs": [
        {
          "indexed": false,
          "internalType": "address",
          "name": "merchant",
          "type": "address"
        },
        {
          "indexed": false,
          "internalType": "address",
          "name": "addr",
          "type": "address"
        }
      ],
      "name": "MerchantRemovedAddress",
      "type": "event"
    },
    {
      "anonymous": false,
      "inputs": [
        {
          "indexed": false,
          "internalType": "address",
          "name": "merchant",
          "type": "address"
        },
        {
          "indexed": false,
          "internalType": "address",
          "name": "token",
          "type": "address"
        },
        {
          "indexed": false,
          "internalType": "uint256",
          "name": "amount",
          "type": "uint256"
        }
      ],
      "name": "MerchantStaked",
      "type": "event"
    },
    {
      "anonymous": false,
      "inputs": [
        {
          "indexed": false,
          "internalType": "address",
          "name": "merchant",
          "type": "address"
        },
        {
          "indexed": false,
          "internalType": "address",
          "name": "token",
          "type": "address"
        },
        {
          "indexed": false,
          "internalType": "uint256",
          "name": "amount",
          "type": "uint256"
        }
      ],
      "name": "MerchantUnstaked",
      "type": "event"
    },
    {
      "inputs": [
        {
          "internalType": "address",
          "name": "_addr",
          "type": "address"
        }
      ],
      "name": "addAddress",
      "outputs": [],
      "stateMutability": "nonpayable",
      "type": "function"
    },
    {
      "inputs": [
        {
          "internalType": "address",
          "name": "_addr",
          "type": "address"
        }
      ],
      "name": "removeAddress",
      "outputs": [],
      "stateMutability": "nonpayable",
      "type": "function"
    },
    {
      "inputs": [
        {
          "internalType": "address",
          "name": "_token",
          "type": "address"
        }
      ],
      "name": "stake",
      "outputs": [],
      "stateMutability": "nonpayable",
      "type": "function"
    },
    {
      "inputs": [
        {
          "internalType": "address",
          "name": "_token",
          "type": "address"
        }
      ],
      "name": "unstake",
      "outputs": [],
      "stateMutability": "nonpayable",
      "type": "function"
    }
  ],
  "bytecode": "0x60808060405234601557611239908161001b8239f35b600080fdfe6080604052600436101561001257600080fd5b60003560e01c8063264762041461091f57806338eada1c146106965780634ba79dfe146104905763f2888dbb1461004857600080fd5b3461033b5760207ffffffffffffffffffffffffffffffffffffffffffffffffffffffffffffffffc36011261033b5760043573ffffffffffffffffffffffffffffffffffffffff811680820361033b576100a23383610df9565b6100ab33610fab565b8173ffffffffffffffffffffffffffffffffffffffff6001830154160361046657600381015461043c57600201549061013e6101263373ffffffffffffffffffffffffffffffffffffffff166000527f33ea8f700f9ca485fc65a69b25e04c222b4a03289fd0c98ba53848533a3e39a3602052604060002090565b60036000918281558260018201558260028201550155565b73ffffffffffffffffffffffffffffffffffffffff61019c3373ffffffffffffffffffffffffffffffffffffffff166000527f33ea8f700f9ca485fc65a69b25e04c222b4a03289fd0c98ba53848533a3e39a3602052604060002090565b5460081c16610389575b604051907f70a08231000000000000000000000000000000000000000000000000000000008252306004830152602082602481845afa91821561034857600092610354575b50602060249161023c6040517fa9059cbb0000000000000000000000000000000000000000000000000000000084820152338582015286604482015260448152610236606482610db8565b82611178565b604051928380927f70a082310000000000000000000000000000000000000000000000000000000082523060048301525afa801561034857839160009161030c575b506102899192610f6f565b036102e2576040805133815273ffffffffffffffffffffffffffffffffffffffff90931660208401528201527fb04de472a663ab6b098d5cc6c3ab7339a5bb659b84cce70325efb5dffc45c0a49080606081015b0390a1005b7fc7e8fc500000000000000000000000000000000000000000000000000000000060005260046000fd5b9150506020813d602011610340575b8161032860209383610db8565b8101031261033b5751829061028961027e565b600080fd5b3d915061031b565b6040513d6000823e3d90fd5b9091506020813d602011610381575b8161037060209383610db8565b8101031261033b57519060206101eb565b3d9150610363565b61043761012673ffffffffffffffffffffffffffffffffffffffff6103ed3373ffffffffffffffffffffffffffffffffffffffff166000527f33ea8f700f9ca485fc65a69b25e04c222b4a03289fd0c98ba53848533a3e39a3602052604060002090565b5460081c1673ffffffffffffffffffffffffffffffffffffffff166000527f33ea8f700f9ca485fc65a69b25e04c222b4a03289fd0c98ba53848533a3e39a3602052604060002090565b6101a6565b7f1479c7b80000000000000000000000000000000000000000000000000000000060005260046000fd5b7f29d870260000000000000000000000000000000000000000000000000000000060005260046000fd5b3461033b5760207ffffffffffffffffffffffffffffffffffffffffffffffffffffffffffffffffc36011261033b5760043573ffffffffffffffffffffffffffffffffffffffff8116810361033b576104e93382610df9565b60ff6105348273ffffffffffffffffffffffffffffffffffffffff166000527f33ea8f700f9ca485fc65a69b25e04c222b4a03289fd0c98ba53848533a3e39a3602052604060002090565b54161561066c573373ffffffffffffffffffffffffffffffffffffffff61059a8373ffffffffffffffffffffffffffffffffffffffff166000527f33ea8f700f9ca485fc65a69b25e04c222b4a03289fd0c98ba53848533a3e39a3602052604060002090565b5460081c1603610642576102dd816106156101267f14171b01d79fbb4bd4fbae62f651d24fa5709b5734792bd603adc6ca8754aaa79473ffffffffffffffffffffffffffffffffffffffff166000527f33ea8f700f9ca485fc65a69b25e04c222b4a03289fd0c98ba53848533a3e39a3602052604060002090565b6040805133815273ffffffffffffffffffffffffffffffffffffffff909216602083015290918291820190565b7f7d2ac0310000000000000000000000000000000000000000000000000000000060005260046000fd5b7f46f776210000000000000000000000000000000000000000000000000000000060005260046000fd5b3461033b5760207ffffffffffffffffffffffffffffffffffffffffffffffffffffffffffffffffc36011261033b5760043573ffffffffffffffffffffffffffffffffffffffff8116810361033b576106ef3382610df9565b60ff61073a8273ffffffffffffffffffffffffffffffffffffffff166000527f33ea8f700f9ca485fc65a69b25e04c222b4a03289fd0c98ba53848533a3e39a3602052604060002090565b54166108f55760405161074c81610d9c565b600081526000602082015260405191608083019280841067ffffffffffffffff8511176108c65760036102dd937fba850b391441605c50d1dbeec1012c88dea6ff98e86f9887ebb7240d1ee430929560405260018352602080840191338352604085019081526060850192600084526108048773ffffffffffffffffffffffffffffffffffffffff166000527f33ea8f700f9ca485fc65a69b25e04c222b4a03289fd0c98ba53848533a3e39a3602052604060002090565b9551865491517fffffffffffffffffffffff00000000000000000000000000000000000000000090921660ff911515919091161760089190911b74ffffffffffffffffffffffffffffffffffffffff00161785555180516001860180547fffffffffffffffffffffffff00000000000000000000000000000000000000001673ffffffffffffffffffffffffffffffffffffffff9283161790559101516002850155905191909201556040805133815292909116602083015290918291820190565b7f4e487b7100000000000000000000000000000000000000000000000000000000600052604160045260246000fd5b7fe903c7860000000000000000000000000000000000000000000000000000000060005260046000fd5b3461033b5760207ffffffffffffffffffffffffffffffffffffffffffffffffffffffffffffffffc36011261033b5760043573ffffffffffffffffffffffffffffffffffffffff811680820361033b576109793383610df9565b61098233610e5b565b6001810180549173ffffffffffffffffffffffffffffffffffffffff8316610d72578373ffffffffffffffffffffffffffffffffffffffff610a038773ffffffffffffffffffffffffffffffffffffffff166000527f33ea8f700f9ca485fc65a69b25e04c222b4a03289fd0c98ba53848533a3e399f602052604060002090565b5416036104665760009260039260017fffffffffffffffffffffffffffffffffffffffffffffffffffffffffffffff00845416178355857fffffffffffffffffffffffff00000000000000000000000000000000000000006001610aa68a73ffffffffffffffffffffffffffffffffffffffff166000527f33ea8f700f9ca485fc65a69b25e04c222b4a03289fd0c98ba53848533a3e399f602052604060002090565b015493846020604051610ab881610d9c565b85815201521617905560028201557fffffffffffffffffffffff0000000000000000000000000000000000000000ff815416815501556001610b398373ffffffffffffffffffffffffffffffffffffffff166000527f33ea8f700f9ca485fc65a69b25e04c222b4a03289fd0c98ba53848533a3e399f602052604060002090565b015490604051907f70a08231000000000000000000000000000000000000000000000000000000008252306004830152602082602481845afa91821561034857600092610d3d575b50906020602492610c1a6040517f23b872dd000000000000000000000000000000000000000000000000000000008482015261023681610bee8930338b850173ffffffffffffffffffffffffffffffffffffffff6040929594938160608401971683521660208201520152565b037fffffffffffffffffffffffffffffffffffffffffffffffffffffffffffffffe08101835282610db8565b604051938480927f70a082310000000000000000000000000000000000000000000000000000000082523060048301525afa801561034857600090610d09575b610c649250610f6f565b036102e257806001610cd67f4af6e1f39ca2b51dee884d92d8372cb6071d39b1d62f4d3dba8b6f7309e4c6b59373ffffffffffffffffffffffffffffffffffffffff166000527f33ea8f700f9ca485fc65a69b25e04c222b4a03289fd0c98ba53848533a3e399f602052604060002090565b01546040805133815273ffffffffffffffffffffffffffffffffffffffff909316602084015282015280606081016102dd565b506020823d602011610d35575b81610d2360209383610db8565b8101031261033b57610c649151610c5a565b3d9150610d16565b91506020823d602011610d6a575b81610d5860209383610db8565b8101031261033b579051906020610b81565b3d9150610d4b565b7f3042ce610000000000000000000000000000000000000000000000000000000060005260046000fd5b6040810190811067ffffffffffffffff8211176108c657604052565b90601f7fffffffffffffffffffffffffffffffffffffffffffffffffffffffffffffffe0910116810190811067ffffffffffffffff8211176108c657604052565b73ffffffffffffffffffffffffffffffffffffffff1615610e315773ffffffffffffffffffffffffffffffffffffffff1615610e3157565b7fd92e233d0000000000000000000000000000000000000000000000000000000060005260046000fd5b73ffffffffffffffffffffffffffffffffffffffff610eb98273ffffffffffffffffffffffffffffffffffffffff166000527f33ea8f700f9ca485fc65a69b25e04c222b4a03289fd0c98ba53848533a3e39a3602052604060002090565b5460081c16610f0e57610f0b9073ffffffffffffffffffffffffffffffffffffffff166000527f33ea8f700f9ca485fc65a69b25e04c222b4a03289fd0c98ba53848533a3e39a3602052604060002090565b90565b73ffffffffffffffffffffffffffffffffffffffff6103ed610f0b9273ffffffffffffffffffffffffffffffffffffffff166000527f33ea8f700f9ca485fc65a69b25e04c222b4a03289fd0c98ba53848533a3e39a3602052604060002090565b91908203918211610f7c57565b7f4e487b7100000000000000000000000000000000000000000000000000000000600052601160045260246000fd5b60ff610ff68273ffffffffffffffffffffffffffffffffffffffff166000527f33ea8f700f9ca485fc65a69b25e04c222b4a03289fd0c98ba53848533a3e39a3602052604060002090565b54161561066c5773ffffffffffffffffffffffffffffffffffffffff61105b8273ffffffffffffffffffffffffffffffffffffffff166000527f33ea8f700f9ca485fc65a69b25e04c222b4a03289fd0c98ba53848533a3e39a3602052604060002090565b5460081c166110ad57610f0b9073ffffffffffffffffffffffffffffffffffffffff166000527f33ea8f700f9ca485fc65a69b25e04c222b4a03289fd0c98ba53848533a3e39a3602052604060002090565b60ff61111073ffffffffffffffffffffffffffffffffffffffff6103ed8473ffffffffffffffffffffffffffffffffffffffff166000527f33ea8f700f9ca485fc65a69b25e04c222b4a03289fd0c98ba53848533a3e39a3602052604060002090565b54161561066c5773ffffffffffffffffffffffffffffffffffffffff6103ed610f0b9273ffffffffffffffffffffffffffffffffffffffff166000527f33ea8f700f9ca485fc65a69b25e04c222b4a03289fd0c98ba53848533a3e39a3602052604060002090565b906000602091828151910182855af115610348576000513d6111fa575073ffffffffffffffffffffffffffffffffffffffff81163b155b6111b65750565b73ffffffffffffffffffffffffffffffffffffffff907f5274afe7000000000000000000000000000000000000000000000000000000006000521660045260246000fd5b600114156111af56fea2646970667358221220e4daacd6b820c1115e46a72e227485a8d12219317c9190a58e7d05dfacabe05964736f6c634300081c0033",
  "linkReferences": {},
  "deployedLinkReferences": {}
}