{
  "_format": "hh-sol-artifact-1",
  "contractName": "TokenMultiSend",
  "sourceName": "contracts/tokens/TokenMultiSend.sol",
  "abi": [
    {
      "inputs": [
        {
          "internalType": "address",
          "name": "token",
          "type": "address"
        }
      ],
      "name": "SafeERC20FailedOperation",
      "type": "error"
    },
    {
      "anonymous": false,
      "inputs": [
        {
          "indexed": false,
          "internalType": "address",
          "name": "distributor",
          "type": "address"
        },
        {
          "indexed": false,
          "internalType": "address",
          "name": "benefactor",
          "type": "address"
        },
        {
          "indexed": false,
          "internalType": "address",
          "name": "token",
          "type": "address"
        },
        {
          "indexed": false,
          "internalType": "uint256",
          "name": "amount",
          "type": "uint256"
        }
      ],
      "name": "Distributed",
      "type": "event"
    },
    {
      "inputs": [
        {
          "internalType": "address[]",
          "name": "_tokens",
          "type": "address[]"
        },
        {
          "internalType": "uint256",
          "name": "_val",
          "type": "uint256"
        },
        {
          "internalType": "address",
          "name": "_to",
          "type": "address"
        }
      ],
      "name": "send",
      "outputs": [],
      "stateMutability": "nonpayable",
      "type": "function"
    }
  ],
  "bytecode": "0x608080604052346015576102e9908161001b8239f35b600080fdfe6080604052600436101561001257600080fd5b60003560e01c632431adcc1461002757600080fd5b3461024e5760607ffffffffffffffffffffffffffffffffffffffffffffffffffffffffffffffffc36011261024e5760043567ffffffffffffffff811161024e573660238201121561024e5780600401359067ffffffffffffffff821161024e576024810190602436918460051b01011161024e576024356044359273ffffffffffffffffffffffffffffffffffffffff841680940361024e5760005b8181106100cd57005b73ffffffffffffffffffffffffffffffffffffffff6100f56100f0838588610253565b610292565b16604051602081017f23b872dd0000000000000000000000000000000000000000000000000000000081523360248301528760448301528560648301526064825260a082019082821067ffffffffffffffff83111761021f57602092600092604052519082855af115610213576000513d61020a5750803b155b6101dd5750807f767a76cf38548696c4899acb67e2015902d6f0a05e029d5947b41a143b88a8ed60806101a86100f0600195878a610253565b73ffffffffffffffffffffffffffffffffffffffff604051913383528a6020840152166040820152866060820152a1016100c4565b7f5274afe70000000000000000000000000000000000000000000000000000000060005260045260246000fd5b6001141561016f565b6040513d6000823e3d90fd5b7f4e487b7100000000000000000000000000000000000000000000000000000000600052604160045260246000fd5b600080fd5b91908110156102635760051b0190565b7f4e487b7100000000000000000000000000000000000000000000000000000000600052603260045260246000fd5b3573ffffffffffffffffffffffffffffffffffffffff8116810361024e579056fea26469706673582212207a4b61f7214afdd839954825062ca55b3a4a3097383a5c324ae7b3ecab946c4f64736f6c634300081c0033",
  "linkReferences": {},
  "deployedLinkReferences": {}
}