{
  "_format": "hh-sol-artifact-1",
  "contractName": "ExchangeManager",
  "sourceName": "contracts/modules/ExchangeManager.sol",
  "abi": [
    {
      "inputs": [],
      "name": "CurrencyDoesNotExist",
      "type": "error"
    },
    {
      "inputs": [],
      "name": "CurrencyExist",
      "type": "error"
    },
    {
      "inputs": [],
      "name": "InvalidStakeAmount",
      "type": "error"
    },
    {
      "inputs": [],
      "name": "PaymentMethodDoesNotExist",
      "type": "error"
    },
    {
      "inputs": [],
      "name": "PaymentMethodExist",
      "type": "error"
    },
    {
      "inputs": [],
      "name": "StakeTokenDoesNotExists",
      "type": "error"
    },
    {
      "inputs": [],
      "name": "StakeTokenExists",
      "type": "error"
    },
    {
      "inputs": [],
      "name": "TradeTokenDoesNotExists",
      "type": "error"
    },
    {
      "inputs": [],
      "name": "TradeTokenExists",
      "type": "error"
    },
    {
      "inputs": [],
      "name": "UintUtils__InsufficientPadding",
      "type": "error"
    },
    {
      "inputs": [],
      "name": "ZeroAddress",
      "type": "error"
    },
    {
      "inputs": [],
      "name": "ZeroNumber",
      "type": "error"
    },
    {
      "anonymous": false,
      "inputs": [
        {
          "indexed": false,
          "internalType": "address",
          "name": "by",
          "type": "address"
        },
        {
          "indexed": false,
          "internalType": "uint256",
          "name": "val",
          "type": "uint256"
        }
      ],
      "name": "AMLMinRemovePeriodSet",
      "type": "event"
    },
    {
      "anonymous": false,
      "inputs": [
        {
          "indexed": false,
          "internalType": "address",
          "name": "by",
          "type": "address"
        },
        {
          "indexed": false,
          "internalType": "bytes32",
          "name": "currency",
          "type": "bytes32"
        },
        {
          "indexed": false,
          "internalType": "uint256",
          "name": "buyLimit",
          "type": "uint256"
        },
        {
          "indexed": false,
          "internalType": "uint256",
          "name": "sellLimit",
          "type": "uint256"
        }
      ],
      "name": "CurrencyAdded",
      "type": "event"
    },
    {
      "anonymous": false,
      "inputs": [
        {
          "indexed": false,
          "internalType": "address",
          "name": "by",
          "type": "address"
        },
        {
          "indexed": false,
          "internalType": "bytes32",
          "name": "currency",
          "type": "bytes32"
        }
      ],
      "name": "CurrencyRemoved",
      "type": "event"
    },
    {
      "anonymous": false,
      "inputs": [
        {
          "indexed": false,
          "internalType": "address",
          "name": "by",
          "type": "address"
        },
        {
          "indexed": false,
          "internalType": "uint256",
          "name": "val",
          "type": "uint256"
        }
      ],
      "name": "MaxConcurrentOrdersSet",
      "type": "event"
    },
    {
      "anonymous": false,
      "inputs": [
        {
          "indexed": false,
          "internalType": "address",
          "name": "by",
          "type": "address"
        },
        {
          "indexed": false,
          "internalType": "uint256",
          "name": "val",
          "type": "uint256"
        }
      ],
      "name": "MaxPaymentTimeLimitSet",
      "type": "event"
    },
    {
      "anonymous": false,
      "inputs": [
        {
          "indexed": false,
          "internalType": "address",
          "name": "by",
          "type": "address"
        },
        {
          "indexed": false,
          "internalType": "uint256",
          "name": "val",
          "type": "uint256"
        }
      ],
      "name": "MinPaymentTimeLimitSet",
      "type": "event"
    },
    {
      "anonymous": false,
      "inputs": [
        {
          "indexed": false,
          "internalType": "address",
          "name": "by",
          "type": "address"
        },
        {
          "indexed": false,
          "internalType": "bytes32",
          "name": "method",
          "type": "bytes32"
        },
        {
          "indexed": false,
          "internalType": "uint256",
          "name": "buyLimit",
          "type": "uint256"
        },
        {
          "indexed": false,
          "internalType": "uint256",
          "name": "sellLimit",
          "type": "uint256"
        }
      ],
      "name": "PaymentMethodAdded",
      "type": "event"
    },
    {
      "anonymous": false,
      "inputs": [
        {
          "indexed": false,
          "internalType": "address",
          "name": "by",
          "type": "address"
        },
        {
          "indexed": false,
          "internalType": "bytes32",
          "name": "method",
          "type": "bytes32"
        }
      ],
      "name": "PaymentMethodRemoved",
      "type": "event"
    },
    {
      "anonymous": false,
      "inputs": [
        {
          "indexed": true,
          "internalType": "bytes32",
          "name": "role",
          "type": "bytes32"
        },
        {
          "indexed": true,
          "internalType": "bytes32",
          "name": "previousAdminRole",
          "type": "bytes32"
        },
        {
          "indexed": true,
          "internalType": "bytes32",
          "name": "newAdminRole",
          "type": "bytes32"
        }
      ],
      "name": "RoleAdminChanged",
      "type": "event"
    },
    {
      "anonymous": false,
      "inputs": [
        {
          "indexed": true,
          "internalType": "bytes32",
          "name": "role",
          "type": "bytes32"
        },
        {
          "indexed": true,
          "internalType": "address",
          "name": "account",
          "type": "address"
        },
        {
          "indexed": true,
          "internalType": "address",
          "name": "sender",
          "type": "address"
        }
      ],
      "name": "RoleGranted",
      "type": "event"
    },
    {
      "anonymous": false,
      "inputs": [
        {
          "indexed": true,
          "internalType": "bytes32",
          "name": "role",
          "type": "bytes32"
        },
        {
          "indexed": true,
          "internalType": "address",
          "name": "account",
          "type": "address"
        },
        {
          "indexed": true,
          "internalType": "address",
          "name": "sender",
          "type": "address"
        }
      ],
      "name": "RoleRevoked",
      "type": "event"
    },
    {
      "anonymous": false,
      "inputs": [
        {
          "indexed": false,
          "internalType": "address",
          "name": "by",
          "type": "address"
        },
        {
          "indexed": false,
          "internalType": "address",
          "name": "token",
          "type": "address"
        },
        {
          "indexed": false,
          "internalType": "uint256",
          "name": "amount",
          "type": "uint256"
        }
      ],
      "name": "StakeTokenAdded",
      "type": "event"
    },
    {
      "anonymous": false,
      "inputs": [
        {
          "indexed": false,
          "internalType": "address",
          "name": "by",
          "type": "address"
        },
        {
          "indexed": false,
          "internalType": "address",
          "name": "token",
          "type": "address"
        }
      ],
      "name": "StakeTokenRemoved",
      "type": "event"
    },
    {
      "anonymous": false,
      "inputs": [
        {
          "indexed": false,
          "internalType": "address",
          "name": "by",
          "type": "address"
        },
        {
          "indexed": false,
          "internalType": "address",
          "name": "token",
          "type": "address"
        },
        {
          "indexed": false,
          "internalType": "uint256",
          "name": "buyLimit",
          "type": "uint256"
        },
        {
          "indexed": false,
          "internalType": "uint256",
          "name": "sellLimit",
          "type": "uint256"
        },
        {
          "indexed": false,
          "internalType": "address",
          "name": "crossChainHandler",
          "type": "address"
        },
        {
          "indexed": false,
          "internalType": "uint256",
          "name": "orderFee",
          "type": "uint256"
        },
        {
          "indexed": false,
          "internalType": "uint256",
          "name": "collectedFees",
          "type": "uint256"
        },
        {
          "indexed": false,
          "internalType": "uint256",
          "name": "stakeAmount",
          "type": "uint256"
        }
      ],
      "name": "TradeTokenAdded",
      "type": "event"
    },
    {
      "anonymous": false,
      "inputs": [
        {
          "indexed": false,
          "internalType": "address",
          "name": "by",
          "type": "address"
        },
        {
          "indexed": false,
          "internalType": "address",
          "name": "token",
          "type": "address"
        }
      ],
      "name": "TradeTokenRemoved",
      "type": "event"
    },
    {
      "inputs": [
        {
          "internalType": "bytes",
          "name": "_currency",
          "type": "bytes"
        },
        {
          "internalType": "uint256",
          "name": "_buyLimit",
          "type": "uint256"
        },
        {
          "internalType": "uint256",
          "name": "_sellLimit",
          "type": "uint256"
        }
      ],
      "name": "addCurrency",
      "outputs": [],
      "stateMutability": "nonpayable",
      "type": "function"
    },
    {
      "inputs": [
        {
          "internalType": "bytes",
          "name": "_paymentMethod",
          "type": "bytes"
        },
        {
          "internalType": "uint256",
          "name": "_buyLimit",
          "type": "uint256"
        },
        {
          "internalType": "uint256",
          "name": "_sellLimit",
          "type": "uint256"
        }
      ],
      "name": "addPaymentMethod",
      "outputs": [],
      "stateMutability": "nonpayable",
      "type": "function"
    },
    {
      "inputs": [
        {
          "internalType": "address",
          "name": "_token",
          "type": "address"
        },
        {
          "internalType": "uint256",
          "name": "_stakeAmount",
          "type": "uint256"
        }
      ],
      "name": "addStakeToken",
      "outputs": [],
      "stateMutability": "nonpayable",
      "type": "function"
    },
    {
      "inputs": [
        {
          "internalType": "address",
          "name": "_token",
          "type": "address"
        },
        {
          "internalType": "uint256",
          "name": "_buyLimit",
          "type": "uint256"
        },
        {
          "internalType": "uint256",
          "name": "_sellLimit",
          "type": "uint256"
        },
        {
          "internalType": "address",
          "name": "_crossChainSender",
          "type": "address"
        },
        {
          "internalType": "uint256",
          "name": "_orderFee",
          "type": "uint256"
        },
        {
          "internalType": "uint256",
          "name": "_stakeAmount",
          "type": "uint256"
        }
      ],
      "name": "addTradeToken",
      "outputs": [],
      "stateMutability": "nonpayable",
      "type": "function"
    },
    {
      "inputs": [
        {
          "internalType": "bytes32",
          "name": "_currencyHash",
          "type": "bytes32"
        }
      ],
      "name": "removeCurrency",
      "outputs": [],
      "stateMutability": "nonpayable",
      "type": "function"
    },
    {
      "inputs": [
        {
          "internalType": "bytes32",
          "name": "_methodHash",
          "type": "bytes32"
        }
      ],
      "name": "removePaymentMethod",
      "outputs": [],
      "stateMutability": "nonpayable",
      "type": "function"
    },
    {
      "inputs": [
        {
          "internalType": "address",
          "name": "_token",
          "type": "address"
        }
      ],
      "name": "removeStakeToken",
      "outputs": [],
      "stateMutability": "nonpayable",
      "type": "function"
    },
    {
      "inputs": [
        {
          "internalType": "address",
          "name": "_token",
          "type": "address"
        }
      ],
      "name": "removeTradeToken",
      "outputs": [],
      "stateMutability": "nonpayable",
      "type": "function"
    },
    {
      "inputs": [
        {
          "internalType": "uint256",
          "name": "_val",
          "type": "uint256"
        }
      ],
      "name": "setAMLMinRemovePeriod",
      "outputs": [],
      "stateMutability": "nonpayable",
      "type": "function"
    },
    {
      "inputs": [
        {
          "internalType": "uint256",
          "name": "_val",
          "type": "uint256"
        }
      ],
      "name": "setMaxConcurrentOrders",
      "outputs": [],
      "stateMutability": "nonpayable",
      "type": "function"
    },
    {
      "inputs": [
        {
          "internalType": "uint256",
          "name": "_val",
          "type": "uint256"
        }
      ],
      "name": "setMaxPaymentTimeLimit",
      "outputs": [],
      "stateMutability": "nonpayable",
      "type": "function"
    },
    {
      "inputs": [
        {
          "internalType": "uint256",
          "name": "_val",
          "type": "uint256"
        }
      ],
      "name": "setMinPaymentTimeLimit",
      "outputs": [],
      "stateMutability": "nonpayable",
      "type": "function"
    }
  ],
  "bytecode": "0x60808060405234601557611af0908161001b8239f35b600080fdfe6080604052600436101561001257600080fd5b60003560e01c8063166866c714611345578063334c2ef31461125a5780634311fba014610d905780634ec6f7a914610cf157806381f7d94214610ae75780638fadeee81461095e5780639e7b9e8d146106f8578063a39f03bb14610659578063b2eacc2f146105ba578063eac6107214610272578063efd4ad5a1461016f5763fdc2a5a7146100a057600080fd5b3461016a5760207ffffffffffffffffffffffffffffffffffffffffffffffffffffffffffffffffc36011261016a576004356100da6116b4565b8015610140577f33ea8f700f9ca485fc65a69b25e04c222b4a03289fd0c98ba53848533a3e39a68190556040805133815260208101929092527fde92bb00631ba038b89643a8067e8d02ce29d7f382cbd2a5cc5c2a9b05f5cac59190819081015b0390a1005b7f99d1d12f0000000000000000000000000000000000000000000000000000000060005260046000fd5b600080fd5b3461016a5760207ffffffffffffffffffffffffffffffffffffffffffffffffffffffffffffffffc36011261016a57600435806000527f33ea8f700f9ca485fc65a69b25e04c222b4a03289fd0c98ba53848533a3e39a160205260ff604060002054166102485761013b817f8c1c3c0bbb5819b4b50445eaca5f7d8510364ab11275c95fc9277b4fdcce3203926000527f33ea8f700f9ca485fc65a69b25e04c222b4a03289fd0c98ba53848533a3e39a1602052610230604060002061164f565b60408051338152602081019290925290918291820190565b7f2f2559060000000000000000000000000000000000000000000000000000000060005260046000fd5b3461016a5761028036611556565b8251602084012091826000527f33ea8f700f9ca485fc65a69b25e04c222b4a03289fd0c98ba53848533a3e39a060205260ff6040600020541661059057600391604051916102cd836114bf565b60018352602083019081526040830191825260608301958652846000527f33ea8f700f9ca485fc65a69b25e04c222b4a03289fd0c98ba53848533a3e39a060205261034b604060002093511515849060ff7fffffffffffffffffffffffffffffffffffffffffffffffffffffffffffffff0083541691151516179055565b5160018301555160028201550191519182519267ffffffffffffffff84116105615761037782546115e5565b601f8111610524575b50602090601f85116001146104605793806103f1927f0b81f8aebba43726f46a439ceda489b8695220b4d9ddf3449b52ae79f88f309e96600092610455575b50507fffffffffffffffffffffffffffffffffffffffffffffffffffffffffffffffff8260011b9260031b1c19161790565b90555b60008181527f33ea8f700f9ca485fc65a69b25e04c222b4a03289fd0c98ba53848533a3e39a060209081526040918290206001810154600290910154835133815292830194909452918101919091526060810191909152806080810161013b565b0151905086806103bf565b907fffffffffffffffffffffffffffffffffffffffffffffffffffffffffffffffe085169183600052816000209260005b81811061050c57509160019391877f0b81f8aebba43726f46a439ceda489b8695220b4d9ddf3449b52ae79f88f309e9894106104d5575b505050811b0190556103f4565b01517fffffffffffffffffffffffffffffffffffffffffffffffffffffffffffffffff60f88460031b161c191690558580806104c8565b92936020600181928786015181550195019301610491565b61055190836000526020600020601f870160051c81019160208810610557575b601f0160051c0190611638565b84610380565b9091508190610544565b7f4e487b7100000000000000000000000000000000000000000000000000000000600052604160045260246000fd5b7faa6540d50000000000000000000000000000000000000000000000000000000060005260046000fd5b3461016a5760207ffffffffffffffffffffffffffffffffffffffffffffffffffffffffffffffffc36011261016a576004356105f46116b4565b8015610140577fe27aca2c6cdc254ab519f1cc75ea8ed47b56af30e78973e34f7cbf0d9bb964ec8190556040805133815260208101929092527f3460f665513d86c1a57e553f8160f14e6577d1a6e62e2fa63c230f5320485cf091908190810161013b565b3461016a5760207ffffffffffffffffffffffffffffffffffffffffffffffffffffffffffffffffc36011261016a576004356106936116b4565b8015610140577f33ea8f700f9ca485fc65a69b25e04c222b4a03289fd0c98ba53848533a3e39a58190556040805133815260208101929092527fb4963f7af321ee30b883a8672342d43c4c8bd5d3051e674e9898e1b430cb897291908190810161013b565b3461016a5761070636611556565b8251602084012091826000527f33ea8f700f9ca485fc65a69b25e04c222b4a03289fd0c98ba53848533a3e39a160205260ff604060002054166109345760039160405191610753836114bf565b60018352602083019081526040830191825260608301958652846000527f33ea8f700f9ca485fc65a69b25e04c222b4a03289fd0c98ba53848533a3e39a16020526107d1604060002093511515849060ff7fffffffffffffffffffffffffffffffffffffffffffffffffffffffffffffff0083541691151516179055565b5160018301555160028201550191519182519267ffffffffffffffff8411610561576107fd82546115e5565b601f8111610902575b50602090601f85116001146108765793806103f1927f0c368a56193033fe53cb37eb0d63dc841591f1638bb008637c00c22c65c56e33966000926104555750507fffffffffffffffffffffffffffffffffffffffffffffffffffffffffffffffff8260011b9260031b1c19161790565b907fffffffffffffffffffffffffffffffffffffffffffffffffffffffffffffffe085169183600052816000209260005b8181106108ea57509160019391877f0c368a56193033fe53cb37eb0d63dc841591f1638bb008637c00c22c65c56e339894106104d557505050811b0190556103f4565b929360206001819287860151815501950193016108a7565b61092e90836000526020600020601f870160051c8101916020881061055757601f0160051c0190611638565b84610806565b7fd1802c5b0000000000000000000000000000000000000000000000000000000060005260046000fd5b3461016a5760207ffffffffffffffffffffffffffffffffffffffffffffffffffffffffffffffffc36011261016a5761099561149c565b61099d6116b4565b73ffffffffffffffffffffffffffffffffffffffff6109fb8273ffffffffffffffffffffffffffffffffffffffff166000527f33ea8f700f9ca485fc65a69b25e04c222b4a03289fd0c98ba53848533a3e399f602052604060002090565b541673ffffffffffffffffffffffffffffffffffffffff821614610abd5761013b8160006001610a8b7f1f40d3d952612a026950618048305eff98ef09cb815ab11997ac8a8428715b549573ffffffffffffffffffffffffffffffffffffffff166000527f33ea8f700f9ca485fc65a69b25e04c222b4a03289fd0c98ba53848533a3e399f602052604060002090565b82815501556040805133815273ffffffffffffffffffffffffffffffffffffffff909216602083015290918291820190565b7f6075b38c0000000000000000000000000000000000000000000000000000000060005260046000fd5b3461016a5760407ffffffffffffffffffffffffffffffffffffffffffffffffffffffffffffffffc36011261016a57610b1e61149c565b602435610b296116b4565b73ffffffffffffffffffffffffffffffffffffffff610b878373ffffffffffffffffffffffffffffffffffffffff166000527f33ea8f700f9ca485fc65a69b25e04c222b4a03289fd0c98ba53848533a3e399f602052604060002090565b5416610cc7578015610c9d5760405191604083019183831067ffffffffffffffff841117610561577f1765b61ae09d0c53ef0bf6a664f7b6d87bb1d099a80654dd81cbf6cbc002f19193606093604052600173ffffffffffffffffffffffffffffffffffffffff84169384835273ffffffffffffffffffffffffffffffffffffffff80610c5a602086019387855273ffffffffffffffffffffffffffffffffffffffff166000527f33ea8f700f9ca485fc65a69b25e04c222b4a03289fd0c98ba53848533a3e399f602052604060002090565b945116167fffffffffffffffffffffffff0000000000000000000000000000000000000000845416178355519101556040519133835260208301526040820152a1005b7f040ef8ec0000000000000000000000000000000000000000000000000000000060005260046000fd5b7f1bfb11dd0000000000000000000000000000000000000000000000000000000060005260046000fd5b3461016a5760207ffffffffffffffffffffffffffffffffffffffffffffffffffffffffffffffffc36011261016a57600435610d2b6116b4565b8015610140577f33ea8f700f9ca485fc65a69b25e04c222b4a03289fd0c98ba53848533a3e39a78190556040805133815260208101929092527f83cab1b20f2a6379e5738908ec9bab9de305a5d9354041ef0f88b7a4c5c9ada291908190810161013b565b3461016a5760c07ffffffffffffffffffffffffffffffffffffffffffffffffffffffffffffffffc36011261016a57610dc761149c565b602435604435916064359173ffffffffffffffffffffffffffffffffffffffff831680930361016a576084359360a435610dff6116b4565b82156101405781156101405784156112305785156101405780156101405760ff610e688573ffffffffffffffffffffffffffffffffffffffff166000527f33ea8f700f9ca485fc65a69b25e04c222b4a03289fd0c98ba53848533a3e39a2602052604060002090565b5416611206576040519260e084019684881067ffffffffffffffff8911176105615773ffffffffffffffffffffffffffffffffffffffff610100976006957f7bb23d3cf933afd99d051ab2f1ecc27c0ac694382b35ae645ae1315d8b73dfb89a604052600188526020880194855260408801908152606088019182526080880193845260a08801946000865260c08901968752610f7c610f478b73ffffffffffffffffffffffffffffffffffffffff166000527f33ea8f700f9ca485fc65a69b25e04c222b4a03289fd0c98ba53848533a3e39a2602052604060002090565b995115158a9060ff7fffffffffffffffffffffffffffffffffffffffffffffffffffffffffffffff0083541691151516179055565b516001890155516002880155511673ffffffffffffffffffffffffffffffffffffffff6003870191167fffffffffffffffffffffffff00000000000000000000000000000000000000008254161790555160048501555160058401555191015560016110278273ffffffffffffffffffffffffffffffffffffffff166000527f33ea8f700f9ca485fc65a69b25e04c222b4a03289fd0c98ba53848533a3e39a2602052604060002090565b015460026110748373ffffffffffffffffffffffffffffffffffffffff166000527f33ea8f700f9ca485fc65a69b25e04c222b4a03289fd0c98ba53848533a3e39a2602052604060002090565b015473ffffffffffffffffffffffffffffffffffffffff60036110d68573ffffffffffffffffffffffffffffffffffffffff166000527f33ea8f700f9ca485fc65a69b25e04c222b4a03289fd0c98ba53848533a3e39a2602052604060002090565b01541660046111248573ffffffffffffffffffffffffffffffffffffffff166000527f33ea8f700f9ca485fc65a69b25e04c222b4a03289fd0c98ba53848533a3e39a2602052604060002090565b01549060056111728673ffffffffffffffffffffffffffffffffffffffff166000527f33ea8f700f9ca485fc65a69b25e04c222b4a03289fd0c98ba53848533a3e39a2602052604060002090565b01549260066111c08773ffffffffffffffffffffffffffffffffffffffff166000527f33ea8f700f9ca485fc65a69b25e04c222b4a03289fd0c98ba53848533a3e39a2602052604060002090565b01549473ffffffffffffffffffffffffffffffffffffffff6040519733895216602088015260408701526060860152608085015260a084015260c083015260e0820152a1005b7fe85edc6e0000000000000000000000000000000000000000000000000000000060005260046000fd5b7fd92e233d0000000000000000000000000000000000000000000000000000000060005260046000fd5b3461016a5760207ffffffffffffffffffffffffffffffffffffffffffffffffffffffffffffffffc36011261016a57600435806000527f33ea8f700f9ca485fc65a69b25e04c222b4a03289fd0c98ba53848533a3e39a060205260ff6040600020541661131b5761013b817f9ff9145c72a670d38a6ac79c9cb87301319e6d3f3964c37452c72a0694ba9689926000527f33ea8f700f9ca485fc65a69b25e04c222b4a03289fd0c98ba53848533a3e39a0602052610230604060002061164f565b7fb494dc1b0000000000000000000000000000000000000000000000000000000060005260046000fd5b3461016a5760207ffffffffffffffffffffffffffffffffffffffffffffffffffffffffffffffffc36011261016a5761137c61149c565b6113846116b4565b73ffffffffffffffffffffffffffffffffffffffff6113e28273ffffffffffffffffffffffffffffffffffffffff166000527f33ea8f700f9ca485fc65a69b25e04c222b4a03289fd0c98ba53848533a3e399f602052604060002090565b541673ffffffffffffffffffffffffffffffffffffffff8216146114725761013b8160006001610a8b7f1bb2e84515df1bee0c5326e6dd3cc5f17229f9bc9e7ca060c8b7ecc76e12aafc9573ffffffffffffffffffffffffffffffffffffffff166000527f33ea8f700f9ca485fc65a69b25e04c222b4a03289fd0c98ba53848533a3e399f602052604060002090565b7fbe5137870000000000000000000000000000000000000000000000000000000060005260046000fd5b6004359073ffffffffffffffffffffffffffffffffffffffff8216820361016a57565b6080810190811067ffffffffffffffff82111761056157604052565b90601f7fffffffffffffffffffffffffffffffffffffffffffffffffffffffffffffffe0910116810190811067ffffffffffffffff82111761056157604052565b67ffffffffffffffff811161056157601f017fffffffffffffffffffffffffffffffffffffffffffffffffffffffffffffffe01660200190565b60607ffffffffffffffffffffffffffffffffffffffffffffffffffffffffffffffffc82011261016a5760043567ffffffffffffffff811161016a578160238201121561016a578060040135906115ac8261151c565b926115ba60405194856114db565b8284526024838301011161016a57816000926024602093018386013783010152906024359060443590565b90600182811c9216801561162e575b60208310146115ff57565b7f4e487b7100000000000000000000000000000000000000000000000000000000600052602260045260246000fd5b91607f16916115f4565b818110611643575050565b60008155600101611638565b6003906000815560006001820155600060028201550161166f81546115e5565b9081611679575050565b81601f6000931160011461168b575055565b818352602083206116a791601f0160051c810190600101611638565b8082528160208120915555565b3360009081527f1607cec14f8427ffcbaf70359b34a7dd27c832feb95af350c4589f886ed1b82b6020526040902054156116ea57565b33602a60006116f88261151c565b9261170660405194856114db565b8284526117128361151c565b927fffffffffffffffffffffffffffffffffffffffffffffffffffffffffffffffe06020860194013685378451156119c357603084538451600110156119c357607860218601535b600281116119f05750611907575060427f871f4156a8763caa4b80a19e83df37c7069530b66573744126d85428ddfa634d60006117968361151c565b916117a460405193846114db565b8383526117b08461151c565b937fffffffffffffffffffffffffffffffffffffffffffffffffffffffffffffffe06020850195013686378351156119c357603085538351600110156119c357607860218501535b6002811161192f5750611907576118fe60446118ad7fffffffffffffffffffffffffffffffffffffffffffffffffffffffffffffffe0601f896118bc60118b60378c8c604051998a9461187860208701997f416363657373436f6e74726f6c3a206163636f756e74200000000000000000008b5251809287890190611a57565b8501917f206973206d697373696e6720726f6c6520000000000000000000000000000000858401525180936048840190611a57565b010103018481018652856114db565b6040519586947f08c379a00000000000000000000000000000000000000000000000000000000086526020600487015251809281602488015287870190611a57565b01168101030190fd5b807fab409fe20000000000000000000000000000000000000000000000000000000060049252fd5b7fffffffffffffffffffffffffffffffffffffffffffffffffffffffffffffffff0190600f81166010811015611996577f3031323334353637383961626364656600000000000000000000000000000000901a61198c8386611a7a565b5360041c906117f8565b6024847f4e487b710000000000000000000000000000000000000000000000000000000081526032600452fd5b6024837f4e487b710000000000000000000000000000000000000000000000000000000081526032600452fd5b7fffffffffffffffffffffffffffffffffffffffffffffffffffffffffffffffff0190600f81166010811015611996577f3031323334353637383961626364656600000000000000000000000000000000901a611a4d8387611a7a565b5360041c9061175a565b60005b838110611a6a5750506000910152565b8181015183820152602001611a5a565b908151811015611a8b570160200190565b7f4e487b7100000000000000000000000000000000000000000000000000000000600052603260045260246000fdfea2646970667358221220ad9def513b32a3db52b3d3dba31c158afa7163da9d049a22841b60b7e1500e1864736f6c634300081c0033",
  "linkReferences": {},
  "deployedLinkReferences": {}
}