{
  "_format": "hh-sol-artifact-1",
  "contractName": "Appeal",
  "sourceName": "contracts/modules/Appeal.sol",
  "abi": [
    {
      "inputs": [],
      "name": "MustBeMerchantOrTrader",
      "type": "error"
    },
    {
      "inputs": [],
      "name": "NotImplemented",
      "type": "error"
    },
    {
      "inputs": [],
      "name": "OrderAlreadyAppealed",
      "type": "error"
    },
    {
      "inputs": [],
      "name": "OrderDoesNotExists",
      "type": "error"
    },
    {
      "inputs": [],
      "name": "OrderPaidRequired",
      "type": "error"
    },
    {
      "anonymous": false,
      "inputs": [
        {
          "indexed": false,
          "internalType": "bytes32",
          "name": "orderHash",
          "type": "bytes32"
        },
        {
          "indexed": false,
          "internalType": "address",
          "name": "appealer",
          "type": "address"
        },
        {
          "indexed": false,
          "internalType": "enum IAppeal.AppealDecision",
          "name": "appealDecision",
          "type": "uint8"
        },
        {
          "indexed": false,
          "internalType": "enum OrderState",
          "name": "orderState",
          "type": "uint8"
        },
        {
          "indexed": false,
          "internalType": "uint256",
          "name": "createdAt",
          "type": "uint256"
        }
      ],
      "name": "OrderAppealed",
      "type": "event"
    },
    {
      "inputs": [
        {
          "internalType": "bytes32",
          "name": "_orderHash",
          "type": "bytes32"
        }
      ],
      "name": "appealOrder",
      "outputs": [],
      "stateMutability": "nonpayable",
      "type": "function"
    },
    {
      "inputs": [
        {
          "internalType": "bytes32",
          "name": "_orderHash",
          "type": "bytes32"
        },
        {
          "internalType": "enum IAppeal.AppealDecision",
          "name": "_appealDecision",
          "type": "uint8"
        }
      ],
      "name": "settleAppeal",
      "outputs": [],
      "stateMutability": "nonpayable",
      "type": "function"
    }
  ],
  "bytecode": "0x6080806040523460155761057f908161001b8239f35b600080fdfe6080604052600436101561001257600080fd5b60003560e01c8063e0f9e0a8146104e55763fc5644a11461003257600080fd5b346104e05760207ffffffffffffffffffffffffffffffffffffffffffffffffffffffffffffffffc3601126104e057600435806000527f33ea8f700f9ca485fc65a69b25e04c222b4a03289fd0c98ba53848533a3e39a4602052600a60406000200154156104b657806000527f33ea8f700f9ca485fc65a69b25e04c222b4a03289fd0c98ba53848533a3e39a460205260ff60076040600020015460081c1660068110156103b75760020361048c57806000527f33ea8f700f9ca485fc65a69b25e04c222b4a03289fd0c98ba53848533a3e39a460205273ffffffffffffffffffffffffffffffffffffffff60016040600020015416331480159061043f575b61041557806000527f33ea8f700f9ca485fc65a69b25e04c222b4a03289fd0c98ba53848533a3e39a460205260076040600020016103007fffffffffffffffffffffffffffffffffffffffffffffffffffffffffffff00ff825416179055604051906080820182811067ffffffffffffffff8211176103e657604052808252602082019133835260408101926000845260608201428152836000527fdde41ee27df2f118255a2f19cab8c860a382d1448ec2327858e570d89818304c60205260406000209251835573ffffffffffffffffffffffffffffffffffffffff6001840192511691805495519560038710156103b7577fffffffffffffffffffffff0000000000000000000000000000000000000000001690921760a095861b74ff000000000000000000000000000000000000000016179091555160029182015560009182527fdde41ee27df2f118255a2f19cab8c860a382d1448ec2327858e570d89818304c60208181526040808520805460018201547f33ea8f700f9ca485fc65a69b25e04c222b4a03289fd0c98ba53848533a3e39a48552838820600701549585529190950154915194855273ffffffffffffffffffffffffffffffffffffffff811692850192909252939492939260089290921c60ff908116929190911c16600381101561038a576040840152600681101561035d57606083015260808201527f4692713807ece016e4224a954ce29bf370e276b0cea611d553232c2f4d7b4fd99060a090a180f35b6024847f4e487b710000000000000000000000000000000000000000000000000000000081526021600452fd5b6024857f4e487b710000000000000000000000000000000000000000000000000000000081526021600452fd5b7f4e487b7100000000000000000000000000000000000000000000000000000000600052602160045260246000fd5b7f4e487b7100000000000000000000000000000000000000000000000000000000600052604160045260246000fd5b7ff04747a90000000000000000000000000000000000000000000000000000000060005260046000fd5b50806000527f33ea8f700f9ca485fc65a69b25e04c222b4a03289fd0c98ba53848533a3e39a460205273ffffffffffffffffffffffffffffffffffffffff60406000205416331415610132565b7f4a306e1d0000000000000000000000000000000000000000000000000000000060005260046000fd5b7f81a618400000000000000000000000000000000000000000000000000000000060005260046000fd5b600080fd5b346104e05760407ffffffffffffffffffffffffffffffffffffffffffffffffffffffffffffffffc3601126104e057600360243510156104e0577fd62347250000000000000000000000000000000000000000000000000000000060005260046000fdfea26469706673582212207ee55856bab69c261aef0b793e7676f5acb33c57ab336889599d4715685b3c9b64736f6c634300081c0033",
  "linkReferences": {},
  "deployedLinkReferences": {}
}