{
  "_format": "hh-sol-artifact-1",
  "contractName": "IExchangeP2PInit",
  "sourceName": "contracts/inits/IExchangeP2PInit.sol",
  "abi": [
    {
      "inputs": [],
      "name": "init",
      "outputs": [],
      "stateMutability": "nonpayable",
      "type": "function"
    }
  ],
  "bytecode": "0x6080806040523460135760d4908160198239f35b600080fdfe6004361015600c57600080fd5b60003560e01c63e1c7392a14602057600080fd5b3460995760007ffffffffffffffffffffffffffffffffffffffffffffffffffffffffffffffffc3601126099576103847f33ea8f700f9ca485fc65a69b25e04c222b4a03289fd0c98ba53848533a3e39a1556154607f33ea8f700f9ca485fc65a69b25e04c222b4a03289fd0c98ba53848533a3e39a255005b600080fdfea2646970667358221220faf89f1bd336a662edd8b93eb20427bcf72f8c52ffb39e80393811387de871be64736f6c634300081c0033",
  "linkReferences": {},
  "deployedLinkReferences": {}
}