{
  "_format": "hh-sol-artifact-1",
  "contractName": "Appeal",
  "sourceName": "contracts/modules/Appeal.sol",
  "abi": [
    {
      "inputs": [],
      "name": "AppealExists",
      "type": "error"
    },
    {
      "inputs": [
        {
          "internalType": "string",
          "name": "_functionName",
          "type": "string"
        }
      ],
      "name": "DelegateCallFailed",
      "type": "error"
    },
    {
      "inputs": [],
      "name": "InvalidAppealDecision",
      "type": "error"
    },
    {
      "inputs": [],
      "name": "MustBeAppealer",
      "type": "error"
    },
    {
      "inputs": [],
      "name": "MustBeMerchantOrTrader",
      "type": "error"
    },
    {
      "inputs": [],
      "name": "OrderAlreadyAppealed",
      "type": "error"
    },
    {
      "inputs": [],
      "name": "OrderAppealedRequired",
      "type": "error"
    },
    {
      "inputs": [],
      "name": "OrderDoesNotExists",
      "type": "error"
    },
    {
      "inputs": [],
      "name": "OrderPaidRequired",
      "type": "error"
    },
    {
      "inputs": [],
      "name": "ProtocolInvariantCheckFailed",
      "type": "error"
    },
    {
      "inputs": [
        {
          "internalType": "address",
          "name": "token",
          "type": "address"
        }
      ],
      "name": "SafeERC20FailedOperation",
      "type": "error"
    },
    {
      "inputs": [],
      "name": "UintUtils__InsufficientPadding",
      "type": "error"
    },
    {
      "anonymous": false,
      "inputs": [
        {
          "indexed": false,
          "internalType": "bytes32",
          "name": "orderHash",
          "type": "bytes32"
        },
        {
          "indexed": false,
          "internalType": "address",
          "name": "appealer",
          "type": "address"
        },
        {
          "indexed": false,
          "internalType": "enum IAppeal.AppealDecision",
          "name": "appealDecision",
          "type": "uint8"
        },
        {
          "indexed": false,
          "internalType": "enum OrderState",
          "name": "orderState",
          "type": "uint8"
        },
        {
          "indexed": false,
          "internalType": "uint256",
          "name": "cancelledAt",
          "type": "uint256"
        }
      ],
      "name": "AppealCancelled",
      "type": "event"
    },
    {
      "anonymous": false,
      "inputs": [
        {
          "indexed": false,
          "internalType": "bytes32",
          "name": "orderHash",
          "type": "bytes32"
        },
        {
          "indexed": false,
          "internalType": "address",
          "name": "appealer",
          "type": "address"
        },
        {
          "indexed": false,
          "internalType": "address",
          "name": "settler",
          "type": "address"
        },
        {
          "indexed": false,
          "internalType": "enum IAppeal.AppealDecision",
          "name": "appealDecision",
          "type": "uint8"
        },
        {
          "indexed": false,
          "internalType": "enum OrderState",
          "name": "orderState",
          "type": "uint8"
        },
        {
          "indexed": false,
          "internalType": "uint256",
          "name": "settledAt",
          "type": "uint256"
        }
      ],
      "name": "AppealSettled",
      "type": "event"
    },
    {
      "anonymous": false,
      "inputs": [
        {
          "indexed": false,
          "internalType": "bytes32",
          "name": "orderHash",
          "type": "bytes32"
        },
        {
          "indexed": false,
          "internalType": "address",
          "name": "appealer",
          "type": "address"
        },
        {
          "indexed": false,
          "internalType": "enum IAppeal.AppealDecision",
          "name": "appealDecision",
          "type": "uint8"
        },
        {
          "indexed": false,
          "internalType": "enum OrderState",
          "name": "orderState",
          "type": "uint8"
        },
        {
          "indexed": false,
          "internalType": "uint256",
          "name": "createdAt",
          "type": "uint256"
        }
      ],
      "name": "OrderAppealed",
      "type": "event"
    },
    {
      "anonymous": false,
      "inputs": [
        {
          "indexed": false,
          "internalType": "bytes32",
          "name": "orderHash",
          "type": "bytes32"
        },
        {
          "indexed": false,
          "internalType": "enum OrderState",
          "name": "status",
          "type": "uint8"
        }
      ],
      "name": "OrderCancelled",
      "type": "event"
    },
    {
      "anonymous": false,
      "inputs": [
        {
          "indexed": false,
          "internalType": "bytes32",
          "name": "orderHash",
          "type": "bytes32"
        },
        {
          "indexed": false,
          "internalType": "enum OrderState",
          "name": "status",
          "type": "uint8"
        }
      ],
      "name": "OrderReleased",
      "type": "event"
    },
    {
      "anonymous": false,
      "inputs": [
        {
          "indexed": true,
          "internalType": "bytes32",
          "name": "role",
          "type": "bytes32"
        },
        {
          "indexed": true,
          "internalType": "bytes32",
          "name": "previousAdminRole",
          "type": "bytes32"
        },
        {
          "indexed": true,
          "internalType": "bytes32",
          "name": "newAdminRole",
          "type": "bytes32"
        }
      ],
      "name": "RoleAdminChanged",
      "type": "event"
    },
    {
      "anonymous": false,
      "inputs": [
        {
          "indexed": true,
          "internalType": "bytes32",
          "name": "role",
          "type": "bytes32"
        },
        {
          "indexed": true,
          "internalType": "address",
          "name": "account",
          "type": "address"
        },
        {
          "indexed": true,
          "internalType": "address",
          "name": "sender",
          "type": "address"
        }
      ],
      "name": "RoleGranted",
      "type": "event"
    },
    {
      "anonymous": false,
      "inputs": [
        {
          "indexed": true,
          "internalType": "bytes32",
          "name": "role",
          "type": "bytes32"
        },
        {
          "indexed": true,
          "internalType": "address",
          "name": "account",
          "type": "address"
        },
        {
          "indexed": true,
          "internalType": "address",
          "name": "sender",
          "type": "address"
        }
      ],
      "name": "RoleRevoked",
      "type": "event"
    },
    {
      "inputs": [
        {
          "internalType": "bytes32",
          "name": "_orderHash",
          "type": "bytes32"
        }
      ],
      "name": "appealOrder",
      "outputs": [],
      "stateMutability": "nonpayable",
      "type": "function"
    },
    {
      "inputs": [
        {
          "internalType": "bytes32",
          "name": "_orderHash",
          "type": "bytes32"
        }
      ],
      "name": "cancelAppeal",
      "outputs": [],
      "stateMutability": "nonpayable",
      "type": "function"
    },
    {
      "inputs": [
        {
          "internalType": "bytes32",
          "name": "_orderHash",
          "type": "bytes32"
        },
        {
          "internalType": "enum IAppeal.AppealDecision",
          "name": "_appealDecision",
          "type": "uint8"
        }
      ],
      "name": "settleAppeal",
      "outputs": [],
      "stateMutability": "nonpayable",
      "type": "function"
    }
  ],
  "bytecode": "0x60808060405234601557611cd4908161001b8239f35b600080fdfe6080604052600436101561001257600080fd5b60003560e01c80632c600b30146114a8578063e0f9e0a8146105bd5763fc5644a11461003d57600080fd5b346105b85760207ffffffffffffffffffffffffffffffffffffffffffffffffffffffffffffffffc3601126105b857600435806000527f33ea8f700f9ca485fc65a69b25e04c222b4a03289fd0c98ba53848533a3e39a0602052600a604060002001541561058e57806000527fdde41ee27df2f118255a2f19cab8c860a382d1448ec2327858e570d89818304c60205260026040600020015461056457806000527f33ea8f700f9ca485fc65a69b25e04c222b4a03289fd0c98ba53848533a3e39a060205260ff60076040600020015460081c1660068110156104655760020361053a57806000527f33ea8f700f9ca485fc65a69b25e04c222b4a03289fd0c98ba53848533a3e39a060205273ffffffffffffffffffffffffffffffffffffffff60016040600020015416331415806104ed575b6104c357806000527f33ea8f700f9ca485fc65a69b25e04c222b4a03289fd0c98ba53848533a3e39a060205260076040600020016103007fffffffffffffffffffffffffffffffffffffffffffffffffffffffffffff00ff8254161790556040519060e0820182811067ffffffffffffffff8211176104945760405280825260208201913383526040810192600084526060820193428552608083016000815260a084016000815260c085019260008452866000527fdde41ee27df2f118255a2f19cab8c860a382d1448ec2327858e570d89818304c60205260406000209551865573ffffffffffffffffffffffffffffffffffffffff8060018801965116167fffffffffffffffffffffffff000000000000000000000000000000000000000086541617855551916003831015610465577f4692713807ece016e4224a954ce29bf370e276b0cea611d553232c2f4d7b4fd9976102e673ffffffffffffffffffffffffffffffffffffffff94600597611727565b516002870155516003860155511673ffffffffffffffffffffffffffffffffffffffff6004850191167fffffffffffffffffffffffff000000000000000000000000000000000000000082541617905551910155806000527fdde41ee27df2f118255a2f19cab8c860a382d1448ec2327858e570d89818304c602052604060002054816000527fdde41ee27df2f118255a2f19cab8c860a382d1448ec2327858e570d89818304c60205261046073ffffffffffffffffffffffffffffffffffffffff6001604060002001541692806000527fdde41ee27df2f118255a2f19cab8c860a382d1448ec2327858e570d89818304c60205260ff60016040600020015460a01c1690806000527f33ea8f700f9ca485fc65a69b25e04c222b4a03289fd0c98ba53848533a3e39a060205260ff60076040600020015460081c16906000527fdde41ee27df2f118255a2f19cab8c860a382d1448ec2327858e570d89818304c60205260026040600020015491604051958695866116de565b0390a1005b7f4e487b7100000000000000000000000000000000000000000000000000000000600052602160045260246000fd5b7f4e487b7100000000000000000000000000000000000000000000000000000000600052604160045260246000fd5b7ff04747a90000000000000000000000000000000000000000000000000000000060005260046000fd5b50806000527f33ea8f700f9ca485fc65a69b25e04c222b4a03289fd0c98ba53848533a3e39a060205273ffffffffffffffffffffffffffffffffffffffff60406000205416331415610171565b7f4a306e1d0000000000000000000000000000000000000000000000000000000060005260046000fd5b7f153bcd450000000000000000000000000000000000000000000000000000000060005260046000fd5b7f81a618400000000000000000000000000000000000000000000000000000000060005260046000fd5b600080fd5b346105b85760407ffffffffffffffffffffffffffffffffffffffffffffffffffffffffffffffffc3601126105b85760243560043560038210156105b8573360009081527f8e9ac8615d5582e4226d721c7b1a4ed1dee1fb18871217ded5407e27f2ff83ea60205260409020541561113b57806000527f33ea8f700f9ca485fc65a69b25e04c222b4a03289fd0c98ba53848533a3e39a0602052600a604060002001541561058e57806000527f33ea8f700f9ca485fc65a69b25e04c222b4a03289fd0c98ba53848533a3e39a060205260ff60076040600020015460081c1660068110156104655760030361111157600082156110e9578181527fdde41ee27df2f118255a2f19cab8c860a382d1448ec2327858e570d89818304c6020524260056040832001558181527fdde41ee27df2f118255a2f19cab8c860a382d1448ec2327858e570d89818304c6020526004604082200173ffffffffffffffffffffffffffffffffffffffff33167fffffffffffffffffffffffff00000000000000000000000000000000000000008254161790558181527fdde41ee27df2f118255a2f19cab8c860a382d1448ec2327858e570d89818304c6020526107878360016040842001611727565b5060028214610eae575b600160009214610946575b60c0817f7b1f1d4fca1030b785a90556266a25017c095ffdb7241f1b5a36cf64d9c03f5e9284527fdde41ee27df2f118255a2f19cab8c860a382d1448ec2327858e570d89818304c6020526040842054908085527fdde41ee27df2f118255a2f19cab8c860a382d1448ec2327858e570d89818304c60205261093d73ffffffffffffffffffffffffffffffffffffffff600160408820015416918087527fdde41ee27df2f118255a2f19cab8c860a382d1448ec2327858e570d89818304c60205261093373ffffffffffffffffffffffffffffffffffffffff600460408a200154168289527fdde41ee27df2f118255a2f19cab8c860a382d1448ec2327858e570d89818304c60205260ff600160408b20015460a01c1690838a527f33ea8f700f9ca485fc65a69b25e04c222b4a03289fd0c98ba53848533a3e39a060205260ff600760408c20015460081c16938a527fdde41ee27df2f118255a2f19cab8c860a382d1448ec2327858e570d89818304c602052600560408b200154956040519788526020880152604087015260608601906116c4565b60808401906116d1565b60a0820152a180f35b8082527f33ea8f700f9ca485fc65a69b25e04c222b4a03289fd0c98ba53848533a3e39a0602052600760408320016104007fffffffffffffffffffffffffffffffffffffffffffffffffffffffffffff00ff8254161790558082527f33ea8f700f9ca485fc65a69b25e04c222b4a03289fd0c98ba53848533a3e39a060205273ffffffffffffffffffffffffffffffffffffffff60046040842001541682527f33ea8f700f9ca485fc65a69b25e04c222b4a03289fd0c98ba53848533a3e399f602052604082208183527f33ea8f700f9ca485fc65a69b25e04c222b4a03289fd0c98ba53848533a3e39a0602052600860408420015490604051906080820182811067ffffffffffffffff821117610e81576060929160039160405260ff815416151583526001810154602084015273ffffffffffffffffffffffffffffffffffffffff600282015416604084015201549182910152808202828104821483151715610e505761271011610e7d57610abd91611bfb565b8183527f33ea8f700f9ca485fc65a69b25e04c222b4a03289fd0c98ba53848533a3e39a0602052610af58160086040862001546117da565b908284527f33ea8f700f9ca485fc65a69b25e04c222b4a03289fd0c98ba53848533a3e39a060205273ffffffffffffffffffffffffffffffffffffffff60046040862001541684527f33ea8f700f9ca485fc65a69b25e04c222b4a03289fd0c98ba53848533a3e399f602052600160408520018054918201809211610e5057558183527f33ea8f700f9ca485fc65a69b25e04c222b4a03289fd0c98ba53848533a3e39a060205260ff6007604085200154166002811015610d5e5715610d8b575b8183527f33ea8f700f9ca485fc65a69b25e04c222b4a03289fd0c98ba53848533a3e39a060205260ff6007604085200154166002811015610d5e579160c09160017f7b1f1d4fca1030b785a90556266a25017c095ffdb7241f1b5a36cf64d9c03f5e9414610c93575b508084527f33ea8f700f9ca485fc65a69b25e04c222b4a03289fd0c98ba53848533a3e39a06020527fe523b938ed6306ade2fd18c2cde515e4921fb8868319befda9abaaf766295440604060ff6007828820015460081c16610c8a82519185835260208301906116d1565ba191505061079c565b610d58908286527f33ea8f700f9ca485fc65a69b25e04c222b4a03289fd0c98ba53848533a3e39a060205273ffffffffffffffffffffffffffffffffffffffff600460408820015416908387527f33ea8f700f9ca485fc65a69b25e04c222b4a03289fd0c98ba53848533a3e39a060205273ffffffffffffffffffffffffffffffffffffffff600160408920015416908488527f33ea8f700f9ca485fc65a69b25e04c222b4a03289fd0c98ba53848533a3e39a0602052600360408920015492611a9a565b84610c1f565b6024847f4e487b710000000000000000000000000000000000000000000000000000000081526021600452fd5b8183527f33ea8f700f9ca485fc65a69b25e04c222b4a03289fd0c98ba53848533a3e39a0602052610e4b73ffffffffffffffffffffffffffffffffffffffff6004604086200154168385527f33ea8f700f9ca485fc65a69b25e04c222b4a03289fd0c98ba53848533a3e39a060205273ffffffffffffffffffffffffffffffffffffffff6040862054168486527f33ea8f700f9ca485fc65a69b25e04c222b4a03289fd0c98ba53848533a3e39a060205283600260408820015492611a9a565b610bb6565b6024857f4e487b710000000000000000000000000000000000000000000000000000000081526011600452fd5b8380fd5b6024867f4e487b710000000000000000000000000000000000000000000000000000000081526041600452fd5b806000527f33ea8f700f9ca485fc65a69b25e04c222b4a03289fd0c98ba53848533a3e39a060205260ff600760406000200154166002811015610465571561103b575b806000527f33ea8f700f9ca485fc65a69b25e04c222b4a03289fd0c98ba53848533a3e39a060205260ff60076040600020015416600281101561046557600114610fd8575b60008181527f33ea8f700f9ca485fc65a69b25e04c222b4a03289fd0c98ba53848533a3e39a0602090815260409182902060070180547fffffffffffffffffffffffffffffffffffffffffffffffffffffffffffff00ff16610500179081905582518481527fe3bb8b6a10cd6f3d19108b8f000be77007825b16e073eb3a26cd8ccf3b6259a493929091610fd29183019060081c60ff166116d1565ba1610791565b60008181527f33ea8f700f9ca485fc65a69b25e04c222b4a03289fd0c98ba53848533a3e39a0602052604090206004810154600882015491546110369273ffffffffffffffffffffffffffffffffffffffff91821692909116611890565b610f36565b806000527f33ea8f700f9ca485fc65a69b25e04c222b4a03289fd0c98ba53848533a3e39a060205260ff60076040600020015460081c16600681101561046557600103610ef15760008181527f33ea8f700f9ca485fc65a69b25e04c222b4a03289fd0c98ba53848533a3e39a060205260409020600481015460088201546001909201546110e49273ffffffffffffffffffffffffffffffffffffffff91821692909116611890565b610ef1565b807f5a766cc00000000000000000000000000000000000000000000000000000000060049252fd5b7f4198c1b30000000000000000000000000000000000000000000000000000000060005260046000fd5b33602a600061114982611816565b926111576040519485611776565b82845261116383611816565b927fffffffffffffffffffffffffffffffffffffffffffffffffffffffffffffffe0602086019401368537845115611414576030845384516001101561141457607860218601535b600281116114415750611358575060427f4ec619e1829190795f929742ca4f1a6f7cd622481ddbbfb4c9b5efddb006f9aa60006111e783611816565b916111f56040519384611776565b83835261120184611816565b937fffffffffffffffffffffffffffffffffffffffffffffffffffffffffffffffe0602085019501368637835115611414576030855383516001101561141457607860218501535b6002811161138057506113585761134f60446112fe7fffffffffffffffffffffffffffffffffffffffffffffffffffffffffffffffe0601f8961130d60118b60378c8c604051998a946112c960208701997f416363657373436f6e74726f6c3a206163636f756e74200000000000000000008b52518092878901906117b7565b8501917f206973206d697373696e6720726f6c65200000000000000000000000000000008584015251809360488401906117b7565b01010301848101865285611776565b6040519586947f08c379a000000000000000000000000000000000000000000000000000000000865260206004870152518092816024880152878701906117b7565b01168101030190fd5b807fab409fe20000000000000000000000000000000000000000000000000000000060049252fd5b7fffffffffffffffffffffffffffffffffffffffffffffffffffffffffffffffff0190600f811660108110156113e7577f3031323334353637383961626364656600000000000000000000000000000000901a6113dd8386611850565b5360041c90611249565b6024847f4e487b710000000000000000000000000000000000000000000000000000000081526032600452fd5b6024837f4e487b710000000000000000000000000000000000000000000000000000000081526032600452fd5b7fffffffffffffffffffffffffffffffffffffffffffffffffffffffffffffffff0190600f811660108110156113e7577f3031323334353637383961626364656600000000000000000000000000000000901a61149e8387611850565b5360041c906111ab565b346105b85760207ffffffffffffffffffffffffffffffffffffffffffffffffffffffffffffffffc3601126105b857600435806000527f33ea8f700f9ca485fc65a69b25e04c222b4a03289fd0c98ba53848533a3e39a0602052600a604060002001541561058e57806000527f33ea8f700f9ca485fc65a69b25e04c222b4a03289fd0c98ba53848533a3e39a060205260ff60076040600020015460081c1660068110156104655760030361111157806000527fdde41ee27df2f118255a2f19cab8c860a382d1448ec2327858e570d89818304c6020523373ffffffffffffffffffffffffffffffffffffffff600160406000200154160361169a5760009081527f33ea8f700f9ca485fc65a69b25e04c222b4a03289fd0c98ba53848533a3e39a06020908152604080832060070180547fffffffffffffffffffffffffffffffffffffffffffffffffffffffffffff00ff166102001781557fdde41ee27df2f118255a2f19cab8c860a382d1448ec2327858e570d89818304c909252918290204260038201819055815460019290920154925493517f845f9d50336d0b9f5c52454923ab5f2a8155d1aa9b48b9f3483c1f87ac3cbad49490938493610460939260081c60ff9081169260a081901c9091169173ffffffffffffffffffffffffffffffffffffffff90911690866116de565b7f84588d9d0000000000000000000000000000000000000000000000000000000060005260046000fd5b9060038210156104655752565b9060068210156104655752565b919361171960809473ffffffffffffffffffffffffffffffffffffffff6117239499989760a087019a875216602086015260408501906116c4565b60608301906116d1565b0152565b906003811015610465577fffffffffffffffffffffff00ffffffffffffffffffffffffffffffffffffffff74ff000000000000000000000000000000000000000083549260a01b169116179055565b90601f7fffffffffffffffffffffffffffffffffffffffffffffffffffffffffffffffe0910116810190811067ffffffffffffffff82111761049457604052565b60005b8381106117ca5750506000910152565b81810151838201526020016117ba565b919082039182116117e757565b7f4e487b7100000000000000000000000000000000000000000000000000000000600052601160045260246000fd5b67ffffffffffffffff811161049457601f017fffffffffffffffffffffffffffffffffffffffffffffffffffffffffffffffe01660200190565b908151811015611861570160200190565b7f4e487b7100000000000000000000000000000000000000000000000000000000600052603260045260246000fd5b73ffffffffffffffffffffffffffffffffffffffff9092919216604051917f70a08231000000000000000000000000000000000000000000000000000000008352306004840152602083602481855afa928315611a2357600093611a65575b50600060209160405173ffffffffffffffffffffffffffffffffffffffff848201927fa9059cbb0000000000000000000000000000000000000000000000000000000084521660248201528660448201526044815261194f606482611776565b519082855af115611a23576000513d611a5c5750803b155b611a2f57906020602492604051938480927f70a082310000000000000000000000000000000000000000000000000000000082523060048301525afa908115611a23576000916119ed575b6119bc92506117da565b036119c357565b7fc7e8fc500000000000000000000000000000000000000000000000000000000060005260046000fd5b90506020823d602011611a1b575b81611a0860209383611776565b810103126105b8576119bc9151906119b2565b3d91506119fb565b6040513d6000823e3d90fd5b7f5274afe70000000000000000000000000000000000000000000000000000000060005260045260246000fd5b60011415611967565b9092506020813d602011611a92575b81611a8160209383611776565b810103126105b857519160006118ef565b3d9150611a74565b9092468103611ab0575091611aae92611890565b565b60009373ffffffffffffffffffffffffffffffffffffffff85949316918285527f33ea8f700f9ca485fc65a69b25e04c222b4a03289fd0c98ba53848533a3e399f60205273ffffffffffffffffffffffffffffffffffffffff80600260408820015416946040519360208501957f7c1779dc00000000000000000000000000000000000000000000000000000000875260248601526044850152166064830152608482015260848152611b6460a482611776565b51915af43d15611bf6573d611b7881611816565b90611b866040519283611776565b8152600060203d92013e5b15611b9857565b60646040517f9becf85d00000000000000000000000000000000000000000000000000000000815260206004820152601760248201527f4c69625472616e736665722e5f62726964676553656e640000000000000000006044820152fd5b611b91565b9190916000838202917fffffffffffffffffffffffffffffffffffffffffffffffffffffffffffffffff85820991838084109303928084039314611c9157826127101115611c7f57507fbc01a36e2eb1c432ca57a786c226809d495182a9930be0ded288ce703afb7e919394612710910990828211900360fc1b910360041c170290565b634e487b71905260116020526024601cfd5b505050612710919250049056fea264697066735822122001cb3ae485267e2c1ddff2d87e2db52159e6f4d7fe37be6c6e02cefa80f517a064736f6c634300081c0033",
  "linkReferences": {},
  "deployedLinkReferences": {}
}